:020000040800F2
:1000000078080020B5010008BD010008BF01000804
:10001000C1010008C3010008C5010008000000007C
:10002000000000000000000000000000C701000800
:10003000C901000800000000CB010008CD01000844
:10004000CF010008CF010008CF010008CF01000850
:10005000CF010008CF010008D11F0008E91F0008E8
:10006000012000083D20000855200008CF010008AD
:10007000CF010008CF010008CF010008CF01000820
:10008000CF010008CF010008CF010008CF01000810
:10009000CF010008CF010008CF010008912000081F
:1000A000CF010008CF010008CF010008CF010008F0
:1000B000852C0008A52C0008C92C0008CF010008D9
:1000C000CF010008CF010008CF010008CF010008D0
:1000D000CF010008E52C0008592D0008752D0008F7
:1000E000CF010008CF010008CF01000800F002F89E
:1000F00000F050F80AA090E8000C82448344AAF172
:100100000107DA4501D100F045F8AFF2090EBAE86F
:100110000F0013F0010F18BFFB1A43F0010318473B
:100120002C6600004C660000103A24BF78C878C1E5
:10013000FAD8520724BF30C830C144BF04680C60ED
:10014000704700000023002400250026103A28BF35
:1001500078C1FBD8520728BF30C148BF0B60704739
:10016000662905F0D186752900F05280002070477D
:100170001FB500F071FC04000020002104F024FEF3
:10018000401C60600020002104F008FEE0601FBDFC
:1001900010B510BD00F0A8FD1146FFF7E9FF03F010
:1001A000E3FC01F04BF803B4FFF7F2FF03BC02F0ED
:1001B000E5FE00000948804709480047FEE7FEE7E2
:1001C000FEE7FEE7FEE7FEE7FEE7FEE7FEE7FEE707
:1001D00004480549054A064B70470000252C0008D5
:1001E000ED00000878020020780800207804002044
:1001F00078040020704700000FB4044910B503AA2A
:10020000029800F0C5FB10BC5DF814FBE80000206C
:100210002DE9F0410646002410687529314616A5DF
:1002200010D0AFF30080002802DA404213A507E0A7
:1002300031688A0701D512A502E0490704D511A546
:10024000012401E0AFF3008000210A2206F1240717
:1002500009E0B0FBF2FCB0FBF2F302FB1C00303013
:1002600078541846491C0028F3D123462A463046C4
:10027000BDE8F04100F024B9000000002D000000AE
:100280002B000000200000002DE9F0474FF0000A8D
:1002900089460446C0F820A02046E1688847002827
:1002A00076D0252806D0D4E901219047206A401C49
:1002B0002062F1E7E168204600268847C4F81CA0C8
:1002C00005460027C4F818A02A2D09D0284602F0B8
:1002D0004EFE38B304EB8708303DC8F8185019E0DB
:1002E00059F8041B204604EB87029161E1688847B6
:1002F000012F054618D1E069002820DA26F02006F3
:100300001DE0D8F8180000EB800005EB4000303805
:10031000C8F818002046E1688847054602F027FE25
:100320000028EED1012F0AD02E2D08D12046E168F9
:1003300088477F1C0546022F46F02006C4DBA069D3
:10034000002803DA404246F00106A061F00701D020
:1003500026F010066C2D0AD0682D08D04C2D39D00F
:100360006A2D35D0742D35D07A2D33D016E0E16862
:100370002F4620468847B84205460AD16C2F27D021
:100380004FF48060E168064320468847054605E053
:1003900027E06C2F1AD04FF4807006430DB3A5F1FF
:1003A0004100192802D8203546F400664A462946FD
:1003B000204626604E46FFF7D3FE80B101280BD0C1
:1003C000F61D26F0070000F1080965E74020E4E784
:1003D0008020D7E70020D5E706F104095CE728462E
:1003E00061E7206ABDE8F08730B505460B462A462E
:1003F00013F8014B12F8010B08B1A042F8D01CB160
:10040000002802D06D1CF1E7284630BD40EA010308
:1004100070B59B072ED14FF00136042A2AD308C8A5
:1004200010C99D1B9D43121F15EAC61517D0D8B2DF
:10043000E1B2401A50EA056110D198B2A1B2401A57
:1004400050EA05410AD123F07F4024F07F41401A51
:1004500050EA052102D1180EA0EB146070BDA34232
:10046000DBD018BA21BA884201D9012070BD4FF003
:10047000FF3070BD0AB9002070BD10F8013B11F8C3
:10048000014B63B1A3420AD1521E08D010F8013BC0
:1004900011F8014B1BB1A34201D1521EEDD1181B23
:1004A00070BD704770477047704710B500F0D8FABC
:1004B000006810BD10B5044600F0D2FA046010BD0B
:1004C0002DE9F0470D4699469246044600F124086E
:1004D0000168880604D5E06921F01001216000E080
:1004E0000120A84201DD471B00E00027A1697A191D
:1004F00002EB0900081AA0612078C00602D4204649
:10050000AFF30080002608E0D4E901211AF80600C4
:100510009047206A401C761C20624E45F4DB207810
:10052000C0060AD52046AFF3008006E0D4E90121D9
:1005300030209047206A401C2062381EA7F1010736
:10054000F4DC07E0D4E9012118F805009047206A9F
:10055000401C2062281EA5F10105F3DC2046AFF304
:1005600000802078000602D50220BDE8F087012037
:10057000FBE770472DE9FF4F0C461E464FF0FF3753
:100580008BB0D2E90001DDF860800A908A46C1F3A1
:100590000A5505B93D46002108464FF00000BAF162
:1005A000000F00F4400005DA00EB80004FF440013A
:1005B00001EA50004FEA9059B9F1010F00DDB94648
:1005C0000A9850EA4A000ED044F61050A5F2FF35C2
:1005D00045432F14B8F1000F1ED07542291E1EDDB1
:1005E000C9F100021CE0B8F1010F4FF0000001D08A
:1005F000302103E0F24305E02154401CB042FBDB14
:1006000030460022002121540B99C1F80880C1E92D
:1006100000200FB0BDE8F08FBD1B6D1CDEE74A4621
:1006200000DA694206A800F0E5FA06AB93E8070095
:1006300003AB83E8070050460A9901F094F88DE86F
:100640000700A0F500501F3800900398002D0ADD28
:1006500042F21F014A460844002303A9039068465A
:1006600001F040FB09E0A0F500504A461F38002386
:1006700003A90390684601F05FFB8DE807000004C2
:10068000000C03D04FF0FF30410800E01046B8F1F5
:10069000000F03D00022009215461EE0751E05D4FF
:1006A00000F0E2F9303262556D1EF9D5B3460122F1
:1006B000084302D000227F1C04E02078302801D1BA
:1006C00000227F1E002A099784D01DE0112D07DA31
:1006D00000F0CAF9303262556D1C50EA0102F5D1C2
:1006E000084302D00098C8B10EE00021681E05E062
:1006F000235C625C63542254401E491C8142F7DB38
:10070000AB46A81B401E0990002004F80B000B9874
:10071000099AC0F80880C0E9002B7AE711264FF04B
:10072000000857E72DE9F04F88460446D21D22F015
:10073000070191B0D1E90001CDE90A0102F028FBDF
:1007400002460B98C00F01D02D2007E020688107DA
:1007500001D52B2002E0202101EAC000032A0990E4
:1007600001D0072A05DB03464146204600F0E2F9A6
:100770000BE12078800601D5E06900E00620B8F1A1
:10078000650F814606D0B8F1660F18D0B8F1670F33
:1007900070D131E00020B9F1110F009001DB11237D
:1007A00001E009F101030AAA01A90CA8FFF7E2FE82
:1007B000DDE90C70002609F10105834647E00120C0
:1007C0004B4600904FF000470AAA01A90CA8FFF77A
:1007D000D1FEDDE90DB00C995D46002610B909F196
:1007E00001000D18B9EB050003D4C0F1FF3609F183
:1007F0000105A5EB09002BE0B9F1010F01DA4FF07B
:1008000001090020B9F1110F0090484601DD1123C4
:1008100000E003460AAA01A90CA8FFF7ABFEDDE938
:100820000C704D4600268346207800070AD4AB455D
:1008300000DA5D4601A8012D04DD411911F8011C03
:10084000302907D04F4502DA17F1040F04DA0120EE
:1008500082460FE06D1EEEE7002F02DCED1B3E44EA
:1008600003E0781CA84200DD7D1CB81B00F1010AE2
:100870004FF000472078000703D4AA4501DB4FF072
:10088000FF3A0021B7F1004F0DF143088DF84310F6
:1008900024D002202B23002F01DA7F422D230A21AE
:1008A000021EA0F1010000DC5FB197FBF1FC97FB99
:1008B000F1F201FB1C7C17460CF1300C08F801CD5D
:1008C000EEE7A8F1010003702188090501D5452153
:1008D00000E06521A0F1010800F8011C09980FA9AA
:1008E000A1EB0807FF1D00B10120411901EBEA70DF
:1008F000A1693844081A401EA0612078C00602D4BD
:100900002046AFF30080099828B1D4E9012190472F
:10091000206A401C20622078C00622D52046AFF312
:1009200000801EE0002E04DBB34502DD01A8805DDF
:1009300000E03020D4E901219047206A401C206269
:10094000761CAAF101005FEA000A0AD100F084F8DF
:10095000C0680168405CD4E901219047206A401CCE
:100960002062281EA5F10105DCDC07E0D4E90121A5
:1009700018F8010B9047206A401C2062381EA7F12E
:100980000107F3DC2046AFF30080032011B041E6FD
:10099000074B70B50D467B4400F0B9F80446284675
:1009A00000F09AF910B14FF0FF3070BD204670BDD5
:1009B000532D00000FB4002300B589B00CA900919D
:1009C0000B99CB60214B7B440693214B7B440793CF
:1009D00004236FF00042CDE901321E4A7A446B468F
:1009E00008920246002005F0F1FA09B05DF814FB08
:1009F00070B506464FF0FF3015460C46324686B0BD
:100A00000091CDE9010169460020049004A8FFF798
:100A1000D1FF02460498211825B108B1084600E02C
:100A200020462860049800280DD0002A02DD009896
:100A3000884208D03246081B69460094CDE901047B
:100A400004A8FFF7B7FF06B070BD0000EB0100007F
:100A50000302000013010000004870473402002028
:100A6000004870471402002030B5B0F10A024FEA86
:100A7000900E71F100034EEA817EB0EB0E0061EB47
:100A800091014FEA101E4EEA017E10EB0E0041EB81
:100A900011114FEA102E4EEA016E10EB0E0041EBE1
:100AA00011214FEA104E4EEA014E10EB0E0041EBC1
:100AB0001141401841F100014FEAD00040EA417075
:100AC0004FEAD10110EB80054FEA810444EA9074AB
:100AD00044EB01046D1944EB0404521BA3414FF095
:100AE000000348BF0A3200D530BD401C41F100016F
:100AF00030BD10B5044600F01DF90068005D00F03F
:100B0000010010BD01694A1C02610878704700B5F8
:100B10008FB0CDE901310021059105497944CDE936
:100B2000031011466846FFF7AFFB0FB000BD000091
:100B3000E5FFFFFF2DE9F0411F460446032601684B
:100B4000072A01F4006004DB08B116A505E016A52C
:100B500003E008B115A500E015A521F01000206004
:100B6000A069C01EA0610FB1401EA0612046AFF376
:100B700000804FB1D4E9012138469047206A401CDB
:100B80002062C01C206206E0206AFAE7D4E9012155
:100B900015F8010B9047761EF8D22046AFF300807F
:100BA000BDE8F0814E414E006E616E00494E460038
:100BB000696E6600426842B1016811F8013B23B1D9
:100BC000521EC0E90012184670470121C160881EFC
:100BD000704742685AB1C368016843B983688B4261
:100BE00005D0491E521CC0E90012002070474FF08A
:100BF000FF3070472DE9F047814616468AB03548E8
:100C000078440DC88DE80D0032487844801C03AC50
:100C10000DC884E80D0041F69B300844372190FB55
:100C2000F1F290FBF1F5A5F1800501FB12041B3CEC
:100C300002D56442012000E00020DFF898A0804641
:100C40000027FA44AAF1BE0A0EE0E0070AD03246B5
:100C5000684607EB470101230AEB810101F06CF8BC
:100C60008DE8070064107F1C002CEED1194F7F44E3
:100C7000AE3F19E0E80715D007EB04100DF1180A94
:100C800090E80E008AE80E00C068F04201D1981981
:100C900008903246012306A903A801F04DF803ABE2
:100CA00083E807006D10641C002DE3D14FF00103B1
:100CB00032466946B8F1000F03A802D001F012F8DD
:100CC00001E001F039F8C9E90001C9F808200AB0CB
:100CD000BDE8F087305B0000007B00F080007047CB
:100CE00000487047140200207546FFF7F9FFAE4632
:100CF00005006946534620F00700854618B020B528
:100D0000FFF766FABDE820404FF000064FF00007FD
:100D10004FF000084FF0000B21F00701AC46ACE8A3
:100D2000C009ACE8C009ACE8C009ACE8C0098D4610
:100D30007047000010B5FFF78FFE001D10BD00BF0B
:100D4000894000002DE9FF4F06468BB00878FF2848
:100D500006D0491C2D2805D000244FF0000908E0DA
:100D600000200CE00124F8E709EB8903491C00EBA3
:100D700043090878FF28F7D114B1C9F10000814672
:100D8000107800252C46AA4629462D2801D02B286C
:100D900004D1521C2D2813D0002082468B46107897
:100DA000FF280FD04FF0000C0A21521CA5FB017840
:100DB00004FB018105FB0C11C5194BEB0104EEE7A7
:100DC0000120EAE7002108464FF00000BAF1000FC9
:100DD00002D000EB80004008C0F38157012F01DDF5
:100DE0004FF0FF370E9955EA040009EB01080BD0CC
:100DF0004FF0020918F5FA7F16DA4FEACA70002F91
:100E0000706008DD012007E04FEACA70C6E900B053
:100E10000FB0BDE8F08F00203060FFF721FEC0F872
:100E200000901821084616E0B8F5FA7F18DD002F6B
:100E300002DAF748784401E0F6487844D0E9001037
:100E4000C6E9001040EACA707060FFF709FEC0F8FA
:100E50000090142108460FB0BDE8F04F05F051B8DE
:100E6000002108464FF00000B8F10001099002DAB5
:100E7000C7F1000200E03A4601DAC8F1000106A815
:100E8000FFF7B8FE06AB93E8070003AB83E8070063
:100E900044F23E005BEA04010090584604D144F25B
:100EA0001E012C465D460091210C0904014306D128
:100EB0000099240444EA15442D041039009104F0EB
:100EC0007F41014306D10099240244EA15642D02B2
:100ED0000839009104F07041014306D100992401C2
:100EE00044EA15742D01091F009104F040410143AB
:100EF00006D10099A40044EA9574AD00891E0091C2
:100F000004F00041084304D100986D196441401E6B
:100F100000904FF001033A466846B8F1000FCDE962
:100F2000014503A902DD00F01CFF01E000F0EFFE27
:100F3000BAF1000F04460D4601D084F000440021B0
:100F400008464FF00000099940F2FF77484010F042
:100F50000C0F07D124F00040284303D0C4F30A50FB
:100F6000B84212D1FFF77CFDC0F80090C4F30A50DC
:100F7000B8420AD1A8487844D0E90010C6E9001068
:100F800004F000410843706042E7C6E900543FE7BF
:100F90002DE9FF4F1F464FF0000A4FF0FF3845463E
:100FA00091B0D7E90146CDF83CA0FFF755FDC068E8
:100FB0000168405C1090B96912986D1C8847396AC5
:100FC000814688470028F6D1B9F1FF3F0AD0002EAC
:100FD00024F4D06411DDB9F12B0F08D0B9F12D0F35
:100FE0000BD102E0404615B013E744F48064B969C0
:100FF00012986D1C8847761E8146600504A901D5AC
:101000002D2000E02B20002E01F1010B0DF1300806
:101010008DF810003FDDB9F1690F08D0B9F1490F23
:1010200005D0B9F16E0F02D0B9F14E0F1CD13B467D
:1010300001A8009580E85002DDE912126FF002006D
:1010400004F0C8FFC11CCED10EE0B96912986D1C26
:10105000884781461398761E44F4007405600F9803
:10106000401C002E0F9016DDB9F1300FEDD0B9F114
:10107000780F02D0B9F1580F0DD10F9801280AD17D
:101080003B46CDE90054DDE91212001F029604F040
:101090009FFFC11CA7D1109989453ED144F080041F
:1010A00006E01399681CAAF1010A44F40074086070
:1010B000B9696D1C1298761E884730288146F0D099
:1010C0002BE01099894505D1200603D4761E44F003
:1010D000800418E0484601F04AFF08B3761E0DF17F
:1010E00023018B4544F4007408D2A9F130000BF8B9
:1010F000010B200607D5AAF1010003E0200602D467
:101100000AF101008246A00502D51399681C086007
:10111000B96912986D1C88478146002ED1DC53E0D6
:10112000002E51DDB9F1650F02D0B9F1450F4BD159
:10113000A00549D5B9696D1C1298761E24F4407437
:101140008847002E81460CDD2B2804D0B9F12D0FE5
:1011500007D144F48074B96912986D1C8847761ED3
:101160008146E00501D52D2100E02B2108F8011B67
:10117000CDF8008021E0761E0DF13901884544F458
:1011800000740CD2A9F1300010F0FF0088F80000C4
:1011900002D10099884509D908F1010806E0E00567
:1011A00001D51E4801E042F20F708246B9691298DB
:1011B0006D1C8847814613980560002E04DD484663
:1011C00001F0D5FE0028D6D1F96912988847FF2092
:1011D00053468BF8000088F8000000200A900B901E
:1011E00004AA0CA90AA8FFF7ADFDA00502D46FF070
:1011F0000100F8E614F0240F12D0E0071CD1386883
:10120000DDE90A12031D3B600068C0E9001213E02B
:101210003C5900002E590000F2570000F1D8FFFFA2
:101220000AA9684601F032FEE00705D13868009A45
:10123000011D3960006802602846D4E610B50446F6
:10124000AFF300802046BDE81040FEF7ACBF0000C1
:101250004FF0013C50F8042B51F8043B9A4221D145
:10126000A2EB0C03934313EACC1317D150F8042BD1
:1012700051F8043B9A4215D1A2EB0C03934313EAB5
:10128000CC130BD150F8042B51F8043B9A4209D1EE
:10129000A2EB0C03934313EACC13DBD04FF0000016
:1012A000704700BFD01A01BAB1FA81F101F01801FC
:1012B00022FA01F0CB40C1F12001DBB2C0B2C01A6A
:1012C0002CFA01F3D11A914311EAC311E6D1704708
:1012D0002DE9FF4F1F464FF03C0987B04FF0004209
:1012E000DDE9141001F10108DDF858A002EA4050D0
:1012F0000390002005908346054604460490B96992
:10130000461E08988847AAF1010A0290BAF1000F18
:101310003BDD02982E2815D0102100F016FA002887
:101320002EDB4FF0010B0599014317D0B9F1000FE7
:101330000BDB4A46C11700F0F5F905430C43A9F150
:10134000040905E0012004900BE008B145F0010517
:1013500001200590049820B9361D02E0049800B1E0
:10136000361FB969089808F101088847BBF1000FDA
:10137000AAF1010A0290C9D00999C1F80080C5E715
:101380000298702808D0502806D0F9690898884734
:10139000BBF1000F14D04FE0002002900120BBF100
:1013A000000F049009D0B969089808F1010888472E
:1013B000AAF10109B9F1000F07DCF969089888471B
:1013C0006FF001000BB0BDE8F08F2B2804D02D2862
:1013D0000CD14FF0FF300490B969089808F101086A
:1013E0008847A9F10109B9F1000FE6DD411CE4D0FD
:1013F0000A2100F0AAF90028DFDB029908F10108B0
:1014000001EB810100EB41000290B969089888471F
:101410000A2100F09AF9099AA9F10109B9F1000F1E
:10142000C2F8008001DD0028E7DAF96908988847EA
:101430000499029800FB016655EA040004D004F008
:101440004041090002D006E0039898E0A40044EA75
:101450009574AD00B61E04F00041080002D16D196C
:101460006441761E159810F0240F03D04FF00B093D
:101470005C4803E04FF028096FF07D008246564536
:1014800007DAAAEB06018944B9F1410F01DD4FF0FB
:10149000410901200021A9F1010200F043F90246AF
:1014A00028400B462140084301D0012100E00021E3
:1014B000501E029143F1FF3128402140084301D0E2
:1014C000012000E000200299834651EA0B014FD031
:1014D000002108464FF00000039900F4400039B1A4
:1014E00000EB80004FF4400100EBD07001EA600097
:1014F0008015012802DD4FF0FF3000E013D0401CC2
:1015000036D0029860B3BBF1000F0CD14A460120DF
:10151000002100F007F928402140084301D00120B4
:1015200000E00020E0B101204A46002100F0FAF876
:10153000034640190A4661412D1A8C4111D3B9F175
:10154000400F09DD159810F0240F02D0AAF13406DF
:1015500003E0AAF1170600E0761C00254FF00044D6
:1015600006E05B1E42F1FF3220EA030521EA020495
:10157000CAF10100B04206DA1B4903980843019002
:10158000002000900EE0039AC4F3D321E80A0A4336
:10159000164940EA44500A433146CDE90002684604
:1015A00001F0DAFC159810F0240F0BD01598C00745
:1015B00015D13868DDE90012031D3B600068C0E901
:1015C00000120CE002A8694601F060FC1598C00703
:1015D00005D13868029A011D3960006802604046F2
:1015E000F0E6000002FCFFFF0000F07F0000F03F8B
:1015F0002DE9FF4F92461D4685B04FF00041DDE9D1
:10160000124BDDE914727F1E01EA4B50414940F054
:10161000FF4940EA0108002122F0200049280491F6
:1016200002D04E2828D04CE03BA0012607C88DE808
:101630000700A9690698641C88477F1E014606D4E6
:101640001DF8060018B121F0200181420BD0E96994
:1016500006988847032E34D0082E32D06FF0010050
:1016600009B0BDE8F08F761C032E01D0082EE0D122
:10167000601CCAF80000DCE7A9690698641C88476A
:101680007F1E2AD420F02000412826D1A96906987F
:10169000641C88477F1E20D420F020004E281CD1D7
:1016A000A9690698641C88477F1E48F4002849F4FD
:1016B0008009CAF8004001D4282806D0E9690698B4
:1016C00088475FEACB7012D022E0A9690698641CB3
:1016D00088477F1E01D4002803DAE9690698884705
:1016E000BCE72928F1D1641CCAF80040E9E71BF0E7
:1016F000240F07D028680499031D2B600068C0E9F7
:10170000001805E02868021D2A600068C0F80090F3
:101710002046A5E70000F07F494E46494E495459FE
:1017200000000000B2F120030AD5C2F1200301FA43
:1017300002F120FA03F300FA02F041EA03017047D4
:1017400000FA03F14FF0000070473A2800D2303819
:1017500020F02002412A01D3A2F13700884201D3B0
:101760004FF0FF3070475FEA400C08BF91F0000F68
:101770004FEA8C234FEAC12243EA51514FEA1C50F1
:1017800018BF00F5F0404FEA300018BF41F00041AB
:101790005FEA6C5C00F02980BCF1FF3F08BF40F0BD
:1017A00080407047130C06BF12044FF0100C4FF02E
:1017B000000C130E04BF12020CF1080C130F04BF2F
:1017C00012010CF1040C930F04BF92000CF1020CF7
:1017D000D30F04BF52000CF1010C11464FF0000270
:1017E000A0F11F00A0EB0C00704711F0004F08BFE4
:1017F000704731F000413FF4D5AF0B0C06BF090430
:101800004FF0100C4FF0000C0B0E04BF09020CF14E
:10181000080C0B0F04BF09010CF1040C8B0F04BF63
:1018200089000CF1020CCB0F04BF49000CF1010C34
:10183000CCF12003A0EB0C0022FA03F302FA0CF225
:1018400041EA030100F10100704720F07F4C80EA7B
:10185000030023F07F47ACEB070303F57C5300F054
:10186000004003F1FF032DE980494FEA154B09B40D
:101870004FEA144325EA0B4E24EA03480FF20426EC
:1018800006EB132749083E785FEA320203FB06673E
:10189000C7F5000707FB06F64FEA54374FEAD6466E
:1018A00006F1020607FB066CCCF1005C4FEA1C4710
:1018B0002CEA074C07FB06F40CFB06F504EB154677
:1018C0004FEA961634BF00204FF000404FEAD13760
:1018D00006FB07FC4FEA1C4C0CFB0BF7D21B03FB6F
:1018E0000CF761EB07010CFB0EF7B0EB074072EB56
:1018F00017420CFB08F734BFA2EB0742B2EB0742DA
:1019000061EB17414FEA0C444FEA910706FB07FCD5
:101910004FEA1C4C0CFB0BF7B0EBC74072EB573295
:1019200003FB0CF734BFA2EBC742B2EBC74261EB3B
:1019300057310CFB0EF7B0EBC70072EB57720CFB84
:1019400008F734BFA2EBC702B2EBC70261EB5771D5
:10195000039F4FEA816141EA921104EBCC044FEA04
:10196000D1374FEA826206FB07FC42EA90124FEA47
:1019700080604FEA1C4C0CFB0BF7D21B03FB0CF7EF
:1019800061EB07010CFB0EF7B0EB074072EB17425F
:101990000CFB08F734BFA2EB0742B2EB074261EB46
:1019A00017414FEA8C554FEA910704EB9C2406FB44
:1019B00007FC4FEA1C4C0CFB0BF7B0EBC74072EB7B
:1019C000573203FB0CF734BFA2EBC742B2EBC7425E
:1019D00061EB57310CFB0EF7B0EBC70072EB57729F
:1019E0000CFB08F734BFA2EBC702B2EBC70261EBF6
:1019F000577115EB4C254FEA816141EA92114FEA8C
:101A000082624FEAD13742EA901206FB07FC44F1AA
:101A100000044FEA80604FEA1C4C0CFB0BF7D21B12
:101A200003FB0CF761EB07010CFB0EF7B0EB074073
:101A300072EB17420CFB08F734BFA2EB0742B2EB84
:101A4000074261EB174115EB1C154FEA813141EA62
:101A500092414FEA823242EA90424FEA80304FEAA6
:101A60000C7644F1000448EA03434EEA0B484FF079
:101A7000000EB2EB080C71EB030724BF6246394637
:101A80004EEB0E0E4FF0000B0018524149414BEB4C
:101A90000B0BB2EB080C71EB03077BF1000B24BFBF
:101AA000624639464EEB0E0E4FF0000B00185241C5
:101AB00049414BEB0B0BB2EB080C71EB03077BF1CD
:101AC000000B24BF624639464EEB0E0E51EA020768
:101AD00018BF46F0010616EB0E7655F1000254F1E0
:101AE000000103D5BDE88901BDE80088BDE8890192
:101AF000BDE80048B619524141EB0101A3F10103D1
:101B0000704780807F7E7D7C7B7A7978777676756A
:101B10007473727171706F6E6E6D6C6C6B6A6A69E2
:101B20006868676666656464636362616160605F7C
:101B30005F5E5E5D5D5C5C5B5B5A5A5959585857F5
:101B4000575656555555545453535252525151505D
:101B500050504F4F4F4E4E4D4D4D4C4C4C4B4B4BB0
:101B60004A4A4A49494948484847474747464646F6
:101B70004545454444444443434343424242424131
:101B80004141000046EA0646A3F570534FEA164667
:101B900046EA42564FEAD22242EA415210B54FEA93
:101BA000D121A3F1010300F02FF820F0004000F153
:101BB000020C00F0004701EB00501146BCF5006F2D
:101BC00040EA070000D210BDBAF1000F0AD01CB5E0
:101BD00003B44FF004004FF004014FF000000FBCBD
:101BE000BDE810404FF00001BBF1010FB9BF044840
:101BF0004FF0FF310348002140EA070010BD00BF4D
:101C0000FFFFEF7F0000F07F002B9C4630D4770071
:101C10002BD01CB54FEA370703B44FF010004FF03C
:101C20001001BAF1000F06D0BCF1000FDCBF40F08C
:101C3000080040F008014FF000000FBCBDE8104064
:101C40000BF1010BBBF1010F08BF5FEA170722BFC1
:101C500012F1010211F101014FF0004143F10003C3
:101C600000F0004043EA00007047F9D35708D0E77E
:101C700046EA064613F1400F4FEA16461FDD13F100
:101C8000200FDFBF16430A46002120335B42BED03F
:101C9000C3F1200746EA064602FA07F74FEA16465E
:101CA00046EA0706C3F1200722FA03F201FA07F712
:101CB00021FA03F14FF0000342EA0702A7E746EAE0
:101CC000020646EA06464FEA164646EA0106BCBF49
:101CD00046EA0646360C4FF000034FF000024FF084
:101CE000000194E72DE9804C9A46934670B491E840
:101CF000380007C831EA400C48BF34EA430C03D52A
:101D0000FFF7A3FDFFF780FFF0BCBDE8008C2DE9D5
:101D1000804C9A46934670B491E8380007C831EA7F
:101D2000400C48BF34EA430C03D5FFF78EFDFFF7A4
:101D300029FFF0BCBDE8008C2DE9804C9A46934603
:101D400070B491E8380007C810F0804F08BF13F056
:101D5000804F03D100F01AF8FFF756FFF0BCBDE842
:101D6000008C2DE9804C9A46934670B491E8380077
:101D700007C810F0804F08BF13F0804F03D100F068
:101D800005F8FFF7FFFEF0BCBDE8008C20F07F47B0
:101D900080EA030023F07F4C07EB0C03A3F57C5390
:101DA00000F00040A3F1FE0392F0000F00F0B380BA
:101DB00095F0000F00F077802DE901494FEA1140BE
:101DC0004FEA144621EA004800FB06FC24EA0647D5
:101DD00008FB06F607FB08F800FB07F718EB0648B8
:101DE0004CEB164C4FEA124B18EB07484FEA1546DE
:101DF0004CEB174022EA0B4E0BFB06FC25EA06478C
:101E00000EFB06F607FB0EFE0BFB07F71EEB064E5E
:101E10004CEB164C4FF000061EEB074E4CEB174BED
:101E200018EB0B0840F1000018EB0E0B58EB000804
:101E300040F100008F1A4FF000013CBFC943661B00
:101E400014BFB5EB040C00213CBFC943F61B4FEA9D
:101E500017444EEA8E0E27EA04454FEA1C4704FB5E
:101E600007622CEA074C05FB07F70CFB05F604FBA1
:101E70000CFC16EB074642EB174216EB0C4642EB06
:101E80001C421BEB060658EB0202414146EA9E0645
:101E900001D5BDE80189B619524141EB0101A3F119
:101EA0000103BDE801894FEA14454FEA114724EACE
:101EB000054621EA074C05FB07F406FB07F70CFB78
:101EC00006F105FB0CFC11EB074144EB17444FEA0C
:101ED000124711EB0C4144EB1C4422EA074C05FB72
:101EE00007F206FB07F70CFB06F605FB0CFC16EBEE
:101EF000074642EB174216EB0C4642EB1C456A18AC
:101F000054F1000148BF7047B619524141EB01013D
:101F1000A3F10103704795F0000F37D04FEA11424B
:101F20004FEA144721EA024624EA074C02FB07F174
:101F300006FB07F70CFB06F402FB0CFC14EB074452
:101F400041EB17414FEA154714EB0C4441EB1C41A0
:101F500025EA074C02FB07F506FB07F70CFB06F624
:101F600002FB0CFC16EB074645EB174516EB0C463F
:101F700045EB1C42121951F1000148BF7047B619D8
:101F8000524141EB0101A3F1010370474FEA1445AF
:101F90004FEA114724EA054621EA074C05FB07F101
:101FA00006FB07F70CFB06F24FF0000605FB0CFCE6
:101FB00012EB074241EB174112EB0C4251EB1C4173
:101FC00048BF7047921841EB0101A3F1010370472C
:101FD0000448006800F0010010B1012001490860C8
:101FE00070470000140401400448006800F002003B
:101FF00010B102200149086070470000140401403C
:1020000010B50C48006800F0040090B103210020D6
:1020100001F0CEFB28B108480068401E0649086060
:1020200004E005480068401C034908600420014999
:10203000086010BD140401400C0000200448006832
:1020400000F0080010B10820014908607047000046
:102050001404014010B50C48006800F0100090B165
:102060000521002001F0A4FB28B108480068401CAD
:102070000649086004E005480068401E03490860FE
:1020800010200149086010BD140401401000002018
:102090002DE9FF5FB548006800F0200010B1202056
:1020A000B2490860B148006800F0400010B140201B
:1020B000AE490860AD48006800F0800000287CD080
:1020C00000F00CFB00F088F9A948B0F9000003F01B
:1020D0003BFD019003F0A0FB4FF06632A54BCDE92C
:1020E000020102F075FF8046A34AA44B03F06AF98F
:1020F00006460F46A248006803F08EFB8246324631
:102100003B4602F0A9FE044602F074FE9C490860BA
:102110009C48B0F9000003F017FD019003F07CFB30
:1021200080464FF06632934B02F052FF0646924AC9
:10213000924B03F047F982468B469348006803F0C0
:102140006BFB52465B46CDE9020102F085FE044678
:1021500002F050FE8C4908608C48B0F9000003F092
:10216000F3FC019003F058FB82464FF06632814B3E
:1021700002F02EFF8046804A804B03F023F9CDE920
:1021800002018348006803F047FB0646DDE90223AD
:1021900002F062FE044602F02DFE7D4908607D4893
:1021A000B0F9000003F0D0FC83467B48B0F9000092
:1021B00003F0CAFC5946039000E0C3E003F0C6FBFD
:1021C000824603F029FB804600F0DAFE0646734A99
:1021D000734B03F0F7F8044602F00CFE71490860F7
:1021E0006C48B0F9000003F0AFFC83466E48B0F9CC
:1021F000000003F0A9FC5946039003F0A7FB8246B8
:1022000003F00AFB804600F0BBFE81F00041064669
:10221000624A634B03F0D6F8044602F0EBFD6349D3
:1022200008606148B0F9000003F08EFC83465A480C
:10223000B0F9000003F088FC5946039003F086FBD8
:10224000824603F0E9FA064600F09AFE0446534A35
:10225000534B03F0B7F8804602F0CCFD54490860B8
:102260005448B0F9000003F06FFC039003F0D4FA77
:10227000804689465048B0F9000003F065FC0390A1
:1022800003F0CAFA064642464B4600F089FF044670
:10229000424A434B03F096F8824602F0ABFD4749B1
:1022A00008603348B0F9000003F04EFC814603F0AB
:1022B000B3FA07464FF066322E4B02F089FE054610
:1022C00002F098FD04462246364801683C4800F07A
:1022D00064F93C4908602B48B0F9000003F034FC75
:1022E000814603F099FA07464FF06632214B02F01F
:1022F0006FFE054602F07EFD044622462B4801682B
:10230000314800F04AF9314908602048B0F900002E
:1023100003F01AFC814603F07FFA07464FF066325D
:10232000144B02F055FE054602F064FD04462246B9
:1023300022480168264800F030F9264908608020CC
:102340000A4908600948006800F4807018B14FF429
:102350008070064908600548006800F4007018B1F4
:102360004FF4007001490860BDE8FF9F140401406C
:10237000F2000020666630407B14AE47E17A743F7D
:10238000F8000020F4000020FC000020F6000020EF
:1023900000010020F0000020EE000020D9CEF7530D
:1023A000E3A54C4004010020EC00002008010020BF
:1023B0000C0100201E0100201C010020240100202F
:1023C0005C000020100100208C000020140100207F
:1023D0002C0000201801002070B5032000F02CF81C
:1023E0000446042000F028F8054645EA042000B21F
:1023F0000E490880072000F01FF80446082000F06E
:102400001BF8054645EA042000B20949088005206A
:1024100000F012F80446062000F00EF8054645EAE2
:10242000042000B20349088070BD00001C01002098
:102430001E0100202001002070B5044600F06EF857
:102440003C2000F04AF800F090F8204600F045F8F3
:1024500000F08BF800F078F800F060F83D2000F014
:102460003CF800F082F800F018F8054600F004F897
:1024700000F06AF8284670BD10B501220B21104605
:1024800001F07AFA01220A21104601F075FA0022C1
:102490000A21012001F070FA10BD70B5002501225B
:1024A0000B21104601F068FA002412E001220A21F3
:1024B000104601F061FA0B21012001F079F910B109
:1024C00080202041054300220A21012001F054FA16
:1024D000641C082CEADB284670BD70B50546002454
:1024E00019E080202041284028B101220B2110460C
:1024F00001F042FA04E000220B21012001F03CFA35
:1025000001220A21104601F037FA00220A21012097
:1025100001F032FA641C082CE3DB70BD10B5012217
:102520000B21104601F028FA01220A21104601F081
:1025300023FA00220B21012001F01EFA00220A21B9
:10254000012001F019FA10BD10B500220B21012065
:1025500001F012FA01220A21104601F00DFA0122BF
:102560000B21104601F008FA10BD10B5002401221D
:102570000B21104601F000FA01220A21104601F059
:10258000FBF90B21012001F013F9044600220A2176
:10259000012001F0F1F9204610BD2DE9F05F04465D
:1025A0000D4616463046E16A03F036FC8046E16986
:1025B00003F02AFB0746A16A03F05AF9A062E06A19
:1025C000E062D4E9060103F01FFB8246E16903F0F3
:1025D0001BFB8046D4E9040103F04AF98346E16914
:1025E00003F012FB8246E16803F00BFC8146414692
:1025F00003F03EF90746216803F03AF9E060D4E9B8
:10260000060103F001FB0746216903F0FAFB206194
:10261000D4E9060103F0F8FA0746616903F0F1FB1B
:1026200060616168A06903F023F9A061D4E9021038
:1026300003F01EF907463946E06803F087F9206287
:10264000D4E9021003F014F907463946606903F033
:102650007DF960622846A16A03F0DEFB8046216AAC
:1026600003F0D2FA0746A16A03F002F9A0622846F5
:10267000A16A03F0D1FB8046616A03F0C5FA074600
:10268000E16A03F0F5F8E0624FF07E50216A03F052
:10269000C3FB0746E16803F0B7FAE0604FF07E50F5
:1026A000216A03F0B9FB0746216903F0ADFA206106
:1026B000616AE06803F0A8FA0746616903F0A1FBCC
:1026C0006061616A206903F09FFA0746A16903F01F
:1026D00098FBA061A06ABDE8F09F000070B53B20A8
:1026E00000F058F804463C2000F054F8054645EA4E
:1026F000042000B2214908803D2000F04BF8044638
:102700003E2000F047F8054645EA042000B21C4987
:1027100008803F2000F03EF80446402000F03AF8E0
:10272000054645EA042000B216490880432000F01F
:1027300031F80446442000F02DF8054645EA04200F
:1027400000B211490880452000F024F804464620D4
:1027500000F020F8054645EA042000B20B49088045
:10276000472000F017F80446482000F013F805460B
:1027700045EA042000B20649088070BDEC00002044
:10278000EE000020F0000020F2000020F400002005
:10279000F600002070B50446FFF7C0FED020FFF71A
:1027A0009CFEFFF7E2FE2046FFF797FEFFF7DDFEF7
:1027B000FFF7CAFEFFF7B2FED120FFF78EFEFFF74C
:1027C000D4FEFFF76AFE0546FFF756FEFFF7BCFE94
:1027D000284670BD014607238B431A02054B186833
:1027E0004FF6FF0318401043034B1843014B18608A
:1027F000704700000CED00E00000FA0570B50546DA
:102800000C460420FFF7E6FF0E48005D00F00106CD
:1028100046EA0510C1B20B4801552046E21704EB09
:10282000D2625211A4EB421301229A402146E317CF
:1028300004EBD3635B119B0003F1E023C3F8002199
:1028400070BD000000E400E070B500240EE000213F
:10285000204600F0D1F8002504E0002000F05EF9E9
:10286000681CC5B2802DF8DB601CC4B2082CEEDBFE
:1028700070BD10B502220821012000F0ABFF02223A
:102880000921012000F0A6FF01220821104601F0D5
:1028900073F801220921104601F06EF810BD70B5E1
:1028A0000546002413E08020204100EA05020921AA
:1028B000012001F061F801220821104601F05CF8C6
:1028C00000220821012001F057F8601CC4B2082C36
:1028D000E9DB01220821104601F04EF80022082110
:1028E000012001F049F870BD10B501220921104600
:1028F00001F042F801220821104601F03DF80022C3
:102900000921012001F038F800220821012001F0FE
:1029100033F810BD10B500220921012001F02CF878
:1029200001220821104601F027F801220921104652
:1029300001F022F810BD70B5002406E0002500E08B
:102940006D1CB5F57A7FFBD3641CB4F57A7FF5D3A3
:10295000FFF78FFFAE2000F0D1F8D52000F0CEF8C1
:10296000802000F0CBF8A82000F0C8F83F2000F04D
:10297000C5F8D32000F0C2F8002000F0BFF84020D6
:1029800000F0BCF8A12000F0B9F8C82000F0B6F8BB
:10299000DA2000F0B3F8122000F0B0F8812000F047
:1029A000ADF8CF2000F0AAF8D92000F0A7F8F12068
:1029B00000F0A4F8DB2000F0A1F8302000F09EF831
:1029C000A42000F09BF8A62000F098F88D2000F0DD
:1029D00095F8142000F092F8AF2000F08FF8FFF780
:1029E00033FF70BD10B50246012000E050430B1EBE
:1029F000A1F10101FAD110BD70B505460C4645F0B4
:102A0000B00000F07BF8102141EA141000F076F8D5
:102A100004F00F0000F072F870BD00002DE9F041E5
:102A200005460E461746721ED206110E6A1E520643
:102A3000100EFFF7E1FF002409E0A7F12001134A7F
:102A400002EB0111085D00F069F8601CC4B2082CAB
:102A5000F3DB721ED206110E6A1E012303EB420243
:102A6000D0B2FFF7C9FF00240BE0A7F12001074A0D
:102A700002EB011204F10801505C00F04FF8601CF9
:102A8000C4B2082CF1DBBDE8F0810000286000082A
:102A90002DE9F04780460E4617461D46002415E0F6
:102AA000281B411E0A20FFF79DFFB7FBF0F00A210B
:102AB000B0FBF1F201FB120000F130093019C1B294
:102AC0004A464046FFF7AAFF601CC4B2AC42E7DBAF
:102AD000BDE8F0872DE9F04107460E461546002473
:102AE00007E02A5D3019C1B23846FFF797FF601C36
:102AF000C4B2285D0028F4D1BDE8F08110B50446C9
:102B0000FFF7F2FE7820FFF7CAFE0020FFF7C7FEAE
:102B10002046FFF7C4FEFFF7FDFE10BD10B50446CA
:102B2000FFF7E2FE7820FFF7BAFE4020FFF7B7FE7E
:102B30002046FFF7B4FEFFF7EDFE10BD10B500F024
:102B400001F810BD0CB500200190009033480068DA
:102B500040F480303149086000BF3048006800F41C
:102B6000003000900198401C0190009818B901981D
:102B7000B0F5A06FF1D12948006800F4003010B121
:102B80000120009001E0002000900098012843D12E
:102B90002348006840F0100021490860084600689A
:102BA00020F0030008600846006840F0020008605A
:102BB0001A48406819494860084640684860084615
:102BC000406840F4806048600846406820F47C100B
:102BD00048600846406840F4E810486008460068CD
:102BE00040F08070086000BF0C48006800F0007082
:102BF0000028F9D00948406820F0030007494860E0
:102C00000846406840F00200486000BF0348406842
:102C100000F00C000828F9D10CBD000000100240A3
:102C20000020024010B51348006840F0010011492F
:102C3000086008464068104908400E494860084648
:102C400000680E4908400B4908600846006820F4F7
:102C5000802008600846406820F4FE0048604FF479
:102C60001F008860FFF76AFF4FF0006004490860AA
:102C700010BD0000001002400000FFF8FFFFF6FE4C
:102C800008ED00E04FF08040008A00F0010038B10C
:102C90004FF08040008A20F001004FF08041088210
:102CA0007047000010B50748008800F0010038B1F7
:102CB00001F07AFA0348008820F0010001490880F9
:102CC00010BD0000100400400548008800F001001D
:102CD00028B10348008820F00100014908807047AE
:102CE000100800401848008800F0200050B3164932
:102CF000091D0988C8B20D2801D00A280FD113492F
:102D00000978002917DD00221149104B1B78CA549D
:102D10000121104A117000210C4A11700BE00B497F
:102D200009784F2907D209490A780978491C074BC5
:102D30001970074988540449098821F02001024A82
:102D4000118000BF704700000038014004000020DF
:102D5000C4010020BC0000200548008800F02000CD
:102D600028B10348008820F02000014908807047FE
:102D7000004400400548008800F0200028B10348C6
:102D8000008820F02000014908807047004800407A
:102D9000490050EAC12018BF04204A0D18BF40F076
:102DA000010040F2FF72B2EB515F08BF40F0020039
:102DB000012808BF052070472DE9F0414F1E00EBA8
:102DC000C7010446D1E9000115461E4637F0060248
:102DD0000DD02A46334602F0F5FA7F1E04EBC703F6
:102DE000D3E9002302F038F837F00602F1D1022FC0
:102DF00025D0042F13D0062F18BFBDE8F0812A4636
:102E0000334602F0DFFAD4E90A2302F025F82A4615
:102E1000334602F0D7FAD4E9082302F01DF82A4617
:102E2000334602F0CFFAD4E9062302F015F82A4619
:102E3000334602F0C7FAD4E9042302F00DF82A461B
:102E4000334602F0BFFAD4E9022302F005F82A461D
:102E5000334602F0B7FAD4E90023BDE8F04101F0AF
:102E6000FBBF012203F084B801F0F6BF40F201324B
:102E700000204FF0E04103F07BB80000024A002040
:102E8000110703F075B8000001FDFFFF10B50446FF
:102E9000D1E9000100F002F8206010BDF8B5044649
:102EA0000D466A4600F030FC00987E300090002805
:102EB0001EDC002213462046294602F0E1F917D015
:102EC000002140F608004FF0000006462046294643
:102ED00001F090FF044640F6080006EA00014FF0BA
:102EE000000034F0004004BF0220FDF7E3FA29E0BF
:102EF0000098FF2828DB002108464FF0000000F46E
:102F00004006002213462046294602F059FB8CBF9A
:102F1000002501250220FDF7CDFA4FF0FF4446B110
:102F2000002D0CBF4FF400004FF48000B04218BFDA
:102F3000084C042108464FF00000002D04BF84F027
:102F40000040F8BD2046F8BD20462946BDE8F840BF
:102F500001F050BFFFFF7F7F10B504460A46D4E959
:102F60000003194600F0B8FDC4E9000110BD303877
:102F70000A2801D2012070470020704700BF704727
:102F80002DE9F84F04460D4621F0004000917349A9
:102F9000814211DC7249884201DC06D12CB1204605
:102FA0002946BDE8F84FFFF75CBF6E48002DCCBF47
:102FB0006D496E49BDE8F88F6D49814211DD6D495B
:102FC0008142D8BF4FF0FF366DDD20462946FFF71E
:102FD000DFFE042808BFFFF751FF20462946BDE861
:102FE000F88F6549654F25F00045814233DD64491E
:102FF000814219DD002632464FF0804320462946A3
:1030000001F02AFF80468A4601222046294602F026
:10301000AFFF00223B4602F015FB4246534601F04B
:10302000D7FF04460D463EE001260022BA463B4645
:103030002046294601F010FF80460F4600225346E5
:103040002046294602F0FEFA42463B4601F0C0FF08
:1030500004460D4627E04B4981421BDDDFF828A1DD
:103060000226002253462046294602F0ABF90022F0
:103070003B4601F0F1FE80460F46002253462046B3
:10308000294602F0DFFA42463B4601F0A1FF044622
:103090000D4608E0032622462B4600203B4901F05E
:1030A00097FF04460D4622462B461046194602F06D
:1030B00089F98B46824602460B4602F083F90746A1
:1030C0000246334888460B4606217844FFF774FED3
:1030D00052465B4602F076F982462E488B463A46C7
:1030E000434605217844FFF767FE3A46434602F01F
:1030F00069F902460B46002E504659460CDA01F09B
:10310000ABFE22462B4602F05DF901B022462B466B
:10311000BDE8F04F02F08ABA01F09EFE22462B462F
:1031200002F050F91C4A7A4402EBC603D3E90023AB
:1031300002F088FA22462B4602F084FA174A7A44B3
:1031400002EBC603D3E9002302F070FA009A002ACA
:10315000B8BF81F00041BDE8F88F000000001044C6
:103160000000F07F182D4454FB21F93FFB21F9BFEB
:103170000000DC3F0000203E0000F33F0000F03F75
:103180000000E63F008003400000F83F0000F0BF71
:10319000B2350000703500000E350000D634000056
:1031A0002DE9F04D9446CCF1000423F000464CEAA2
:1031B0000404524F46EAD4749A46884621F00042ED
:1031C000BC4206D8454240EA050442EAD474BC42F7
:1031D00004D9BDE8F04D6246FFF746BEAAF140555E
:1031E000A5F17F6555EA0C040BD0022404EAAA7409
:1031F000434DDFF810E144EAD87452EA000B04D0E2
:103200000CE0BDE8F04DFFF7BBBE002C14BF012C55
:10321000BDE8F08D022C30D0032C32D056EA0C0BD6
:103220000AD0BE4220D1BA4209D126F0804622F00F
:1032300080423346114617E000291ADB25E0DFF80B
:10324000C8B0FB44002C04BFDBE90001BDE8F08DF1
:10325000012C02BFDBE9000181F00041BDE8F08DE7
:10326000022C0AD0032C0CD0BA4212D1B8F1000FB4
:103270000BDA23482549BDE8F08D28462449BDE8EE
:10328000F08D28467146BDE8F08D1D482149BDE806
:10329000F08D921B12153C2AC4BF19481D490EDC43
:1032A000BAF1000FBEBF12F13C0F0020014606DB51
:1032B000624601F08DFE21F00041FFF761FE002C17
:1032C00008BFBDE8F08D012C04BF81F00041BDE8CE
:1032D000F08D114A114B022C07D002F0B3F92A46A7
:1032E000BDE8F04D0A4B02F0ADB902F0ABF92A4649
:1032F000BDE8F04D064B02F099B900000000F07FE8
:10330000182D4454FB2109C06A340000FB21F9BF89
:10331000FB210940FB21F93F075C143326A6A13CA1
:1033200030B583B00446FDF7C0F805460020CDE96E
:103330000000024621466846FDF75AFB2846FDF785
:10334000B9F8DDE9000103B030BD10B50022052158
:10335000012000F011FB10BD10B50122052110461F
:1033600000F00AFB10BD00B5034603E04FF47A708D
:1033700000F005F8181EA3F10103F7D100BD00EB22
:10338000C001C9004FF0E022516100219161052187
:10339000116100BF4FF0E021096901F4803100297B
:1033A000F8D004214FF0E0221161704770B5044657
:1033B0000025092C56D2DFE804F055050F19232DFE
:1033C00037414B000C21012000F0F2F9012801D116
:1033D000012500E0002545E00D21012000F0E8F97D
:1033E000012801D1012500E000253BE00E2101204C
:1033F00000F0DEF9012801D1012500E0002531E0CF
:103400000F21012000F0D4F9012801D1012500E0AD
:10341000002527E00821002000F0CAF9012801D189
:10342000012500E000251DE00D21022000F0C0F97B
:10343000012801D1012500E0002513E00E21022022
:1034400000F0B6F9012801D1012500E0002509E0CE
:103450000F21022000F0ACF9012801D1012500E084
:10346000002500BF00BF284670BD10B50022012115
:10347000062000F011F801220321002000F0AAF933
:10348000002201210C2000F007F801220521002074
:1034900000F0A0F910BD00002DE9F04704460E46EB
:1034A0001746032194FBF1F0C11700EB91718910CD
:1034B000A0EB810189064FEA1168032194FBF1F02A
:1034C000C11700EB9171C1F38705204600F06AF83F
:1034D0003148806940F001002F4988614FEAB130DE
:1034E00050F825000F2101FA08F188432B4941F8D3
:1034F0002500032094FBF0F100FB114088B103206C
:1035000094FBF0F100FB1140401E012101FA00F094
:1035100000FA08F0214951F8251001431F4840F8EE
:103520002510032094FBF0F1012088401C49096814
:1035300008431B49086066B9032094FBF0F10120A1
:10354000884017490831096808431549083108605F
:103550000BE0032094FBF0F10120884010490C316E
:10356000096808430E490C310860032094FBF0F011
:1035700004280ADC032094FBF0F0801D00F0FF0912
:1035800049463846FFF73AF903E017213846FFF776
:1035900035F9BDE8F0870000001002400800014046
:1035A0000004014010B50446182C12D2DFE804F0E4
:1035B0000C12181E242A30363C42484E545A60667B
:1035C0006C72787E848A909601220021084600F071
:1035D00001F989E001220021104600F0FBF883E0A8
:1035E00001220021022000F0F5F87DE001221146C1
:1035F000002000F0EFF877E001221146104600F0BD
:10360000E9F871E001221146022000F0E3F86BE0D6
:1036100001220221002000F0DDF865E001220221F4
:10362000104600F0D7F85FE001220221084600F0C2
:10363000D1F859E001220321002000F0CBF853E03B
:1036400001220321104600F0C5F84DE001220321BC
:10365000022000F0BFF847E001220421002000F022
:10366000B9F841E001220421104600F0B3F83BE034
:1036700001220421022000F0ADF835E001220521ED
:10368000002000F0A7F82FE001220521104600F0ED
:10369000A1F829E001220521022000F09BF823E097
:1036A00001220621002000F095F81DE001220621EC
:1036B000104600F08FF817E001220621022000F0EA
:1036C00089F811E001220721002000F083F80BE0C7
:1036D00001220721104600F07DF805E001220721B4
:1036E000022000F077F800BF00BF10BD00BF054A00
:1036F000128802F04002002AF9D0C2B2014B1B1D11
:103700001A8070470038014010B51446002222602C
:10371000114A21F000439342A8BF10BD53EA0002B2
:1037200008BF10BDB3F5801FA8BF226807DA362294
:1037300002F01EFC6FF0350221F000432260DFF83A
:103740001CC06FF31E510CEB23531A4441F0FF5180
:1037500041F00051226010BD0000F07F02FCFFFF2D
:103760002DE9F0410026002500240CE0611CC8B2C0
:10377000FFF71CFEC0F101070B4850F8240000FBC6
:1037800007663D44641C082CF0DB1DB9074800683F
:10379000BDE8F0816420704390FBF5F003490860B8
:1037A00008460068F4E700000860000820000020D8
:1037B00010B50246064850F82200806801248C406B
:1037C00000EA04030BB1012010BD0020FCE700005B
:1037D000C400002070B5654CA469042585402C43C5
:1037E000624DAC6108295DDA614C54F820402468D0
:1037F0008E000F25B540AC435D4D55F820502C6030
:103800001AB1032A01D0022A0FD10124944044F0B6
:1038100003048D00AC40564D55F820502D682C43C4
:10382000534D55F820502C609FE0012A01D0042A06
:103830002AD14F4C54F8204024688E000825B5400A
:103840002C434B4D55F820502C60012A0ED1484C8A
:1038500054F82040E46801258D4024EA0503012442
:103860008C401C43424D55F82050EC60042A7CD11A
:103870003F4C54F82040E56801248C40A5433C4C63
:1038800054F82040E56070E0042494408D00AC4082
:10389000374D55F820502D682C43354D55F82050A4
:1038A0002C6062E0324C54F820406468A1F10805B5
:1038B000AE000F25B540AC432D4D55F820506C603F
:1038C0001AB1032A01D0022A11D10124944044F0F4
:1038D0000304A1F10805AD00AC40254D55F820507A
:1038E0006D682C43224D55F820506C603DE0012A54
:1038F00001D0042A2AD11E4C54F820406468A1F15A
:103900000805AE000825B5402C43194D55F8205048
:103910006C60012A0CD1174C256801248C4025EAE3
:10392000040301248C401C43114D55F82050EC60D9
:10393000042A1AD10E4C54F82040E46801258D4029
:10394000AC430B4D55F82050EC600EE0042494403D
:10395000A1F10805AD00AC40054D55F820506D684B
:103960002C43034D55F820506C6070BD0010024090
:10397000C40000200C08014030B57AB10D4C54F859
:103980002040E46801258D4024EA050301248C4091
:103990001C43084D55F82050EC600AE0054C54F8E3
:1039A0002040E46801258D40AC43024D55F820507D
:1039B000EC6030BDC400002010B501220C2110467F
:1039C000FFF708FF01220D211046FFF703FF012238
:1039D0000E211046FFF7FEFE01220F211046FFF7D1
:1039E000F9FE012208210020FFF7F4FE01220D213B
:1039F0000220FFF7EFFE01220E210220FFF7EAFE70
:103A000001220F210220FFF7E5FE10BD10B50022B4
:103A100005210120FFF7DEFE002206210120FFF72D
:103A2000D9FE002205210120FFF7A6FF0022062172
:103A30000120FFF7A1FF10BD10B503210120FFF702
:103A4000B7FE80B91420FFF78EFC03210120FFF799
:103A5000AFFE40B900BF03210120FFF7A9FE0028F7
:103A6000F9D0012010BD0020FCE710B50421012091
:103A7000FFF79EFE80B91420FFF775FC042101209A
:103A8000FFF796FE40B900BF04210120FFF790FE2A
:103A90000028F9D0012010BD0020FCE710B50C482B
:103AA000806940F001000A4988610A48406820F0B6
:103AB000E06040F000700749486001220321104691
:103AC000FFF788FE012204211046FFF783FE10BD98
:103AD00000100240000001402DE9F04106460C466E
:103AE00040F2FF75174635EA14502BD000221346DA
:103AF000304601F0C5FB25D03A463046214602F05B
:103B000037FA06460C4635EA145010D00022134608
:103B1000304601F0B5FB15D10220FCF7CBFCFFF7D6
:103B2000ADF90A46214662F31E01BDE8F08102208C
:103B3000FCF7C0FCFFF79AF90A46214662F31E0122
:103B4000BDE8F08130462146BDE8F08110B5002285
:103B500006210120FFF710FF10BD10B5012206213C
:103B60001046FFF709FF10BD1CB50026B046002027
:103B7000019000BF00BF8146FEF7DDFE00F03EFA77
:103B8000FFF773FCFFF718FFFFF740FFFFF786FF13
:103B900000224FF4E131104601F084F8CE48CF4BBB
:103BA0001A4601210090CE4800F07EFBCA48CB4B5C
:103BB0001A4601210090CB4800F076FB00220A2132
:103BC000012000F079FDC8A1002001F0D9F8CCA2B5
:103BD00001210846FEF77EFFCCA201210220FEF75C
:103BE00079FF2CE0FFF728FF70B14FF00108CAA25F
:103BF00001210846FEF76EFFFFF7AEFBC820FFF776
:103C0000B2FBFFF7A2FB1AE0FFF72FFFB8B14FF0AE
:103C10000208C4A201210846FEF75CFFFFF79CFBE7
:103C2000C820FFF7A0FBFFF790FB6420FFF79BFB8A
:103C3000FFF792FBC820FFF796FBFFF786FBB8F172
:103C4000000FCFD04FF4FA70FFF78DFBB848006833
:103C50000190B848D0F80090CAE0464508DB002142
:103C6000084600F0EDF9B4A1002001F089F8C0E0A9
:103C7000AF4801680198081A41F218510F1AAD486F
:103C80000068A0EB090ABAF1780F0BD20AEB8A00A0
:103C900040017821B0FBF1F000F1C80B584600F06C
:103CA00089FD17E0A8F10100B04211D1B7F5487FB6
:103CB0000EDA002F0CDD07EB870080014FF448710E
:103CC00090FBF1F000F1280B584600F073FD01E085
:103CD00000F02AFD002F17DC701CC6B29448006863
:103CE000019001209749087000209749088097A10A
:103CF00001F046F806F13000C1B2002001F030F8C2
:103D00008FA1002001F03CF800F09AFD00F0F8FED1
:103D100000F07EFC8648006840F2E451484346F2D9
:103D20009051B0FBF1F483480068A0EB090000EB70
:103D30008000450087A201210846FEF7CBFE012343
:103D4000324605211846FEF7A3FE84A20721012072
:103D5000FEF7C0FE83A201210220FEF7BBFE642015
:103D6000B4FBF0FB03235A4619460220FEF790FEEF
:103D70002E2206210220FEF751FE6420B4FBF0F152
:103D800000FB114B02235A4607211846FEF780FE1E
:103D900075A209210220FEF79DFE75A201210320D4
:103DA000FEF798FE4FF47A70B5FBF0FB03235A46FA
:103DB00019461846FEF76CFE2E2206210320FEF758
:103DC0002DFE6420B5FBF0F00A21B0FBF1F201FBFF
:103DD000120B01235A4607210320FEF759FE65A264
:103DE00008210320FEF776FE0A20FFF7BCFA00BF89
:103DF00033E700BF4FF4FA70FFF7B5FA4C4800689C
:103E000040F2E451484346F29051B0FBF1F4494886
:103E10000068A0EB090000EB8000450057A20121DB
:103E20000846FEF757FE4FA201210220FEF752FE80
:103E30006420B4FBF0F703233A4619460220FEF74C
:103E400027FE2E2206210220FEF7E8FD6420B4FBA7
:103E5000F0F100FB114702233A4607211846FEF70E
:103E600017FE41A209210220FEF734FE40A20121E3
:103E70000320FEF72FFE4FF47A70B5FBF0F7032313
:103E80003A4619461846FEF703FE2E220621032065
:103E9000FEF7C4FD6420B5FBF0F00A21B0FBF1F29F
:103EA00001FB120701233A4607210320FEF7F0FD2C
:103EB00030A208210320FEF70DFE0BE0FFF74DFEB8
:103EC0004FF4FA70FFF74FFAFFF740FE4FF4FA7025
:103ED000FFF749FAF2E700000000E040000060410F
:103EE000280100205C0100204C696E65205472613D
:103EF000636B696E67204D6F64650D0A00000000FA
:103F00004B313A3120204B323A320000576169740C
:103F1000696E672E2E2E000031204C61702020200B
:103F20002020000032204C617073202020200000EF
:103F3000180000201C00002046696E6973686564E3
:103F40000D0A000000000020020000204C61703AC1
:103F5000200000004C61703A00000000202020206A
:103F600000000000443A00006D20202020200000C6
:103F7000543A0000732020202020000046696E691A
:103F800073686564212020200000000010B50446FD
:103F9000A2B20021084600F0B1FA0948007808B939
:103FA000012000E00020024606210020FFF7E4FC8B
:103FB0000348027807210020FFF7DEFC10BD000057
:103FC0000800002010B50446A2B20121002000F034
:103FD00095FA0948007808B9012000E0002002465F
:103FE00000210120FFF7C8FC0348027801210846A0
:103FF000FFF7C2FC10BD00000900002010B54FF40F
:104000007A720021084600F06BF900220621104662
:10401000FFF7E0FB002207211046FFF7DBFB4FF420
:104020007A720121002000F05BF900221146012084
:10403000FFF7D0FB002201210846FFF7CBFB10BDA4
:1040400070B505460C46002D0FDB01202049087095
:10405000B5F5167F03DD1F481F49086015E02846A7
:1040600001F072FD1C4908600FE00020184908703B
:104070006842B0F5167F03DD16481749086004E072
:10408000684201F061FD14490860002C0FDB01203B
:1040900012490870B4F5167F03DD0E481049086018
:1040A00015E0204601F050FD0D4908600FE00020AA
:1040B0000A4908706042B0F5167F03DD05480849DB
:1040C000086004E0604201F03FFD0549086070BDF2
:1040D00008000020000016442801002009000020EC
:1040E0005C0100202DE9F0410446D4E9000101F013
:1040F00093FEA060206B01282DD1D4E9020101F0CC
:104100008BFE0546616901F07FFD2062A168A06910
:1041100001F07AFDA0624FF08040E16801F074FD8B
:104120000746A16801F06DFE0646216901F0A0FB7B
:104130000546E16901F068FD6062A16A206A01F04C
:1041400097FB0646616A01F093FB0546E16A01F0C0
:104150008FFBE06221E0206BF8B9A168606901F093
:1041600053FD2062A168A06901F04EFD0546A16AD9
:1041700001F07EFBA062D4E9020101F04DFE05468C
:10418000E16901F041FD6062A16A206A01F070FB03
:104190000546616A01F06CFBE062E1682161A1689B
:1041A000E160BDE8F081000010B536480068401CB1
:1041B000344908603448007838B1344800684042D7
:1041C00001F0C2FC3249486005E03048006801F067
:1041D000BBFC2F4948602F48007838B12E48006852
:1041E000404201F0B1FC2D49486005E02A480068D2
:1041F00001F0AAFC29494860244B1A68002A01DB17
:10420000134600E05342244C2068002801DB04469A
:1042100000E04442191901EBD173214C246804EBEE
:1042200063031F4C23601A4948681E4901F0ECFCE7
:1042300017494860194948681A4901F0E5FC1749CF
:104240004860002011490860134908601048FFF7D2
:1042500049FF1248FFF746FF0D4800F02DF80F48C0
:1042600000F02AF80A49C86A01F032FC0446FFF758
:104270008DFE0A49C86A01F02BFC0446FFF7A2FE36
:1042800010BD00001C000020080000200C000020D1
:104290002801002009000020100000205C010020FF
:1042A000180000200000184210B5029C0163426112
:1042B0008361C46110BD000010B504460749E06A7F
:1042C00001F06EFD01D80548E0620021E06A01F0CE
:1042D00067FC01D80020E06210BD000000401C47D0
:1042E0002DE9F04104460D4616462846E91705EB30
:1042F00091718910A5EB8101491CCFB25148C06969
:104300000121A14008434F49C8614F4890FBF6F096
:10431000401E4E4951F82410888547204B4951F8DA
:1043200024100885284600F093F8012F06D0022FAC
:104330001ED0032F36D0042F69D14DE0434850F8EA
:104340002400008B40F06000404951F8241008839D
:104350003E4850F82400008B40F008003B4951F8DB
:10436000241008830020394951F8241088864EE033
:10437000364850F82400008B40F4C040334951F8CF
:1043800024100883314850F82400008B40F400606A
:104390002E4951F82410088300202C4951F824108C
:1043A000088734E0294850F82400808B40F06000F2
:1043B000264951F824108883244850F82400808B23
:1043C00040F00800214951F82410888300201F493B
:1043D00051F8241088871AE01C4850F82400808B7C
:1043E00040F4C040194951F824108883174850F808
:1043F0002400808B40F40060144951F82410888315
:104400000020124951F82410A1F8400000BF00BF5D
:104410000E4850F82400008C791E8A00012191403A
:1044200008430A4951F824100884084850F8240029
:10443000008840F08100054951F824100880BDE84B
:10444000F08100000010024040420F00D000002028
:1044500010B504460C2C4FD2DFE804F0060C1218FD
:104460001E242A30363C4248032200210846FFF72A
:10447000B1F941E0032201210020FFF7ABF93BE055
:10448000032202210020FFF7A5F935E0032211469F
:104490000020FFF79FF92FE0032206210020FFF7FD
:1044A00099F929E0032207210020FFF793F923E07F
:1044B000032200210120FFF78DF91DE003220121D5
:1044C0000846FFF787F917E0032206210120FFF7CE
:1044D00081F911E0032207210120FFF77BF90BE0AE
:1044E000032208210120FFF775F905E003220921C5
:1044F0000120FFF76FF900BF00BF10BD2DE9F84F95
:1045000004460D4617462846E91705EB91718910B8
:10451000A5EB8101491C01F0FF084CF250308742A5
:1045200000DB0746384850F82400868DB8F1010FAB
:1045300009D0B8F1020F1DD0B8F1030F31D0B8F196
:10454000040F5DD144E0701C01F0FEFA834638464A
:1045500001F012FB2D49009001F0F8F9824659460E
:1045600001F052FB814601F0CFFA274951F824109F
:10457000888645E0701C01F0E7FA0090384601F0AB
:10458000FBFA8346214901F0E1F98246009901F0E6
:104590003BFB814601F0B8FA1B4951F8241008870B
:1045A0002EE0701C01F0D0FA0090384601F0E4FAD9
:1045B0008346164901F0CAF98246009901F024FBAE
:1045C000814601F0A1FA104951F82410888717E0BC
:1045D000701C01F0B9FA0090384601F0CDFA83461C
:1045E0000A4901F0B3F98246009901F00DFB8146BA
:1045F00001F08AFA044951F82410A1F8400000BFE4
:1046000000BFBDE8F88F0000D000002000504347F5
:1046100010B52748007800B910BD26480088401C16
:104620002449088022480078012806D0022813D0A7
:10463000032820D0042837D12CE0FEF78DFEFFF7A9
:104640008CFA1C480088142805DB022018490870E1
:1046500000201849088027E0FEF777FEFFF776FA7A
:10466000144800880A2805DB03201149087000203F
:104670001049088018E0FEF76FFEFFF76EFA0D484C
:104680000088142805DB0420094908700020094926
:10469000088009E0FEF759FEFFF758FA00200449A8
:1046A00008700449088000BF00BF00BFB4E70000E5
:1046B000000000200200002070B504460D4616469A
:1046C0001748C0690121A14008431549C86105EB9D
:1046D00085004000401E134951F82410888541F69A
:1046E0001F40104951F8241008850E4850F8240046
:1046F000008840F001000B4951F824100880094857
:1047000050F82400808940F00100064951F8241037
:10471000888104F11C00C1B23046FEF76FF870BD0D
:1047200000100240D00000202DE9F041FFF718F8FA
:1047300004461D480068A4EB00081C48006820449B
:104740001A4908600846006842F21071884202DD8A
:10475000084616490860154800681549884202DA7B
:104760000846124908605A206043642190FBF1F02A
:104770000E49096801EB41014900642291FBF2F105
:104780000844C8EB4811490091FBF2F1451805F5C2
:10479000B476C5F5B4770448046039463046FFF76F
:1047A0004FFCBDE8F081000024000020280000201C
:1047B000F0D8FFFF2DE9F0470546FEF7D1FF04468C
:1047C0001C480068A4EB00091B48006820441A49F3
:1047D00008600846006842F21071884202DD08460F
:1047E00015490860144800681449884202DA0846EE
:1047F000114908605A206043642190FBF1F00E4992
:10480000096801EB41014900642291FBF2F108447F
:10481000C9EB4911490091FBF2F14618AF19A5EB1C
:1048200006080448046041463846FFF709FCBDE825
:10483000F08700002400002028000020F0D8FFFFAF
:104840002DE9F04F8DB07448007810B90DB0BDE877
:10485000F08FDFF8C8A100206F490870042270A112
:104860005046FBF7D3FD60B104226FA15046FBF721
:10487000CDFD30B103226EA15046FBF7C7FD0028E5
:1048800079D16C4844698569C6696BA15046FBF7CC
:10489000ABFD074669A15046FBF7A6FD804668A11F
:1048A0005046FBF7A1FD814637B1B81CFEF738FD35
:1048B000834601F049F90446B8F1000F07D008F12A
:1048C0000200FEF72DFD834601F03EF90546B9F1E1
:1048D000000F07D009F10200FEF722FD834601F028
:1048E00033F906460021204601F05AFA3FD25549D5
:1048F000204601F055F93AD80021284601F050FA37
:1049000035D85149284601F04BF930D800213046BE
:1049100001F046FA2BD84C49304601F041F926D82F
:10492000444844618561C661484844618561C66107
:10493000304600F071FFCDE90A01284600F06CFF17
:10494000CDE90801204600F067FFCDE90601DDE969
:104950000A01CDE90201DDE90801CDE9000100E02D
:1049600009E03BA0DDE90623FBF746FC02E042A09C
:10497000FBF742FC4DE0052247A15046FBF746FD00
:1049800098B94748474B1A46012100902948FFF73C
:104990008BFC4348434B1A46012100902B48FFF7FC
:1049A00083FC41A0FBF728FC33E0062243A15046DC
:1049B000FBF72CFD00282CD11E49486800F02CFF85
:1049C00004460D461B49086800F026FF06460F46C0
:1049D0001849C86900F020FF804689461549886952
:1049E00000F01AFFCDE90A011249486900F014FFEE
:1049F000CDE90289CDE90467CDE90645CDE9080195
:104A0000DDE90A01CDE900012EA0DDE90823FBF76D
:104A1000F3FB00BF1AE70000BC000020C401002027
:104A2000534554200000000050494420000000007D
:104A30005049440028010020503A0000493A000043
:104A4000443A00000000C842000048425C010020D7
:104A5000232050494420557064617465643A2050A5
:104A60003D252E336620493D252E336620443D25C5
:104A70002E33660D0A00000023204552524F523A51
:104A80002050494420706172616D732072656A65BF
:104A9000637465640D0A00005245534554000000DC
:104AA0000000E04000006041232053797374656D7D
:104AB0002052657365740D0A000000005354415480
:104AC0005553000023205354415455533A204B7002
:104AD0003D252E3366204B693D252E3366204B64E1
:104AE0003D252E3366205461726765743D252E3254
:104AF00066204E6F773D252E32660D0A00000000BD
:104B00002DE9F04F99B03148006831490968401AE1
:104B1000052802D219B0BDE8F08F2C4800682C4956
:104B200008602C4805684468C66A2146284601F09A
:104B300073F918902748D0F81490D0F818A0D0F83E
:104B40001CB0584600F068FE07468846504600F004
:104B500063FECDE91601484600F05EFECDE9140182
:104B6000189800F059FECDE91201304600F054FECD
:104B7000CDE91001204600F04FFECDE90E01284698
:104B800000F04AFECDE90A78CDE90C01DDE9160115
:104B9000CDE90801DDE91401CDE90601DDE91201E5
:104BA000CDE90401DDE91001CDE90201DDE90E01E5
:104BB000CDE900010548006800EB8000410006A037
:104BC000DDE90C23FBF718FB00BFA3E71C00002066
:104BD000C000002028010020256C752C252E32668F
:104BE0002C252E32662C252E32662C252E32662C54
:104BF000252E33662C252E33662C252E33660D0A82
:104C0000000000002DE9F04F89B081468A46B9F1D5
:104C1000000F01D11F4C00E01F4C4FEA0A1094FB1B
:104C2000F0FB584600F07FFBCDE90401504600F050
:104C300063FB07460022194B00F0C4FB05460E46F5
:104C4000204600F081FF074600F0E6FD2A46334685
:104C5000CDE9000100F0BCF9CDE90201DDE9042352
:104C600000F0F0FCCDE9060100F0C4F808904FF028
:104C70008341089800F0C8FF0890089800F044FFAE
:104C800000EB0B10064951F82910088109B0BDE866
:104C9000F08F000000A24A040051250200003040BD
:104CA000DC00002070B504460E46154634B91448A1
:104CB000806940F480401249886108E01048C0696A
:104CC00004F1100101228A4010430D49C8612046B9
:104CD00000F01AF831462046FFF794FF094850F8D3
:104CE0002400808942F22C010843064951F824101F
:104CF000888104F12500C1B22846FDF77FFD70BD13
:104D000000100240DC00002010B5044624B1012C44
:104D10000DD0022C21D115E0032209210020FEF73D
:104D200059FD04220A210020FEF754FD15E003225C
:104D300002210020FEF74EFD042203210020FEF791
:104D400049FD0AE003220A210120FEF743FD042267
:104D50000B210120FEF73EFD00BF00BF10BD00008B
:104D600000BF064A52F82020128802F04002002AB2
:104D7000F7D0024A52F8202091807047DC000020D2
:104D800010B504460B4604E013F8011B2046FFF75C
:104D9000E7FF18780028F7D110BD000010B50029F2
:104DA0000AD00878002807D005487844FCF750FA64
:104DB000002801D0002010BD0248784410BD00003A
:104DC000D2190000CA19000010B500290AD00878CD
:104DD000002807D005487844FCF73AFA002801D0AB
:104DE000002010BD0248784410BD0000C219000028
:104DF000BA19000021F00042A2F16052B2F5801F02
:104E000001F0004328BFD2F17F6C0BD95FEA001C90
:104E100043EAC20242EB507018BF704728BF20F02F
:104E200001007047B2F5801FBCBF184670474FEABB
:104E3000410C1CF5001F02D2084600F0ACBF70B553
:104E400000F06AFB00000089FFF7F6BF4FF000405A
:104E5000A0F580007047000010B591EA030F48BF2D
:104E600083F0004300F1F683841A71EB030C05D242
:104E7000121943EB0C03001B61EB0C01DFF824E17A
:104E80004FEA1154A4EB135C1EEA430F18BF9EEACD
:104E9000445F73D023EA0E03DCF1200E21EA0451B3
:104EA00043F4801332D322FA0CFE10EB0E0023FAE7
:104EB0000CFE41EB0E01CCF1200E03FA0EFE10EBBE
:104EC0000E0051F10001B1F5801FCCF1200E32D25D
:104ED00001EB045112FA0EF2BDE8104058BF7047C2
:104EE000401C38BF5FEA420218BF7047002814BF59
:104EF00020F0010041F100014FEA410313F5001FCA
:104F000038BF7047A1F1C04100F054BB012A43EB08
:104F10000302ACF1200CDCF11F0E32BF4FF0000E8B
:104F200023FA0CF310EB030041EB0451B4EB115FD7
:104F3000D0D0A1EB045101F5801149085FEA30009F
:104F400001EB04510ED350F1000038BF12FA0EFEEF
:104F500008D1BDE81040C9E7401C38BF5FEA4202F3
:104F6000CAD1C3E7BDE810404FEA410313F5001F63
:104F700038BF7047A1F1C04100F01CBB9EEA445FFE
:104F800008D011EA5E0FBDE8104004BF01F00041F7
:104F900000207047BDE8104070B500F0BDFA00BFBA
:104FA00064FBBE3E0000E0FF02494FF0000000F04D
:104FB000ADBF00BF0000F87F491058BFC1F14041AC
:104FC0005B1058BFC3F140438B42EFF30080704742
:104FD0002DE9C04130B4DFF8A0C23CEA111418BF7B
:104FE0003CEA131400F0EC8081EA03051CEA11147A
:104FF00044EAD57418BF1CEA131500F0C780A4EB6F
:1050000005044FF0004545EAC12145EAC32341EAC2
:10501000505143EA525304F17F74994204F500342D
:105020004FEAC0204FEAC22208BF904200F09C80A5
:105030004FEA13650FF24016765D4FEA134506FB03
:1050400005F7C7F1807706FB07F74FEAD737A7FBCD
:1050500003687642C8F58038A7FB06CE38BFA8F1B2
:10506000010807FB08E64FF0000EA6FB028CE6FBEA
:1050700003CEDCF1000CCEF1004E38BFAEF1010ED4
:10508000A6FB0C584FF000074FF00005E6FB0E871B
:10509000A1FB08C6A0FB07CE16EB0E0645F10005E6
:1050A000E1FB076515F1E04E7EBFA4F580345FEAB1
:1050B00046066D4116F1800745F100054FEA1727B6
:1050C0004FEA066647EA0567A6F1DE46B6F1805F5D
:1050D0004FEA15251FD9384624F0010C05EBC471A1
:1050E000BCF1FE6F01EB0C1102D8F0BCBDE80081F1
:1050F00024425CBF01F5801E9EEAC47F02D4F0BC4E
:10510000BDE80081244238D4F0BCA1F1C041BDE823
:10511000004100F04FBA4FEAD22242EA43524FEA2E
:10512000D323A7FB02864FEAD02040EA415007FB79
:1051300003661EEA0E0F4FEAD12105FB026658BF37
:10514000A6EB0056B6EB00564FEA520E4EEAC37E6F
:1051500018EB0E0E56EB530EBDD518EB02085E4150
:105160007F1C55F10005B6E74FF480154FF000079E
:105170004FF000064FF00008ADE7F0BC4FF0000024
:1051800001F1C04101F00041BDE8008111EA0C1FAE
:105190000CEA131500D00CE013EA0C1F00F0258078
:1051A0004FF00000F0BC81EA030101F00041BDE8CE
:1051B0000081F0BCBDE8004181EA030100F0FAB9CA
:1051C000F0BCBDE8004170B500F0A6F9097EFC3ED8
:1051D00000F007B881EA03014FF0000001F0004140
:1051E000704781EA030100F0E5B9F0BCBDE8004179
:1051F0004FF0000021497047FFFDFBF9F7F5F4F28D
:10520000F0EEEDEBE9E8E6E4E3E1E0DEDDDBDAD861
:10521000D7D5D4D3D1D0CFCDCCCBCAC8C7C6C5C4BF
:10522000C2C1C0BFBEBDBCBBBAB9B8B7B6B5B4B3D6
:10523000B2B1B0AFAEADACABAAA9A8A8A7A6A5A4C1
:10524000A3A3A2A1A09F9F9E9D9C9C9B9A99999885
:105250009797969595949393929191908F8F8E8E28
:105260008D8C8C8B8B8A89898888878786858584B5
:1052700084838382828181800000FF070000F87FA1
:1052800051EA030C17D41CF5801F58BFBCF5801FD2
:1052900000F10680994218BF704708BF90427047DE
:1052A00007D711F5801F58BF13F5801F19D49942F5
:1052B0007047894270471CF5801F08D5BCF5801FD8
:1052C000F7D58B4218BF704708BF824270474FF432
:1052D000001C1CEB410F38BF1CEB430F01D28B426B
:1052E000704770B500F018F9922449004FF0005152
:1052F0004FF08053FFF760BE10F0004248BF4042BD
:10530000B0FA80F310FA03F10AD0C3F11D0303F5DC
:1053100080634FEA415002EB035202EBD121704708
:105320004FF000007047B0FA80F310FA03F10AD092
:10533000C3F11D0303F580634FEA41504FEA035266
:1053400002EBD12170474FF00000704751EA030C87
:1053500017D41CF5801F58BFBCF5801F00F10680D4
:10536000994218BF704708BF9042704707D711F5A0
:10537000801F58BF13F5801F19D499427047894286
:1053800070471CF5801F08D5BCF5801FF7D58B42F0
:1053900018BF704708BF824270474FF4001C1CEBD7
:1053A000410F38BF1CEB430F01D28B42704770B5E1
:1053B00000F0B2F8922449004FF000514FF08053B2
:1053C000FFF7FABDDFF848C170B51CEA111E1EBF19
:1053D0001CEA13159EEA0C0F95EA0C0F00F06F8083
:1053E00081EA030423EA4C134EEAD47E21EA4C11ED
:1053F00041F4801143F48013AE44A1FB024CA0FBA6
:105400000365AEF17F7E361955EB0C05A1FB034C0D
:105410004CF10003A0FB021C16EB0C06654153F196
:105420000003094218BF46F0010613F4007F0BD1B8
:105430004FEA03314FEA0530340341EA155140EA9F
:1054400016506FF003020AE04FEAC3214FEAC5206D
:10545000F40241EA555140EA56506FF0020202EB65
:105460002E4201EB025585EACE710AD05FEA440C68
:1054700018BF24F0004450F1000041F1000120EA7F
:10548000D47040F2FE7C624500D270BDA84214BFC9
:105490004FF080444FF04044002E08BF0024BEF17E
:1054A000806FA8BFA1F1C041BDE8704080F282804A
:1054B0004FF0000001F1C04101F0004170479EEA49
:1054C0000C0F0CEA131518BF95EA0C0F06D04FF01D
:1054D000000081EA030E0EF0004170BD00F01CF8E0
:1054E0008900013E00F007B800F009B84FEA430C0C
:1054F0005FEA5C5C08D081EA030100F05BB84FEA28
:10550000410C5FEA5C5CF6D14FF000000149704746
:105510000000FF070000F87F0EF1020E2EF0030ED0
:105520005EF8046B364205D4012A43EB030515F5FA
:10553000001F12D8012841EB010C1CF5001F0CD8EC
:105540000ED14FEAD17C15F5001F0CEB4C0C0CF181
:10555000020C08BF4CEBD37C04E04FF0080C01E0D8
:105560004FEAD37C0CEB4C0526FA05F606F007064D
:10557000B6F1040C06D20EEB860CBDE870404CF080
:10558000010C6047DFE80CF0090B02024FF000410C
:105590004FF00000A1F5002170BD1946104601280A
:1055A00051EB010418BFD4F5001484BF002001F0B2
:1055B000004170BD0808A0F500114FEA31017047A5
:1055C00053EA010C17D41CF5801F58BFBCF5801F8F
:1055D00000F106808B4218BF704708BF82427047B7
:1055E00007D713F5801F58BF11F5801F19D48B42C0
:1055F00070479B4270471CF5801F08D5BCF5801F83
:10560000F7D5994218BF704708BF904270474FF4D2
:10561000001C1CEB430F38BF1CEB410F01D2994219
:1056200070470FB40CBC03BCFFF7C1BE91EA030F77
:1056300010B581F000413FF517AC83F0004300F056
:1056400009B8000010B591EA030F48BF83F000438A
:105650003FF50AAC841A71EB030C07D212198CF0D7
:10566000004C43EB0C03001B61EB0C01DFF8A4E1E1
:105670004FEA1154A4EB135C1EEA430F18BF9EEAD5
:10568000445F00F0B08023EA6E03524221EA0451E5
:10569000C3EB6E0338BF5B1EDCF1200E25D322FA6C
:1056A0000CFE10EB0E0043FA0CFE41EB0E01CCF1A8
:1056B000200E03FA0EFE10EB0E0051F10001CCF1AA
:1056C000200E29D412FA0EF201EB0451BDE810406D
:1056D00058BF7047401C1CBFB2F1004F70470028F4
:1056E0000CBF491C20F00100704712EB020E43EB87
:1056F000030218BF4FF0010E4EEA4202ACF1200C3B
:10570000DCF11E0E54D943FA0CFE10EB0E0051F1E1
:10571000FF31CCF11E0ED5D50EF1010E12FA0EFEA0
:10572000404141EB010101EB445C5FEA5C5C10D954
:1057300010EBDE7001EB045138BFBEF1004FBDE845
:10574000104018BF704700280CBF491C20F0010012
:10575000704730D24FEAD42C11F5001124F40064C4
:105760001BD0B1FA81F20B3AA41AA41ED2F1200385
:10577000914030FA03F31943904001EBCC71002CB7
:1057800001EB0451BDE81040A8BF704701F1C041D2
:105790004FF0000001F000417047B0FA80F310FABA
:1057A00003F100D110BDE41A173C4805C90AE4E72B
:1057B00001EB045110BD491001EB0451BDE810404C
:1057C0004FEA300002E04FF0000170474A0008BF86
:1057D0000042F8D0B2F5001F28BF704701F0004129
:1057E0004FF0000070479EEA445F07D011EA5E0F59
:1057F000BDE8104004BF002100207047BDE8104004
:1058000070B5FFF789FE00BF40DFF63E83F0004130
:10581000104670470000E0FF43004FEAD30C4FEA08
:105820003C0C43401FBF40070CF1605113F0FE4F8A
:1058300070471CF0006F03D100200CF0004170474E
:105840000CF0004343EA507010B540EACC0000F081
:105850005CFA00BF000000924FEA0001FFF7AABE09
:105860004FF000414FF00000A1F50021704700000B
:1058700090EA010F48BF81F0004100F1D482421A42
:105880003CBF801A89184FEAD0524FF07F4C1CEA77
:10589000410FA2EBD15318BF9CEA026F00F03B808E
:1058A0004FF0004C4CEA00204CEA012121FA03FCA5
:1058B00010EB0C0C1ED202F1FF325FEA1C2040EB11
:1058C000C25038BF70471CF07F0F4FEA400C18BF22
:1058D000BCF17F4F38BF7047C3F12003994008BF28
:1058E00020F00100BCF17F4F38BF7047A0F1C040ED
:1058F00000F051BA4FEA3C00000A40EBC25028BF0A
:105900001CF0FF0F4FEA400CE6D018BFBCF17F4FF0
:1059100038BF7047EAE79CEA026F05D010EA5C0FD7
:1059200008BF00F00040704710B500F0EEF900BF6E
:1059300064FBBE3E401058BFC0F14040491058BF04
:10594000C1F140418142EFF3008070474FF47F0C7A
:105950001CEAD0121EBF1CEAD11392EA0C0F93EA84
:105960000C0F00F0858090EA010F48BF42F480726E
:1059700040F4000C41F400002CF07F4120F07F4007
:1059800000B58142A2EB03020FF2081CACEB504EB3
:10599000C0F100009EF800E04FEA4E0E00FB0EFC46
:1059A00038BF49004FEA2C1C02F5FA020CFB0EF33B
:1059B0004FEACE1E4FEA112C4FEAC1210EEB635E77
:1059C00042EB22420EFB0CFC4FEA1C5300FB03117E
:1059D0004FEA112C4FEA01310EFB0CFC4FEADC4C74
:1059E00000FB0C11C14228BF09184CEB03335DF8D2
:1059F00004EB10EB410143EBC250B2F57C0F38BF12
:105A0000704729D512F0F00F1CBF00F1C04000F024
:105A100000407047008182838485868788898B8CCB
:105A20008D8E8F919293959697999A9C9D9FA0A207
:105A3000A3A5A7A8AAACAEB0B2B3B5B7B9BCBEC057
:105A4000C2C5C7C9CCCED1D4D7D9DCDFE2E6E9ECF8
:105A5000F0F3F7FAFE0000004FEA400C0CF1807CF6
:105A6000BCF17E4F28BF7047B0F1C04000F093B941
:105A700090EA010F0CEAD11348BF42F480726245EC
:105A800038BF634507D213F47F0F16D080EA0100B8
:105A900000F00040704710B500F037F9097EFC3E79
:105AA00000F005B880EA010000F00040704780EA8D
:105AB000010000F0004000F06EB912F47F0F04BF47
:105AC0000248704780EA010000F065B90000C07F1D
:105AD00041000B0ED3F19E0208D950F400034FEAA7
