:020000040800F2
:10000000D007002089010008910100089301000831
:100010009501000897010008990100080000000000
:100020000000000000000000000000009B0100082C
:100030009D010008000000009F010008A1010008C8
:10004000A3010008A3010008A3010008A301000800
:10005000A3010008A3010008550200086D02000872
:1000600085020008C1020008D9020008A3010008A7
:10007000A3010008A3010008A3010008A3010008D0
:10008000A3010008A3010008A3010008A3010008C0
:10009000A3010008A3010008A3010008150300083C
:1000A000A3010008A3010008A3010008A3010008A0
:1000B000150C0008350C0008590C0008A3010008B5
:1000C000A3010008A3010008A3010008A301000880
:1000D000A3010008750C0008210D00083D0D000863
:1000E000A3010008A3010008A301000800F002F822
:1000F00000F03AF80AA090E8000C82448344AAF188
:100100000107DA4501D100F02FF8AFF2090EBAE885
:100110000F0013F0010F18BFFB1A43F0010318473B
:10012000702F0000902F0000103A24BF78C878C1CB
:10013000FAD8520724BF30C830C144BF04680C60ED
:10014000704700000023002400250026103A28BF35
:1001500078C1FBD8520728BF30C148BF0B60704739
:100160001FB51FBD10B510BD00F046F81146FFF7D2
:10017000F7FF01F097FA00F064F803B4FFF7F2FF1D
:1001800003BC00F05FFE00000948804709480047B3
:10019000FEE7FEE7FEE7FEE7FEE7FEE7FEE7FEE737
:1001A000FEE7FEE704480549054A064B7047000094
:1001B000B50B0008ED000008D0010020D00700209A
:1001C000D0030020D003002070477047704770476D
:1001D000704710B500F008F8006810BD10B504466F
:1001E00000F002F8046010BD004870477001002064
:1001F00000487047700100207546FFF7F9FFAE46D2
:1002000005006946534620F00700854618B020B522
:10021000FFF7C8FFBDE820404FF000064FF0000791
:100220004FF000084FF0000B21F00701AC46ACE89E
:10023000C009ACE8C009ACE8C009ACE8C0098D460B
:10024000704710B50446AFF300802046BDE810406B
:10025000FFF793BF0448006800F0010010B10120CF
:100260000149086070470000140401400448006818
:1002700000F0020010B10220014908607047000040
:100280001404014010B50C48006800F0040090B15F
:100290000321002001F002F928B108480068401E3F
:1002A0000649086004E005480068401C03490860EE
:1002B00004200149086010BD14040140040000201E
:1002C0000448006800F0080010B1082001490860E7
:1002D000704700001404014010B50C48006800F09D
:1002E000100090B10521002001F0D8F828B108488D
:1002F0000068401C0649086004E005480068401E8C
:100300000349086010200149086010BD1404014031
:10031000080000202DE9FF5FB548006800F02000CC
:1003200010B12020B2490860B148006800F04000D8
:1003300010B14020AE490860AD48006800F0800070
:1003400000287CD000F00CFB00F088F9A948B0F937
:10035000000002F0F7FB019002F05CFA4FF0663209
:10036000A54BCDE9020101F0A3FE8046A34AA44BB0
:1003700002F05CF806460F46A248006802F04AFA0E
:10038000824632463B4601F0D7FD044601F0A2FD0D
:100390009C4908609C48B0F9000002F0D3FB019032
:1003A00002F038FA80464FF06632934B01F080FE3F
:1003B0000646924A924B02F039F882468B469348A1
:1003C000006802F027FA52465B46CDE9020101F0CF
:1003D000B3FD044601F07EFD8C4908608C48B0F9FD
:1003E000000002F0AFFB019002F014FA82464FF0D9
:1003F0006632814B01F05CFE8046804A804B02F001
:1004000015F8CDE902018348006802F003FA0646B8
:10041000DDE9022301F090FD044601F05BFD7D491A
:1004200008607D48B0F9000002F08CFB83467B48F1
:10043000B0F9000002F086FB5946039000E0C3E0EB
:1004400002F082FA824602F0E5F9804600F0FCFCF8
:100450000646734A734B01F0E9FF044601F03AFD8A
:10046000714908606C48B0F9000002F06BFB8346EC
:100470006E48B0F9000002F065FB5946039002F0A7
:1004800063FA824602F0C6F9804600F0DDFC81F096
:1004900000410646624A634B01F0C8FF044601F082
:1004A00019FD634908606148B0F9000002F04AFB99
:1004B00083465A48B0F9000002F044FB59460390C5
:1004C00002F042FA824602F0A5F9064600F0BCFCB2
:1004D0000446534A534B01F0A9FF804601F0FAFC51
:1004E000544908605448B0F9000002F02BFB039017
:1004F00002F090F9804689465048B0F9000002F0B9
:1005000021FB039002F086F9064642464B4600F076
:10051000ABFD0446424A434B01F088FF824601F09E
:10052000D9FC474908603348B0F9000002F00AFBE3
:10053000814602F06FF907464FF066322E4B01F00C
:10054000B7FD054601F0C6FC044622463648016860
:100550003C4800F064F93C4908602B48B0F90000C1
:1005600002F0F0FA814602F055F907464FF0663284
:10057000214B01F09DFD054601F0ACFC04462246EE
:100580002B480168314800F04AF931490860204899
:10059000B0F9000002F0D6FA814602F03BF90746B6
:1005A0004FF06632144B01F083FD054601F092FCDA
:1005B0000446224622480168264800F030F92649C0
:1005C000086080200A4908600948006800F48070CB
:1005D00018B14FF48070064908600548006800F4BF
:1005E000007018B14FF4007001490860BDE8FF9F2A
:1005F00014040140D2000020666630407B14AE47F0
:10060000E17A743FD8000020D4000020DC000020F4
:10061000D6000020E0000020D0000020CE00002006
:10062000D9CEF753E3A54C40E4000020CC000020D5
:10063000E8000020EC000020FE000020FC0000206C
:100640000401002044000020F0000020740000207D
:10065000F400002014000020F800002070B50320F2
:1006600000F02CF80446042000F028F8054645EA7E
:10067000042000B20E490880072000F01FF804464D
:10068000082000F01BF8054645EA042000B209499D
:100690000880052000F012F80446062000F00EF84D
:1006A000054645EA042000B20349088070BD0000F9
:1006B000FC000020FE0000200001002070B5044670
:1006C00000F06EF83C2000F04AF800F090F8204668
:1006D00000F045F800F08BF800F078F800F060F8D2
:1006E0003D2000F03CF800F082F800F018F80546D4
:1006F00000F004F800F06AF8284670BD10B5012239
:100700000B21104600F0AEFF01220A21104600F036
:10071000A9FF00220A21012000F0A4FF10BD70B53E
:10072000002501220B21104600F09CFF002412E05E
:1007300001220A21104600F095FF0B21012000F054
:10074000ADFE10B180202041054300220A21012086
:1007500000F088FF641C082CEADB284670BD70B5E9
:100760000546002419E080202041284028B10122BC
:100770000B21104600F076FF04E000220B2101203F
:1007800000F070FF01220A21104600F06BFF0022EA
:100790000A21012000F066FF641C082CE3DB70BD19
:1007A00010B501220B21104600F05CFF01220A2146
:1007B000104600F057FF00220B21012000F052FFED
:1007C00000220A21012000F04DFF10BD10B50022CB
:1007D0000B21012000F046FF01220A21104600F003
:1007E00041FF01220B21104600F03CFF10BD10B567
:1007F000002401220B21104600F034FF01220A21BF
:10080000104600F02FFF0B21012000F047FE0446A8
:1008100000220A21012000F025FF204610BD2DE90D
:10082000F05F04460D4616463046E16A02F0F2FAE1
:100830008046E16902F0E6F90746A16A02F016F87F
:10084000A062E06AE062D4E9060102F0DBF98246C8
:10085000E16902F0D7F98046D4E9040102F006F814
:100860008346E16902F0CEF98246E16802F0C7FAF8
:100870008146414601F0FAFF0746216801F0F6FF84
:10088000E060D4E9060102F0BDF90746216902F0F3
:10089000B6FA2061D4E9060102F0B4F907466169AD
:1008A00002F0ADFA60616168A06901F0DFFFA0614C
:1008B000D4E9021001F0DAFF07463946E06802F099
:1008C00043F82062D4E9021001F0D0FF0746394610
:1008D000606902F039F860622846A16A02F09AFA6B
:1008E0008046216A02F08EF90746A16A01F0BEFF38
:1008F000A0622846A16A02F08DFA8046616A02F081
:1009000081F90746E16A01F0B1FFE0624FF07E50E5
:10091000216A02F07FFA0746E16802F073F9E060AD
:100920004FF07E50216A02F075FA0746216902F005
:1009300069F92061616AE06802F064F9074661695B
:1009400002F05DFA6061616A206902F05BF90746B6
:10095000A16902F054FAA061A06ABDE8F09F00000E
:1009600070B53B2000F058F804463C2000F054F8E5
:10097000054645EA042000B2214908803D2000F0E8
:100980004BF804463E2000F047F8054645EA0420AF
:1009900000B21C4908803F2000F03EF80446402089
:1009A00000F03AF8054645EA042000B216490880EE
:1009B000432000F031F80446442000F02DF80546AD
:1009C00045EA042000B211490880452000F024F8CF
:1009D0000446462000F020F8054645EA042000B20F
:1009E0000B490880472000F017F80446482000F023
:1009F00013F8054645EA042000B20649088070BD98
:100A0000CC000020CE000020D0000020D20000202A
:100A1000D4000020D600002070B50446FFF7C0FEC9
:100A2000D020FFF79CFEFFF7E2FE2046FFF797FE7F
:100A3000FFF7DDFEFFF7CAFEFFF7B2FED120FFF79A
:100A40008EFEFFF7D4FEFFF76AFE0546FFF756FE5F
:100A5000FFF7BCFE284670BD014607238B431A02F0
:100A6000054B18684FF6FF0318401043034B18431B
:100A7000014B1860704700000CED00E00000FA0523
:100A800070B505460C460420FFF7E6FF0E48005DF2
:100A900000F0010646EA0510C1B20B480155204698
:100AA000E21704EBD2625211A4EB421301229A40E6
:100AB0002146E31704EBD3635B119B0003F1E023B2
:100AC000C3F8002170BD000000E400E010B500F0A4
:100AD00001F810BD0CB5002001900090334800686B
:100AE00040F480303149086000BF3048006800F4AD
:100AF000003000900198401C0190009818B90198AE
:100B0000B0F5A06FF1D12948006800F4003010B1B1
:100B10000120009001E0002000900098012843D1BE
:100B20002348006840F0100021490860084600682A
:100B300020F0030008600846006840F002000860EA
:100B40001A484068194948600846406848600846A5
:100B5000406840F4806048600846406820F47C109B
:100B600048600846406840F4E8104860084600685D
:100B700040F08070086000BF0C48006800F0007012
:100B80000028F9D00948406820F003000749486070
:100B90000846406840F00200486000BF03484068D3
:100BA00000F00C000828F9D10CBD00000010024034
:100BB0000020024010B51348006840F001001149C0
:100BC000086008464068104908400E4948600846D9
:100BD00000680E4908400B4908600846006820F488
:100BE000802008600846406820F4FE0048604FF40A
:100BF0001F008860FFF76AFF4FF00060044908603B
:100C000010BD0000001002400000FFF8FFFFF6FEDC
:100C100008ED00E04FF08040008A00F0010038B19C
:100C20004FF08040008A20F001004FF080410882A0
:100C30007047000010B50748008800F0010038B187
:100C400000F050FE0348008820F0010001490880B0
:100C500010BD0000100400400548008800F00100AD
:100C600028B10348008820F001000149088070473E
:100C70001008004010B52948008800F02000002826
:100C80004AD02648001D0088C4B2442C22D008DC7B
:100C9000312C2DD0322C2FD0332C31D0412C33D1CC
:100CA00013E0452C21D0532C09D0572C02D0582CBE
:100CB0002AD115E03221084600F056FD24E06FF0FD
:100CC0003101084600F050FD1EE03221484200F09C
:100CD0004BFD19E06FF03101322000F045FD13E0CB
:100CE0000021084600F040FD0EE000F08BFA0BE01A
:100CF000012000F0FBFF07E0022000F0F7FF03E017
:100D0000032000F0F3FF00BF00BF0448008820F07C
:100D100020000249088000BF10BD000000380140DB
:100D20000548008800F0200028B10348008820F022
:100D300020000149088070470044004005480088B1
:100D400000F0200028B10348008820F0200001496D
:100D50000880704700480040490050EAC12018BF91
:100D600004204A0D18BF40F0010040F2FF72B2EBC0
:100D7000515F08BF40F00200012808BF05207047FE
:100D80002DE9F0414F1E00EBC7010446D1E90001F7
:100D900015461E4637F006020DD02A46334601F0AE
:100DA00045FB7F1E04EBC703D3E9002301F0C4F821
:100DB00037F00602F1D1022F25D0042F13D0062FD1
:100DC00018BFBDE8F0812A46334601F02FFBD4E975
:100DD0000A2301F0B1F82A46334601F027FBD4E993
:100DE000082301F0A9F82A46334601F01FFBD4E995
:100DF000062301F0A1F82A46334601F017FBD4E997
:100E0000042301F099F82A46334601F00FFBD4E998
:100E1000022301F091F82A46334601F007FBD4E99A
:100E20000023BDE8F04101F087B8012202F099B833
:100E300001F082B8024A0020110702F092B80000C7
:100E400001FDFFFF00BF70472DE9F84F04460D4636
:100E500021F0004000917349814211DC72498842BF
:100E600001DC06D12CB120462946BDE8F84FFFF73A
:100E7000DCBF6E48002DCCBF6D496E49BDE8F88FD0
:100E80006D49814211DD6D498142D8BF4FF0FF3677
:100E90006DDD20462946FFF75FFF042808BFFFF7F6
:100EA000C9FF20462946BDE8F88F6549654F25F002
:100EB0000045814233DD6449814219DD0026324616
:100EC0004FF080432046294601F036F880468A4696
:100ED00001222046294602F044F800223B4601F058
:100EE000AFFB4246534601F0E3F804460D463EE0B0
:100EF00001260022BA463B462046294601F01CF84E
:100F000080460F46002253462046294601F098FBB2
:100F100042463B4601F0CCF804460D4627E04B49DB
:100F200081421BDDDFF828A102260022534620461D
:100F3000294601F07BFA00223B4600F0FDFF804687
:100F40000F46002253462046294601F079FB4246CF
:100F50003B4601F0ADF804460D4608E00326224664
:100F60002B4600203B4901F0A3F804460D462246DB
:100F70002B461046194601F059FA8B468246024626
:100F80000B4601F053FA07460246334888460B46A3
:100F900006217844FFF7F4FE52465B4601F046FA1C
:100FA00082462E488B463A46434605217844FFF751
:100FB000E7FE3A46434601F039FA02460B46002E58
:100FC000504659460CDA00F0B7FF22462B4601F096
:100FD0002DFA01B022462B46BDE8F04F01F024BBAC
:100FE00000F0AAFF22462B4601F020FA1C4A7A4460
:100FF00002EBC603D3E9002301F022FB22462B4675
:1010000001F01EFB174A7A4402EBC603D3E9002322
:1010100001F00AFB009A002AB8BF81F00041BDE848
:10102000F88F0000000010440000F07F182D445499
:10103000FB21F93FFB21F9BF0000DC3F0000203E0F
:101040000000F33F0000F03F0000E63F0080034057
:101050000000F83F0000F0BFC22000008020000028
:101060001E200000E61F00002DE9F04D9446CCF153
:10107000000423F000464CEA0404594F46EAD474B5
:101080009A46884621F00042BC4206D8454240EAD2
:10109000050442EAD474BC4204D9BDE8F04D62466E
:1010A000FFF7C6BEAAF14055A5F17F6555EA0C04CD
:1010B0000BD0022404EAAA744A4DDFF82CE144EA7A
:1010C000D87452EA000B04D00CE0BDE8F04DFFF7F5
:1010D000BBBE002C14BF012CBDE8F08D022C30D01B
:1010E000032C32D056EA0C0B0AD0BE4220D1BA42B1
:1010F00009D126F0804622F080423346114617E09F
:1011000000291ADB25E0DFF8E4B0FB44002C04BF23
:10111000DBE90001BDE8F08D012C02BFDBE9000135
:1011200081F00041BDE8F08D022C0AD0032C0CD0D8
:10113000BA4212D1B8F1000F0BDA2A482C49BDE8A7
:10114000F08D28462B49BDE8F08D28467146BDE854
:10115000F08D24482849BDE8F08D921B12153C2AD9
:10116000C4BF204F244E10DCBAF1000FBEBF12F1F5
:101170003C0F00273E4608DB624600F099FF21F055
:101180000041FFF761FE07460E4694B1012C08BFEF
:1011900086F000460DD0194A194B022C38463146CC
:1011A00015D001F04DFA2A46BDE8F04D114B01F083
:1011B00047BA002213463846314601F0D1F804BF41
:1011C0000220FFF70BF838463146BDE8F08D01F0FC
:1011D00037FA2A46BDE8F04D064B01F025BA00006B
:1011E0000000F07F182D4454FB2109C07A1F000035
:1011F000FB21F9BFFB210940FB21F93F075C1433B8
:1012000026A6A13C10B5012003490870002108461C
:1012100000F0AAFA10BD00001000002010B5002256
:101220000121062000F010F801220321002000F027
:1012300047F9002201210C2000F006F801220521C7
:10124000002000F03DF910BD2DE9F04704460E46A0
:101250001746032194FBF1F0C11700EB917189103F
:10126000A0EB810189064FEA1168032194FBF1F09C
:10127000C11700EB9171C1F38705204600F06AF8B1
:101280003148806940F001002F4988614FEAB13050
:1012900050F825000F2101FA08F188432B4941F845
:1012A0002500032094FBF0F100FB114088B10320DE
:1012B00094FBF0F100FB1140401E012101FA00F007
:1012C00000FA08F0214951F8251001431F4840F861
:1012D0002510032094FBF0F1012088401C49096887
:1012E00008431B49086066B9032094FBF0F1012014
:1012F00088401749083109680843154908310860D2
:101300000BE0032094FBF0F10120884010490C31E0
:10131000096808430E490C310860032094FBF0F083
:1013200004280ADC032094FBF0F0801D00F0FF0984
:1013300049463846FFF7A4FB03E017213846FFF77C
:101340009FFBBDE8F087000000100240080001404C
:101350000004014010B50446182C12D2DFE804F056
:101360000C12181E242A30363C42484E545A6066ED
:101370006C72787E848A909601220021084600F0E3
:101380009FF889E001220021104600F099F883E0DF
:1013900001220021022000F093F87DE00122114695
:1013A000002000F08DF877E001221146104600F091
:1013B00087F871E001221146022000F081F86BE00D
:1013C00001220221002000F07BF865E001220221C9
:1013D000104600F075F85FE001220221084600F097
:1013E0006FF859E001220321002000F069F853E072
:1013F00001220321104600F063F84DE00122032191
:10140000022000F05DF847E001220421002000F0F6
:1014100057F841E001220421104600F051F83BE06A
:1014200001220421022000F04BF835E001220521C1
:10143000002000F045F82FE001220521104600F0C1
:101440003FF829E001220521022000F039F823E0CD
:1014500001220621002000F033F81DE001220621C0
:10146000104600F02DF817E001220621022000F0BE
:1014700027F811E001220721002000F021F80BE0FD
:1014800001220721104600F01BF805E00122072188
:10149000022000F015F800BF00BF10BD10B50246D5
:1014A000064850F82200806801248C4000EA0403BA
:1014B0000BB1012010BD0020FCE70000A4000020BB
:1014C00070B5654CA469042585402C43624DAC6120
:1014D00008295DDA614C54F8204024688E000F25FD
:1014E000B540AC435D4D55F820502C601AB1032A2D
:1014F00001D0022A0FD10124944044F003048D004E
:10150000AC40564D55F820502D682C43534D55F89E
:1015100020502C609FE0012A01D0042A2AD14F4C90
:1015200054F8204024688E000825B5402C434B4DCC
:1015300055F820502C60012A0ED1484C54F8204018
:10154000E46801258D4024EA050301248C401C43F6
:10155000424D55F82050EC60042A7CD13F4C54F8A1
:101560002040E56801248C40A5433C4C54F82040C1
:10157000E56070E0042494408D00AC40374D55F890
:1015800020502D682C43354D55F820502C6062E0DA
:10159000324C54F820406468A1F10805AE000F25D4
:1015A000B540AC432D4D55F820506C601AB1032A5C
:1015B00001D0022A11D10124944044F00304A1F186
:1015C0000805AD00AC40254D55F820506D682C4302
:1015D000224D55F820506C603DE0012A01D0042ACC
:1015E0002AD11E4C54F820406468A1F10805AE00D1
:1015F0000825B5402C43194D55F820506C60012A40
:101600000CD1174C256801248C4025EA04030124E1
:101610008C401C43114D55F82050EC60042A1AD11F
:101620000E4C54F82040E46801258D40AC430B4D2E
:1016300055F82050EC600EE004249440A1F1080518
:10164000AD00AC40054D55F820506D682C43034D5E
:1016500055F820506C6070BD00100240A4000020BE
:101660000C08014030B57AB10D4C54F82040E468C4
:1016700001258D4024EA050301248C401C43084DBC
:1016800055F82050EC600AE0054C54F82040E4681E
:1016900001258D40AC43024D55F82050EC6030BD23
:1016A000A400002008B500F067F8FFF7B7FD00229E
:1016B0004FF4E131104600F0AFFB0B480B4B1A46DC
:1016C000012100900A4800F05DF90748074B1A46CF
:1016D00001210090074800F055F900220A2101205D
:1016E00000F012FB00BFFEE70000A0400000204118
:1016F000080100203C01002010B50446A2B20021E0
:10170000084600F069FA0948027806210020FFF730
:10171000A9FF0648007808B9012000E00020024631
:1017200007210020FFF79EFF10BD000000000020F1
:1017300010B50446A2B20121002000F04DFA09487C
:10174000027800210120FFF78DFF0648007808B9D4
:10175000012000E00020024601210846FFF782FF39
:1017600010BD00000100002070B504460D4629465A
:10177000204600F023F870BD10B54FF47A720021B6
:10178000084600F01BF9002206211046FFF798FEDC
:10179000002207211046FFF793FE4FF47A720121D1
:1017A000002000F00BF9002211460120FFF788FE0F
:1017B000002201210846FFF783FE10BD70B50546E3
:1017C0000C46002D08DB012011490870284601F065
:1017D000B9F91049086007E000200D490870684217
:1017E00001F0B0F90B490860002C08DB01200A4920
:1017F0000870204601F0A6F90849086007E00020BB
:1018000005490870604201F09DF90449086070BD07
:101810000000002008010020010000203C01002001
:101820002DE9F0410446D4E9000101F0F3FAA0608B
:10183000206B01282DD1D4E9020101F0EBFA054615
:10184000616901F0DFF92062A168A06901F0DAF9AD
:10185000A0624FF08040E16801F0D4F90746A1682A
:1018600001F0CDFA0646216901F000F80546E1696C
:1018700001F0C8F96062A16A206A00F0F7FF06462D
:10188000616A00F0F3FF0546E16A00F0EFFFE062F5
:1018900021E0206BF8B9A168606901F0B3F920621A
:1018A000A168A06901F0AEF90546A16A00F0DEFF6B
:1018B000A062D4E9020101F0ADFA0546E16901F048
:1018C000A1F96062A16A206A00F0D0FF0546616A52
:1018D00000F0CCFFE062E1682161A168E160BDE851
:1018E000F081000010B52148007830B12048006830
:1018F00001F028F91F49486006E01D480068404291
:1019000001F020F91B4948601B48007830B11B48A2
:10191000006801F017F91A49486006E017480068A6
:10192000404201F00FF91649486000201049086054
:10193000124908600F48FFF773FF1148FFF770FF67
:101940000C4800F027F80E4800F024F80949C86A4E
:1019500001F0BCF80446FFF7CFFE0949C86A01F060
:10196000B5F80446FFF7E4FE10BD000000000020BB
:1019700004000020080100200100002008000020D1
:101980003C01002010B5029C016342618361C46187
:1019900010BD000010B504460749E06A01F0FEF9E9
:1019A00001D80548E0620021E06A01F0F7F801D8AB
:1019B0000020E06210BD0000005043472DE9F041D7
:1019C00004460D4616462846E91705EB9171891025
:1019D000A5EB8101491CCFB25148C0690121A1404A
:1019E00008434F49C8614F4890FBF6F0401E4E49EE
:1019F00051F82410888547204B4951F82410088558
:101A0000284600F093F8012F06D0022F1ED0032F96
:101A100036D0042F69D14DE0434850F82400008BA4
:101A200040F06000404951F8241008833E4850F8C7
:101A30002400008B40F008003B4951F82410088333
:101A40000020394951F8241088864EE0364850F875
:101A50002400008B40F4C040334951F8241008831F
:101A6000314850F82400008B40F400602E4951F8B2
:101A70002410088300202C4951F82410088734E0F2
:101A8000294850F82400808B40F06000264951F826
:101A900024108883244850F82400808B40F00800EC
:101AA000214951F82410888300201F4951F824103F
:101AB00088871AE01C4850F82400808B40F4C0400E
:101AC000194951F824108883174850F82400808B56
:101AD00040F40060144951F8241088830020124912
:101AE00051F82410A1F8400000BF00BF0E4850F884
:101AF0002400008C791E8A000121914008430A4984
:101B000051F824100884084850F82400008840F058
:101B10008100054951F824100880BDE8F0810000DB
:101B20000010024040420F00B000002010B50446F3
:101B30000C2C4FD2DFE804F0060C12181E242A30B9
:101B4000363C4248032200210846FFF7B9FC41E039
:101B5000032201210020FFF7B3FC3BE00322022116
:101B60000020FFF7ADFC35E0032211460020FFF70F
:101B7000A7FC2FE0032206210020FFF7A1FC29E0AB
:101B8000032207210020FFF79BFC23E00322002112
:101B90000120FFF795FC1DE0032201210846FFF715
:101BA0008FFC17E0032206210120FFF789FC11E0DA
:101BB000032207210120FFF783FC0BE00322082109
:101BC0000120FFF77DFC05E0032209210120FFF73A
:101BD00077FC00BF00BF10BD2DE9F84F04460D464D
:101BE00017462846E91705EB91718910A5EB81018D
:101BF000491C01F0FF084CF25030874200DB0746D9
:101C0000384850F82400868DB8F1010F09D0B8F19A
:101C1000020F1DD0B8F1030F31D0B8F1040F5DD120
:101C200044E0701C00F08EFF8346384600F0A2FFAF
:101C30002D49009000F088FE8246594600F0E2FFF0
:101C4000814600F05FFF274951F82410888645E05F
:101C5000701C00F077FF0090384600F08BFF834641
:101C6000214900F071FE8246009900F0CBFF8146C9
:101C700000F048FF1B4951F8241008872EE0701C23
:101C800000F060FF0090384600F074FF834616496C
:101C900000F05AFE8246009900F0B4FF814600F041
:101CA00031FF104951F82410888717E0701C00F0AC
:101CB00049FF0090384600F05DFF83460A4900F076
:101CC00043FE8246009900F09DFF814600F01AFF16
:101CD000044951F82410A1F8400000BF00BFBDE83E
:101CE000F88F0000B00000200050434710B50446B4
:101CF00004490C70012C03D100210846FFF734FD84
:101D000010BD00001000002070B504460D461646B8
:101D10001748C0690121A14008431549C86105EB76
:101D200085004000401E134951F82410888541F673
:101D30001F40104951F8241008850E4850F824001F
:101D4000008840F001000B4951F824100880094830
:101D500050F82400808940F00100064951F8241011
:101D6000888104F11C00C1B23046FEF789FE70BDC7
:101D700000100240B00000202DE9F04F89B08146EC
:101D80008A46B9F1000F01D11F4C00E01F4C4FEA09
:101D90000A1094FBF0FB584600F035FBCDE9040136
:101DA000504600F019FB07460022194B00F03EFB9D
:101DB00005460E46204600F0C5FE074600F02AFD07
:101DC0002A463346CDE9000100F072F9CDE902015F
:101DD000DDE9042300F034FCCDE9060100F07AF8D7
:101DE00008904FF08341089800F00CFF0890089885
:101DF00000F088FE00EB0B10064951F8291008810D
:101E000009B0BDE8F08F000000A24A04005125028D
:101E100000003040BC00002070B504460E46154658
:101E200034B91448806940F480401249886108E060
:101E30001048C06904F1100101228A4010430D4985
:101E4000C861204600F01AF831462046FFF794FF9B
:101E5000094850F82400808942F22C0108430649C1
:101E600051F82410888104F12500C1B22846FEF7FC
:101E700007FE70BD00100240BC00002010B50446F3
:101E800024B1012C0DD0022C21D115E0032209210F
:101E90000020FFF715FB04220A210020FFF710FBAA
:101EA00015E0032202210020FFF70AFB0422032190
:101EB0000020FFF705FB0AE003220A210120FFF7BB
:101EC000FFFA04220B210120FFF7FAFA00BF00BF3E
:101ED00010BD000021F00042A2F16052B2F5801F57
:101EE00001F0004328BFD2F17F6C0BD95FEA001CE0
:101EF00043EAC20242EB507018BF704728BF20F07F
:101F000001007047B2F5801FBCBF184670474FEA0A
:101F1000410C1CF5001F02D2084600F03ABF70B514
:101F200000F02EFB00000089FFF7F6BF4FF00040E5
:101F3000A0F580007047000010B591EA030F48BF7C
:101F400083F0004300F18483841A71EB030C05D203
:101F5000121943EB0C03001B61EB0C01DFF824E1C9
:101F60004FEA1154A4EB135C1EEA430F18BF9EEA1C
:101F7000445F73D023EA0E03DCF1200E21EA045102
:101F800043F4801332D322FA0CFE10EB0E0023FA36
:101F90000CFE41EB0E01CCF1200E03FA0EFE10EB0D
:101FA0000E0051F10001B1F5801FCCF1200E32D2AC
:101FB00001EB045112FA0EF2BDE8104058BF704711
:101FC000401C38BF5FEA420218BF7047002814BFA8
:101FD00020F0010041F100014FEA410313F5001F19
:101FE00038BF7047A1F1C04100F018BB012A43EB94
:101FF0000302ACF1200CDCF11F0E32BF4FF0000EDB
:1020000023FA0CF310EB030041EB0451B4EB115F26
:10201000D0D0A1EB045101F5801149085FEA3000EE
:1020200001EB04510ED350F1000038BF12FA0EFE3E
:1020300008D1BDE81040C9E7401C38BF5FEA420242
:10204000CAD1C3E7BDE810404FEA410313F5001FB2
:1020500038BF7047A1F1C04100F0E0BA9EEA445F8A
:1020600008D011EA5E0FBDE8104004BF01F0004146
:1020700000207047BDE8104070B500F081FA00BF45
:1020800064FBBE3E0000E0FF02494FF0000000F09C
:1020900036BF00BF0000F87F491058BFC1F1404172
:1020A0005B1058BFC3F140438B42EFF30080704791
:1020B0002DE9C04130B4DFF8A0C23CEA111418BFCA
:1020C0003CEA131400F0EC8081EA03051CEA1114C9
:1020D00044EAD57418BF1CEA131500F0C780A4EBBE
:1020E00005044FF0004545EAC12145EAC32341EA12
:1020F000505143EA525304F17F74994204F500347D
:102100004FEAC0204FEAC22208BF904200F09C80F4
:102110004FEA13650FF24016765D4FEA134506FB52
:1021200005F7C7F1807706FB07F74FEAD737A7FB1C
:1021300003687642C8F58038A7FB06CE38BFA8F101
:10214000010807FB08E64FF0000EA6FB028CE6FB39
:1021500003CEDCF1000CCEF1004E38BFAEF1010E23
:10216000A6FB0C584FF000074FF00005E6FB0E876A
:10217000A1FB08C6A0FB07CE16EB0E0645F1000535
:10218000E1FB076515F1E04E7EBFA4F580345FEA00
:1021900046066D4116F1800745F100054FEA172705
:1021A0004FEA066647EA0567A6F1DE46B6F1805FAC
:1021B0004FEA15251FD9384624F0010C05EBC471F0
:1021C000BCF1FE6F01EB0C1102D8F0BCBDE8008140
:1021D00024425CBF01F5801E9EEAC47F02D4F0BC9D
:1021E000BDE80081244238D4F0BCA1F1C041BDE873
:1021F000004100F013BA4FEAD22242EA43524FEABA
:10220000D323A7FB02864FEAD02040EA415007FBC8
:1022100003661EEA0E0F4FEAD12105FB026658BF86
:10222000A6EB0056B6EB00564FEA520E4EEAC37EBE
:1022300018EB0E0E56EB530EBDD518EB02085E419F
:102240007F1C55F10005B6E74FF480154FF00007ED
:102250004FF000064FF00008ADE7F0BC4FF0000073
:1022600001F1C04101F00041BDE8008111EA0C1FFD
:102270000CEA131500D00CE013EA0C1F00F02580C7
:102280004FF00000F0BC81EA030101F00041BDE81D
:102290000081F0BCBDE8004181EA030100F0BEB955
:1022A000F0BCBDE8004170B500F06AF9097EFC3E63
:1022B00000F007B881EA03014FF0000001F000418F
:1022C000704781EA030100F0A9B9F0BCBDE8004104
:1022D0004FF0000021497047FFFDFBF9F7F5F4F2DC
:1022E000F0EEEDEBE9E8E6E4E3E1E0DEDDDBDAD8B1
:1022F000D7D5D4D3D1D0CFCDCCCBCAC8C7C6C5C40F
:10230000C2C1C0BFBEBDBCBBBAB9B8B7B6B5B4B325
:10231000B2B1B0AFAEADACABAAA9A8A8A7A6A5A410
:10232000A3A3A2A1A09F9F9E9D9C9C9B9A999998D4
:102330009797969595949393929191908F8F8E8E77
:102340008D8C8C8B8B8A8989888887878685858404
:1023500084838382828181800000FF070000F87FF0
:1023600051EA030C17D41CF5801F58BFBCF5801F21
:1023700000F10680994218BF704708BF904270472D
:1023800007D711F5801F58BF13F5801F19D4994244
:102390007047894270471CF5801F08D5BCF5801F27
:1023A000F7D58B4218BF704708BF824270474FF481
:1023B000001C1CEB410F38BF1CEB430F01D28B42BA
:1023C000704770B500F0DCF8922449004FF00051DE
:1023D0004FF08053FFF760BE10F0004248BF40420C
:1023E000B0FA80F310FA03F10AD0C3F11D0303F52C
:1023F00080634FEA415002EB035202EBD121704758
:102400004FF000007047B0FA80F310FA03F10AD0E1
:10241000C3F11D0303F580634FEA41504FEA0352B5
:1024200002EBD12170474FF000007047DFF848C140
:1024300070B51CEA111E1EBF1CEA13159EEA0C0F94
:1024400095EA0C0F00F06F8081EA030423EA4C1335
:102450004EEAD47E21EA4C1141F4801143F48013FA
:10246000AE44A1FB024CA0FB0365AEF17F7E3619A2
:1024700055EB0C05A1FB034C4CF10003A0FB021C27
:1024800016EB0C06654153F10003094218BF46F0F4
:10249000010613F4007F0BD14FEA03314FEA0530F8
:1024A000340341EA155140EA16506FF003020AE086
:1024B0004FEAC3214FEAC520F40241EA555140EAF0
:1024C00056506FF0020202EB2E4201EB025585EAF4
:1024D000CE710AD05FEA440C18BF24F0004450F1DA
:1024E000000041F1000120EAD47040F2FE7C624518
:1024F00000D270BDA84214BF4FF080444FF040445A
:10250000002E08BF0024BEF1806FA8BFA1F1C0411A
:10251000BDE8704080F282804FF0000001F1C041C0
:1025200001F0004170479EEA0C0F0CEA131518BF2A
:1025300095EA0C0F06D04FF0000081EA030E0EF072
:10254000004170BD00F01CF88900013E00F007B8A2
:1025500000F009B84FEA430C5FEA5C5C08D081EAFE
:10256000030100F05BB84FEA410C5FEA5C5CF6D116
:102570004FF00000014970470000FF070000F87F9E
:102580000EF1020E2EF0030E5EF8046B364205D4F7
:10259000012A43EB030515F5001F12D8012841EB72
:1025A000010C1CF5001F0CD80ED14FEAD17C15F59B
:1025B000001F0CEB4C0C0CF1020C08BF4CEBD37C55
:1025C00004E04FF0080C01E04FEAD37C0CEB4C0523
:1025D00026FA05F606F00706B6F1040C06D20EEB55
:1025E000860CBDE870404CF0010C6047DFE80CF051
:1025F000090B02024FF000414FF00000A1F500214D
:1026000070BD19461046012851EB010418BFD4F5DE
:10261000001484BF002001F0004170BD0808A0F53F
:1026200000114FEA3101704791EA030F10B581F0B4
:1026300000413FF589AC83F0004300F009B8000089
:1026400010B591EA030F48BF83F000433FF57CAC1F
:10265000841A71EB030C07D212198CF0004C43EB77
:102660000C03001B61EB0C01DFF8A4E14FEA1154ED
:10267000A4EB135C1EEA430F18BF9EEA445F00F010
:10268000B08023EA6E03524221EA0451C3EB6E0389
:1026900038BF5B1EDCF1200E25D322FA0CFE10EBB6
:1026A0000E0043FA0CFE41EB0E01CCF1200E03FAB2
:1026B0000EFE10EB0E0051F10001CCF1200E29D4DA
:1026C00012FA0EF201EB0451BDE8104058BF7047FA
:1026D000401C1CBFB2F1004F704700280CBF491CC2
:1026E00020F00100704712EB020E43EB030218BF0B
:1026F0004FF0010E4EEA4202ACF1200CDCF11E0E4E
:1027000054D943FA0CFE10EB0E0051F1FF31CCF11D
:102710001E0ED5D50EF1010E12FA0EFE404141EB10
:10272000010101EB445C5FEA5C5C10D910EBDE70E8
:1027300001EB045138BFBEF1004FBDE8104018BF97
:10274000704700280CBF491C20F00100704730D2B0
:102750004FEAD42C11F5001124F400641BD0B1FA17
:1027600081F20B3AA41AA41ED2F12003914030FA50
:1027700003F31943904001EBCC71002C01EB0451A1
:10278000BDE81040A8BF704701F1C0414FF0000004
:1027900001F000417047B0FA80F310FA03F100D164
:1027A00010BDE41A173C4805C90AE4E701EB0451DF
:1027B00010BD491001EB0451BDE810404FEA300054
:1027C00002E04FF0000170474A0008BF0042F8D015
:1027D000B2F5001F28BF704701F000414FF0000024
:1027E00070479EEA445F07D011EA5E0FBDE81040D3
:1027F00004BF002100207047BDE8104070B5FFF70E
:10280000BFFE00BF40DFF63E83F000411046704738
:102810000000E0FF43004FEAD30C4FEA3C0C43407A
:102820001FBF40070CF1605113F0FE4F70471CF0C2
:10283000006F03D100200CF0004170470CF0004302
:1028400043EA507010B540EACC0000F05CFA00BFDB
:10285000000000924FEA0001FFF7E0BE4FF0004198
:102860004FF00000A1F500217047000090EA010F31
:1028700048BF81F0004100F1D482421A3CBF801A67
:1028800089184FEAD0524FF07F4C1CEA410FA2EB5F
:10289000D15318BF9CEA026F00F03B804FF0004C10
:1028A0004CEA00204CEA012121FA03FC10EB0C0C4D
:1028B0001ED202F1FF325FEA1C2040EBC25038BF4B
:1028C00070471CF07F0F4FEA400C18BFBCF17F4FE0
:1028D00038BF7047C3F12003994008BF20F00100C2
:1028E000BCF17F4F38BF7047A0F1C04000F051BA33
:1028F0004FEA3C00000A40EBC25028BF1CF0FF0F1B
:102900004FEA400CE6D018BFBCF17F4F38BF70478C
:10291000EAE79CEA026F05D010EA5C0F08BF00F0FE
:102920000040704710B500F0EEF900BF64FBBE3EFA
:10293000401058BFC0F14040491058BFC1F140415C
:102940008142EFF3008070474FF47F0C1CEAD012F5
:102950001EBF1CEAD11392EA0C0F93EA0C0F00F091
:10296000858090EA010F48BF42F4807240F4000C69
:1029700041F400002CF07F4120F07F4000B58142FF
:10298000A2EB03020FF2081CACEB504EC0F10000AA
:102990009EF800E04FEA4E0E00FB0EFC38BF4900E7
:1029A0004FEA2C1C02F5FA020CFB0EF34FEACE1E86
:1029B0004FEA112C4FEAC1210EEB635E42EB22423B
:1029C0000EFB0CFC4FEA1C5300FB03114FEA112CC9
:1029D0004FEA01310EFB0CFC4FEADC4C00FB0C1102
:1029E000C14228BF09184CEB03335DF804EB10EB30
:1029F000410143EBC250B2F57C0F38BF704729D577
:102A000012F0F00F1CBF00F1C04000F00040704712
:102A1000008182838485868788898B8C8D8E8F91B7
:102A20009293959697999A9C9D9FA0A2A3A5A7A8DB
:102A3000AAACAEB0B2B3B5B7B9BCBEC0C2C5C7C907
:102A4000CCCED1D4D7D9DCDFE2E6E9ECF0F3F7FA6B
:102A5000FE0000004FEA400C0CF1807CBCF17E4F80
:102A600028BF7047B0F1C04000F093B990EA010F61
:102A70000CEAD11348BF42F48072624538BF634507
:102A800007D213F47F0F16D080EA010000F0004057
:102A9000704710B500F037F9097EFC3E00F005B82C
:102AA00080EA010000F00040704780EA010000F079
:102AB000004000F06EB912F47F0F04BF0248704767
:102AC00080EA010000F065B90000C07F41000B0EF4
:102AD000D3F19E0208D950F400034FEA032323FAEE
:102AE00002F048BF4042704710B500F00CF900BF3B
:102AF00049922480002070476FF0004282EA200053
:102B000070470000C10DD1F19E0206DB4FEA0023A1
:102B100043F0004323FA02F07047004207D54FEA22
:102B20004001B1F1FE4F02D24FF00000704710B5E6
:102B300000F0E9F849922480002070476FEA2000F5
:102B40007047000010F0004148BF4042B0FA80F3E7
:102B500010FA03F2C3F19D030BD051EAC35101EB0C
:102B60001220530638BF704700F1010008BF20F063
:102B700001007047B0FA80F310FA03F2C3F19D032D
:102B80000AD0D90501EB1220530638BF704700F177
:102B9000010008BF20F001007047000050EA010C5E
:102BA00000F113801CF5000F58BFBCF5000F01D4D5
:102BB0008842704707D710F5000F58BF11F5000F76
:102BC00015D488427047894270471CF5000F04D520
:102BD000BCF5000FF7D5814270474FF0807C1CEBAD
:102BE000400F38BF1CEB410F01D28142704710B536
:102BF00000F089F8922449004FF000504FF08051C6
:102C0000FFF796BE4FF47F0C1CEAD0121EBF1CEAE1
:102C1000D11392EA0C0F93EA0C0F00F0478090EA70
:102C2000010F48BF42F480724FF0004C4CEA002084
:102C30004CEA012102EB0302A0FB0113A2F5000202
:102C4000002918BF43F001035B0028BF4FEA33039C
:102C500042EB22425FEA132C4CEBC2502EBFBCEB7E
:102C6000436FB2F57C0F70474FEA036CBCF1004F25
:102C700008BF20F00100B2F57C0F38BF70470BD5BC
:102C800082F0FF0212F5803FC8BF704700F1C040DC
:102C9000D8BF00F00040704700F5000C5FEA4C0C14
:102CA00048BF7047B0F1C04000F073B890EA010F20
:102CB0000CEAD11348BF42F48072624538BF6345C5
:102CC00004D280EA010000F00040704710B500F027
:102CD0001AF800BF8900013E00F007B800F009B8FB
:102CE0005FEA410C5FEA1C6C08D080EA010000F04A
:102CF00050B85FEA400C5FEA1C6CF6D14FF0004020
:102D0000A0F5800070470EF1020E2EF0030E5EF863
:102D1000044B244204D44FEA4102B2F17F4F11D850
:102D20004FEA4003B3F17F4F0CD80ED14FEAD07C6D
:102D3000B2F17F4F0CEB4C0C0CF1020C08BF4CEBCA
:102D4000D17C04E04FF0080C01E04FEAD17C0CEBA1
:102D50004C0324FA03F404F00704B4F1040C06D283
:102D60000EEB840CBDE810404CF0010C6047DFE82E
:102D70000CF0070802024FF00040A0F5800010BDE3
:102D80000846420018BFD2F1807288BF00F00040B0
:102D900010BDFF2141EAD050C005704751EA000C38
:102DA00000F113801CF5000F58BFBCF5000F01D4D3
:102DB0008142704707D711F5000F58BF10F5000F7B
:102DC00015D481427047894270471CF5000F04D525
:102DD000BCF5000FF7D5884270474FF0807C1CEBA4
:102DE000410F38BF1CEB400F01D28842704780EA88
:102DF000010081EA000180EA0100FFF7F8BE80F0DF
:102E0000004090EA010F7FF538AD81F0004100F0FD
:102E100008B8000090EA010F48BF81F000413FF57B
:102E20002CAD421A04D882F00042A0EB02001144FB
:102E30004FEAD0524FF07F4C1CEA410FA2EBD15326
:102E400018BF9CEA026F4AD04FF0004C4CEA0020B9
:102E50004CEA012121FA03FCB0EB0C0C0FD412F068
:102E6000FE0F36D05FEA4C001DD5001240EBC25079
:102E700038BF70471CF03F0F18BF70470BE0A2F13E
:102E800001025FEA1C2040EBC25038BF70471CF0C3
:102E90007F0F18BF7047C3F12003994014BF401E35
:102EA00020F00100704780084FEA122308BF7047E6
:102EB000B0FA80FCA2EB0C02CCF1280C60FA0CF00A
:102EC00093EA122F04BF00EBC25070474FEAC37061
:102ED0007047130A5FEADC1008BF7047F6E79CEA08
:102EE000026F04D010EA5C0F08BF0020704710B5D5
:102EF000FFF709FF40DFF63E81F0004070470CF01D
:102F00000F03092B08BF082000F059800A2B0BD0B3
:102F1000082B18BF704708BF1CF0400F0AD04FF0B5
:102F200000004FF0000170471CF0400F18BF4FF039
:102F3000004070471CF0100F08D020F0704300F0E4
:102F40007F4242EAD3014FEA4370704700F060408D
:102F500021F07F4242EA000201F07F4040EA7270B5
:102F600070474FF0FF0C4CF4E06C1CEA11531CBF8F
:102F70009CEA030C9445C2BFDA4201EB0251704750
:102F8000002B0DD0BCF1000F0FD0002A01F0004142
:102F9000A4BF41F0E04141F07F614FF00000704775
:102FA00001F000414FF00000704750EA01334FF04C
:102FB0009B0C18BF4CF0806C7FF466A870471CF423
:102FC000801F11D01CF4E02F03D06FEACC314900F0
:102FD00070474FF04050EFF3008222F0704242EA17
:102FE000000282F3008870474FF000007047000035
:102FF0004FBB610567ACDD3F182D4454FB21E93F11
:103000009BF681D20B73EF3F182D4454FB21F93FFF
:10301000E2652F227F2B7A3C075C143326A6813C85
:10302000BDCBF07A8807703C075C143326A6913C30
:10303000C4EB98999999C9BF711623FEC671BCBF9C
:103040006D9A74AFF2B0B3BF9AFDDE522DDEADBF04
:103050002F6C6A2C44B4A2BF0D5555555555D53F1C
:10306000FF8300922449C23F6E204CC5CD45B73F37
:10307000513DD0A0660DB13FEB0D76244B7BA93FAF
:1030800011DA22E33AAD903F00000000000000009A
:10309000B0300008000000200801000028010008EE
:1030A000B831000808010020C806000044010008EB
:1030B000010100000000000000000000000000000E
:1030C000030000006F12833AA69B443B0000003FC0
:1030D0000000803F00000000000000000000803F72
:1030E000CDCC4C3D000000000000000000000000BE
:1030F000000000006F12833AA69B443B0000003F93
:103100000000803F00000000000000000000803F41
:10311000CDCC4C3D0000000000000000000000008D
:10312000000000006F12833AA69B443B0000003F62
:103130000000803F00000000000000000000803F11
:10314000CDCC4C3D0000000000000000000000005D
:103150000000000000080140000C01400010014088
:10316000000000400004004000080040003801401A
:103170000044004000480040000000000000000043
:10318000000000000000000000000000000000003F
:10319000000000000000000000000000000000002F
:1031A000000000000000000000000000000000001F
:0831B000000000000000000017
:04000005080000ED02
:00000001FF
