:020000040800F2
:100000009807002089010008910100089301000869
:100010009501000897010008990100080000000000
:100020000000000000000000000000009B0100082C
:100030009D010008000000009F010008A1010008C8
:10004000A3010008A3010008A3010008A301000800
:10005000A3010008A3010008550200086D02000872
:1000600085020008C1020008D9020008A3010008A7
:10007000A3010008A3010008A3010008A3010008D0
:10008000A3010008A3010008A3010008A3010008C0
:10009000A3010008A3010008A3010008150300083C
:1000A000A3010008A3010008A3010008A3010008A0
:1000B000210900084109000891090008A30100086E
:1000C000A3010008A3010008A3010008A301000880
:1000D000A3010008AD090008E90A0008050B0008A3
:1000E000A3010008A3010008A301000800F002F822
:1000F00000F03AF80AA090E8000C82448344AAF188
:100100000107DA4501D100F02FF8AFF2090EBAE885
:100110000F0013F0010F18BFFB1A43F0010318473B
:10012000AC440000CC440000103A24BF78C878C129
:10013000FAD8520724BF30C830C144BF04680C60ED
:10014000704700000023002400250026103A28BF35
:1001500078C1FBD8520728BF30C148BF0B60704739
:100160001FB51FBD10B510BD00F046F81146FFF7D2
:10017000F7FF01F03DF900F064F803B4FFF7F2FF78
:1001800003BC00F057FD00000948804709480047BC
:10019000FEE7FEE7FEE7FEE7FEE7FEE7FEE7FEE737
:1001A000FEE7FEE704480549054A064B7047000094
:1001B000C1080008ED000008980100209807002001
:1001C00098030020980300207047704770477047DD
:1001D000704710B500F008F8006810BD10B504466F
:1001E00000F002F8046010BD00487047380100209C
:1001F00000487047380100207546FFF7F9FFAE460A
:1002000005006946534620F00700854618B020B522
:10021000FFF7C8FFBDE820404FF000064FF0000791
:100220004FF000084FF0000B21F00701AC46ACE89E
:10023000C009ACE8C009ACE8C009ACE8C0098D460B
:10024000704710B50446AFF300802046BDE810406B
:10025000FFF793BF0448006800F0010010B10120CF
:100260000149086070470000140401400448006818
:1002700000F0020010B10220014908607047000040
:100280001404014010B50C48006800F0040090B15F
:100290000321002000F01AFF28B108480068401E22
:1002A0000649086004E005480068401C03490860EE
:1002B00004200149086010BD1404014064000020BE
:1002C0000448006800F0080010B1082001490860E7
:1002D000704700001404014010B50C48006800F09D
:1002E000100090B10521002000F0F0FE28B1084870
:1002F0000068401C0649086004E005480068401E8C
:100300000349086010200149086010BD1404014031
:10031000680000201548006800F0200010B120207F
:10032000124908601148006800F0400010B14020F8
:100330000E4908600D48006800F0800010B1802070
:100340000A4908600948006800F4807018B14FF449
:100350008070064908600548006800F4007018B114
:100360004FF4007001490860704700001404014018
:10037000014607238B431A02054B18684FF6FF030B
:1003800018401043034B1843014B1860704700009E
:100390000CED00E00000FA0570B505460C4604209F
:1003A000FFF7E6FF0E48005D00F0010646EA051083
:1003B000C1B20B4801552046E21704EBD26252113C
:1003C000A4EB421301229A402146E31704EBD363C6
:1003D0005B119B0003F1E023C3F8002170BD000016
:1003E00000E400E070B500240EE00021204600F09B
:1003F000D1F8002504E0002000F0DDF9681CC5B24A
:10040000802DF8DB601CC4B2082CEEDB70BD10B58B
:1004100002220821012000F06BFE022209210120A6
:1004200000F066FE01220821104600F033FF012291
:100430000921104600F02EFF10BD70B505460024BE
:1004400013E08020204100EA05020921012000F08C
:1004500021FF01220821104600F01CFF0022082184
:10046000012000F017FF601CC4B2082CE9DB012258
:100470000821104600F00EFF00220821012000F0A4
:1004800009FF70BD10B501220921104600F002FFDE
:1004900001220821104600F0FDFE00220921012062
:1004A00000F0F8FE00220821012000F0F3FE10BD4C
:1004B00010B500220921012000F0ECFE01220821E4
:1004C000104600F0E7FE01220921104600F0E2FE8E
:1004D00010BD70B5002406E0002500E06D1CB5F5E8
:1004E0007A7FFBD3641CB4F57A7FF5D3FFF78FFFD7
:1004F000AE2000F050F9D52000F04DF9802000F03A
:100500004AF9A82000F047F93F2000F044F9D32031
:1005100000F041F9002000F03EF9402000F03BF9E6
:10052000A12000F038F9C82000F035F9DA2000F0F9
:1005300032F9122000F02FF9812000F02CF9CF20A1
:1005400000F029F9D92000F026F9F12000F023F974
:10055000DB2000F020F9302000F01DF9A42000F08D
:100560001AF9A62000F017F98D2000F014F91420D4
:1005700000F011F9AF2000F00EF9FFF733FF70BD66
:1005800010B50246012000E050430B1EA1F101010D
:10059000FAD110BD70B505460C4645F0B00000F02C
:1005A000FAF8102141EA141000F0F5F804F00F00F9
:1005B00000F0F1F870BD00002DE9F04105460E464F
:1005C0001746721ED206110E6A1E5206100EFFF753
:1005D000E1FF002409E0A7F12001134A02EB011119
:1005E000085D00F0E8F8601CC4B2082CF3DB721E52
:1005F000D206110E6A1E012303EB4202D0B2FFF7AE
:10060000C9FF00240BE0A7F12001074A02EB011209
:1006100004F10801505C00F0CEF8601CC4B2082C54
:10062000F1DBBDE8F0810000FC3E00082DE9FF4F42
:1006300087B00C4691469A46DDF850B0484603F024
:10064000BBF90590584602F0FBFC07463A460B46BC
:1006500000201A4901F034F905460E46059803F0CA
:10066000E7F98046494603F040FB074603F048F8A7
:100670002A463346CDE9000102F032FDCDE9020100
:1006800002F098FC049053462146059A079800F022
:100690003BF804EB0A00401CC1B209A2079800F025
:1006A00066F804EB0A00801CC1B25B46049A079806
:1006B00000F008F80BB0BDE8F08F00000000244007
:1006C0002E0000002DE9F04780460E4617461D46D5
:1006D000002415E0281B411E0A20FFF751FFB7FB3D
:1006E000F0F00A21B0FBF1F201FB120000F1300939
:1006F0003019C1B24A464046FFF75EFF601CC4B2E3
:10070000AC42E7DBBDE8F0872DE9F047814688463B
:1007100015461E46002D06DB2B2241464846FFF7B4
:100720004BFF2F4605E02D2241464846FFF744FF88
:100730006F42002417E0301B411E0A20FFF720FF04
:10074000B7FBF0F00A21B0FBF1F201FB120000F15F
:10075000300A08EB0400401CC1B252464846FFF77D
:100760002BFF601CC4B2B442E5DBBDE8F0872DE985
:10077000F04107460E461546002407E02A5D301971
:10078000C1B23846FFF718FF601CC4B2285D0028CC
:10079000F4D1BDE8F08110B50446FFF773FE782070
:1007A000FFF74BFE0020FFF748FE2046FFF745FE0F
:1007B000FFF77EFE10BD10B50446FFF763FE7820FC
:1007C000FFF73BFE4020FFF738FE2046FFF735FEDF
:1007D000FFF76EFE10BD10B500F002F810BD00006E
:1007E0000CB50020019000903348006840F4803040
:1007F0003149086000BF3048006800F400300090C4
:100800000198401C0190009818B90198B0F5A06FAC
:10081000F1D12948006800F4003010B101200090A7
:1008200001E0002000900098012843D1234800688F
:1008300040F01000214908600846006820F00300DD
:1008400008600846006840F0020008601A484068E6
:10085000194948600846406848600846406840F4C6
:10086000806048600846406820F47C104860084674
:10087000406840F4E81048600846006840F0807026
:10088000086000BF0C48006800F000700028F9D034
:100890000948406820F0030007494860084640685E
:1008A00040F00200486000BF0348406800F00C00C0
:1008B0000828F9D10CBD00000010024000200240C1
:1008C00010B51348006840F001001149086008465F
:1008D0004068104908400E494860084600680E49C3
:1008E00008400B4908600846006820F48020086032
:1008F0000846406820F4FE0048604FF41F008860FE
:10090000FFF769FF4FF000600449086010BD000068
:10091000001002400000FFF8FFFFF6FE08ED00E0C7
:100920004FF08040008A00F0010038B14FF0804065
:10093000008A20F001004FF08041088270470000DB
:1009400010B50F48008800F00100B8B10D480068EC
:10095000401C0C49086000F0F3FE0B48007838B1E9
:100960000848006809490968884201D300F070F915
:100970000348008820F001000149088010BD0000F4
:100980001004004080000020A0000020A4000020EF
:100990000548008800F0010028B10348008820F0D5
:1009A00001000149088070471008004010B5484810
:1009B000008800F0200000286FD04548001D008806
:1009C000C4B24448007820B1012868D0022875D10B
:1009D0006BE0442C36D00CDC322C50D004DC302CB4
:1009E00045D0312C57D146E0332C4CD0412C52D13C
:1009F0001FE0532C13D004DC452C32D0502C4AD1AC
:100A000045E0572C02D0582C45D125E032480078DB
:100A1000032803D13221084600F0FEFD3BE02E48BA
:100A20000078032804D16FF03101084600F0F4FD8E
:100A300031E029480078032803D13221484200F0F0
:100A4000EBFD28E024480078032804D16FF0310141
:100A5000322000F0E1FD1EE00021084600F0DCFD40
:100A600019E000F0BDF900201B49087013E00020D8
:100A700001F0AAFD0FE0012001F0A6FD0BE002202D
:100A800001F0A2FD07E0032001F09EFD03E001203C
:100A90001049087000BF00BF10E017E0FFE70F48E3
:100AA000047002200B49087008E00D480470012012
:100AB0000C49087000200749087000BF00BF0448B7
:100AC000008820F020000249088000BF10BD00000F
:100AD000003801405C0000207C00002090000020D5
:100AE00091000020920000200548008800F02000BE
:100AF00028B10348008820F0200001490880704791
:100B0000004400400548008800F0200028B1034858
:100B1000008820F02000014908807047004800400C
:100B2000490050EAC12018BF04204A0D18BF40F008
:100B3000010040F2FF72B2EB515F08BF40F00200CB
:100B4000012808BF052070472DE9F0414F1E00EB3A
:100B5000C7010446D1E9000115461E4637F00602DA
:100B60000DD02A46334602F0BBFA7F1E04EBC703C2
:100B7000D3E9002302F00AF837F00602F1D1022F80
:100B800025D0042F13D0062F18BFBDE8F0812A46C8
:100B9000334602F0A5FAD4E90A2301F0F7FF2A460A
:100BA000334602F09DFAD4E9082301F0EFFF2A460C
:100BB000334602F095FAD4E9062301F0E7FF2A460E
:100BC000334602F08DFAD4E9042301F0DFFF2A4610
:100BD000334602F085FAD4E9022301F0D7FF2A4612
:100BE000334602F07DFAD4E90023BDE8F04101F07C
:100BF000CDBF0000002213461046014902F082B822
:100C00000000F03F01F0C2BF00221346104611461B
:100C100002F078B840F2013200204FF0E04103F0DA
:100C200016B90000024A0020110703F010B90000B5
:100C300001FDFFFF00BF704710B500220521012014
:100C400000F056FA00220521012000F023FB10BD20
:100C500010B500220521012000F01CFB00200149F5
:100C6000087010BDA000002010B50122052110461B
:100C700000F010FB01200149087010BDA000002009
:100C800010B51F480078012804D01D4800780328BB
:100C900000D010BD1B491C48006802F0F5FF2AD89F
:100CA0001A480078401C194908700020164908604D
:100CB000FFF7DAFF1648006832301649086000F086
:100CC00080FB134800681430134908600120134961
:100CD00008700B480078012801D1022400E00124AB
:100CE0000A480078A04206DB0021084600F094FC88
:100CF00000200349087000F017FB00BFC9E700009F
:100D00007C00002000009D4388000020840000201B
:100D100080000020A4000020040000200200002029
:100D200070B504460025092C56D2DFE804F05505BD
:100D30000F19232D37414B000C21012000F0C6F97B
:100D4000012801D1012500E0002545E00D21012009
:100D500000F0BCF9012801D1012500E000253BE0AD
:100D60000E21012000F0B2F9012801D1012500E097
:100D7000002531E00F21012000F0A8F9012801D160
:100D8000012500E0002527E00821002000F09EF961
:100D9000012801D1012500E000251DE00D210220E0
:100DA00000F094F9012801D1012500E0002513E0AD
:100DB0000E21022000F08AF9012801D1012500E06E
:100DC000002509E00F21022000F080F9012801D15F
:100DD000012500E0002500BF00BF284670BD0000CF
:100DE00010B5002000F092FB002000F0ABFB0020CB
:100DF00006490860064908600449C8620449C86297
:100E0000024988620249886210BD0000D0000020BB
:100E10000401002010B501221146062000F010F850
:100E200001220321002000F063F9012211460C2069
:100E300000F006F801220521002000F059F910BD4C
:100E40002DE9F04704460E461746032194FBF1F0C6
:100E5000C11700EB91718910A0EB810189064FEA5F
:100E60001168032194FBF1F0C11700EB9171C1F3FC
:100E70008705204600F06AF83148806940F001009B
:100E80002F4988614FEAB13050F825000F2101FA4F
:100E900008F188432B4941F82500032094FBF0F129
:100EA00000FB114088B1032094FBF0F100FB1140DE
:100EB000401E012101FA00F000FA08F0214951F822
:100EC000251001431F4840F82510032094FBF0F142
:100ED000012088401C49096808431B49086066B91D
:100EE000032094FBF0F1012088401749083109687C
:100EF00008431549083108600BE0032094FBF0F12A
:100F00000120884010490C31096808430E490C3112
:100F10000860032094FBF0F004280ADC032094FB13
:100F2000F0F0801D00F0FF0949463846FFF734FA1B
:100F300003E017213846FFF72FFABDE8F0870000DD
:100F400000100240080001400004014010B50446B2
:100F5000182C12D2DFE804F00C12181E242A3036A6
:100F60003C42484E545A60666C72787E848A9096F1
:100F700001220021084600F0BBF889E0012200218F
:100F8000104600F0B5F883E001220021022000F0B5
:100F9000AFF87DE001221146002000F0A9F877E0CB
:100FA00001221146104600F0A3F871E0012211461B
:100FB000022000F09DF86BE001220221002000F0E9
:100FC00097F865E001220221104600F091F85FE0F9
:100FD00001220221084600F08BF859E0012203218A
:100FE000002000F085F853E001220321104600F0B4
:100FF0007FF84DE001220321022000F079F847E05C
:1010000001220421002000F073F841E001220421B4
:10101000104600F06DF83BE001220421022000F0B0
:1010200067F835E001220521002000F061F82FE08B
:1010300001220521104600F05BF829E0012205217C
:10104000022000F055F823E001220621002000F0E4
:101050004FF81DE001220621104600F049F817E084
:1010600001220621022000F043F811E001220721AD
:10107000002000F03DF80BE001220721104600F0AF
:1010800037F805E001220721022000F031F800BF07
:1010900000BF10BD70B50026002500240AE0611CC9
:1010A000C8B2FFF73DFE20B9074850F824000644B7
:1010B0006D1C641C082CF2DB15B940F2E73070BDE2
:1010C00096FBF5F0FBE70000DC3E000810B5024699
:1010D000064850F82200806801248C4000EA04038E
:1010E0000BB1012010BD0020FCE70000A80000208B
:1010F00070B5654CA469042585402C43624DAC61F4
:1011000008295DDA614C54F8204024688E000F25D0
:10111000B540AC435D4D55F820502C601AB1032A00
:1011200001D0022A0FD10124944044F003048D0021
:10113000AC40564D55F820502D682C43534D55F872
:1011400020502C609FE0012A01D0042A2AD14F4C64
:1011500054F8204024688E000825B5402C434B4DA0
:1011600055F820502C60012A0ED1484C54F82040EC
:10117000E46801258D4024EA050301248C401C43CA
:10118000424D55F82050EC60042A7CD13F4C54F875
:101190002040E56801248C40A5433C4C54F8204095
:1011A000E56070E0042494408D00AC40374D55F864
:1011B00020502D682C43354D55F820502C6062E0AE
:1011C000324C54F820406468A1F10805AE000F25A8
:1011D000B540AC432D4D55F820506C601AB1032A30
:1011E00001D0022A11D10124944044F00304A1F15A
:1011F0000805AD00AC40254D55F820506D682C43D6
:10120000224D55F820506C603DE0012A01D0042A9F
:101210002AD11E4C54F820406468A1F10805AE00A4
:101220000825B5402C43194D55F820506C60012A13
:101230000CD1174C256801248C4025EA04030124B5
:101240008C401C43114D55F82050EC60042A1AD1F3
:101250000E4C54F82040E46801258D40AC430B4D02
:1012600055F82050EC600EE004249440A1F10805EC
:10127000AD00AC40054D55F820506D682C43034D32
:1012800055F820506C6070BD00100240A80000208E
:101290000C08014030B57AB10D4C54F82040E46898
:1012A00001258D4024EA050301248C401C43084D90
:1012B00055F82050EC600AE0054C54F82040E468F2
:1012C00001258D40AC43024D55F82050EC6030BDF7
:1012D000A800002010B501220C211046FFF708FFDE
:1012E00001220D211046FFF703FF01220E211046B7
:1012F000FFF7FEFE01220F211046FFF7F9FE012243
:1013000008210020FFF7F4FE01220D210220FFF743
:10131000EFFE01220E210220FFF7EAFE01220F213B
:101320000220FFF7E5FE10BD10B51948007800B99E
:1013300010BD1848006818490968884200D2F7E7CC
:1013400013480078012804D002280DD003281CD1AE
:1013500015E000F02FF80F480068401D0E490860A6
:1013600002200B49087010E000F02BF809480068D3
:1013700014300949086003200549087005E000F0B1
:1013800019F800200249087000BF00BF00BFCFE776
:1013900002000020800000200400002010B5002280
:1013A00006210120FFF7A4FE002206210120FFF7FD
:1013B00071FF10BD10B5002206210120FFF76AFF62
:1013C00010BD10B5012206211046FFF763FF10BDC6
:1013D00010B506210120FFF779FE04460CB9012063
:1013E00000E00020024606210120FFF753FF10BD58
:1013F00008B500F0E9F8FFF70DFDFFF76BFF0022DD
:101400004FF4E131104601F045FA3248324B334A8D
:1014100000210090324800F02DFA2E482E4B2F4A22
:10142000002100902F4800F025FAFFF752F8FFF74F
:1014300003FCFFF7B3FF00220A21012001F032F97B
:10144000FEF7D0FF28A201210846FFF790F929A254
:1014500001210220FFF78BF90BE0FFF7B9FF002015
:10146000009002E00098401C0090254900988842B6
:10147000F8DB244800780028EFD0FEF7B3FF27E020
:101480002048007830B1012809D002280CD0032868
:1014900010D10AE00021084600F0BEF80AE001F091
:1014A00039F9FFF7EDFB05E004E001F033F9FFF750
:1014B000E7FB00BF00BF14480078401C12490870C9
:1014C000084600780A2803DB0020087001F040FA83
:1014D000D6E700000000C842000048420000FA437E
:1014E000D000002004010020536D6172742043611C
:1014F0007200000057616974696E672E2E2E00001D
:1015000020A107007C0000200000002010B5044648
:10151000A2B20021084600F0CDFF0948027806215A
:101520000020FFF7B7FE0648007808B9012000E068
:101530000020024607210020FFF7ACFE10BD00008E
:101540006000002010B50446A2B20121002000F086
:10155000B1FF0948027800210120FFF79BFE0648F1
:10156000007808B9012000E0002002460121084669
:10157000FFF790FE10BD00006100002070B5054629
:101580000C46002D06DB01200D4908702846FFF7A8
:10159000BDFF05E000200A4908706842FFF7B6FF6A
:1015A000002C06DB0120074908702046FFF7CAFF20
:1015B00005E00020034908706042FFF7C3FF70BDDB
:1015C000600000206100002010B54FF47A72002105
:1015D000084600F061FE002206211046FFF788FD54
:1015E000002207211046FFF783FD4FF47A72012194
:1015F000002000F051FE002211460120FFF778FD87
:10160000002201210846FFF773FD0020FFF77EFF4F
:101610000020FFF797FF10BD70B505460C46002D62
:1016200008DB012011490870284602F001FA104930
:10163000086007E000200D490870684202F0F8F9E0
:101640000B490860002C08DB01200A49087020467D
:1016500002F0EEF90849086007E00020054908702B
:10166000604202F0E5F90449086070BD60000020A6
:10167000D000002061000020040100202DE9F0418D
:101680000446D4E9000102F03BFBA060206B012876
:101690002DD1D4E9020102F033FB0546616902F065
:1016A00027FA2062A168A06902F022FAA0624FF036
:1016B0008040E16802F01CFA0746A16802F015FBC1
:1016C0000646216902F048F80546E16902F010FA81
:1016D0006062A16A206A02F03FF80646616A02F081
:1016E0003BF80546E16A02F037F8E06221E0206B42
:1016F000F8B9A168606902F0FBF92062A168A069ED
:1017000002F0F6F90546A16A02F026F8A062D4E9D3
:10171000020102F0F5FA0546E16902F0E9F96062BA
:10172000A16A206A02F018F80546616A02F014F80E
:10173000E062E1682161A168E160BDE8F08100003C
:101740002DE9F0413F48007830B13F48006802F091
:101750006FF93E49486006E03B480068404202F0AD
:1017600067F93A4948603A48007830B1394800682A
:1017700002F05EF93849486006E0364800684042A9
:1017800002F056F9344948602F4B1A68002A01DBF1
:10179000134600E053422F4D2868002801DB054620
:1017A00000E04542591901EBD1735C10204602F06C
:1017B0003FF90746294902F03DF80646284902F05C
:1017C00097F9054627480168284601F0C5FF2549D5
:1017D0000860204602F02CF90746204902F02AF85A
:1017E00006461F4902F084F905461F48016828464D
:1017F00001F0B2FF1C4908601C4804600020124937
:101800000860144908601A480078C8B10F48FFF70B
:1018100035FF1148FFF732FF0C4800F03DF80E4845
:1018200000F03AF80949C86A02F0C6F80546FFF721
:101830006DFE0949C86A02F0BFF80546FFF782FE4F
:10184000BDE8F0816000002064000020D00000208E
:101850006100002068000020040100200000A04179
:10186000D95CA34170000020880000206C0000209B
:101870007D00002070B5049C016342618361C461F6
:1018800000250560456085600026C660066105622A
:1018900085624562C56270BD10B504460749E06ABD
:1018A00002F0F2F901D80548E0620021E06A02F096
:1018B000EBF801D80020E06210BD00000050434763
:1018C0002DE9F04D1D460C4698B0174621F0004119
:1018D00023F00043002814BF4FF0010C4FF0000C20
:1018E0000CEB440CFE4A0CEB02064FEA620C664518
:1018F0002BD33E0018BF012606EB45061644F94AD5
:10190000964222D3F84A53EA070C02D0944205D1FA
:1019100048B918B000201146BDE8F08D002808BF76
:101920004FF0000C01D04FF0010C0CEB440212F50B
:10193000001F0AD8002F14BF4FF0010C4FF0000C0D
:101940000CEB450212F5001F07D918B03A462B469A
:101950002146BDE8F04DFFF755B90022DFF88CA312
:10196000002CB8BF534526DADFF884C36345A8BF0F
:10197000022220DADFF870C39C451CDCDFF874C358
:101980000CEB235CBCF1140F08DDCCF1340627FA14
:1019900006FC0CFA06F6BE420DD108E05FB9CCF1A8
:1019A000140623FA06FC0CFA06F69E4203D10CF04C
:1019B0000102C2F1020251EA000C19D1002D17DA1E
:1019C000002C18BF022A01D0012A07D00220FEF7FE
:1019D00005FC18B0BDE8F04DFFF70CB90220FEF78A
:1019E000FDFBFFF707F918B081F00041BDE8F08D6D
:1019F000B7F1000C6CD1534525D104F1804212F5AA
:101A0000801201BF00280020B74918B008BFBDE808
:101A1000F08DB548884207DC002DA1BF60462946FD
:101A200018B0BDE8F08D07E0281E05DA80F000410F
:101A300018B06046BDE8F08DAF497944D1E90001A6
:101A400018B0BDE8F08DDFF8A0C2634525D1002DA8
:101A50001FDA19B1514512D1D8B909E0002840F078
:101A6000EC82A24A214618B062F31E01BDE8F08D57
:101A70000020214618B060F31E01BDE8F08D08DAA1
:101A800018B02346BDE8F04D02460020614601F043
:101A900039B918B02146BDE8F08D514518DAB5F1D5
:101AA000804F0DD0A5F1005CBCF1FF5C10D1B4F10A
:101AB000000C0DDB18B06146BDE8F04D00F0CCBD68
:101AC000234618B00246BDE8F04D194601F008BBA8
:101AD000060024F0004C3BD1D9B1514533D1002C44
:101AE00006DD002DA1BF0020514618B0BDE8F08DE5
:101AF000002C01DD002D1BDB002C13DA002D11DB87
:101B0000012A4FF0000014BF78497C4918B0BDE8A5
:101B1000F08D022A18BF002C0AD0012A08D1002C0F
:101B200006DA0AE0002CB8BF002D11DA012A04D031
:101B3000002018B00146BDE8F08D18B000204FF02D
:101B40000041BDE8F08DA1F14050B0F17F601AD0A6
:101B5000012000EBE47050EA020421D0624C521ED6
:101B60004FF0000B104304BF4FF0000B644C65486E
:101B700083427CDD644A654893421FDD884217DB5F
:101B8000002D25DB37E0002C00DA4AB1022A0CBF19
:101B900001204FF0FF3018B0BDE8F04D01F039BA28
:101BA0000120FEF71BFB18B0BDE8F04DFFF72CB885
:101BB0004D4A8A4202DC002D0ADC1CE0814202DA36
:101BC000002D18DA04E0484B994220DD002D12DD8B
:101BD0000220FEF703FBFFF71DF805460E46002224
:101BE00053465846214601F07BFA18B066F31E01B1
:101BF0002846BDE8F08D0220FEF7F0FAFFF712F854
:101C00000A46214618B062F31E01BDE8F08D00229D
:101C10003046614601F08AFC80460E466FF00102B4
:101C200002F015F94FF05532394B01F08DFB424669
:101C3000334601F055FA0022364B01F085FB82460F
:101C40004246334604911046194601F049FA52467D
:101C5000049B01F045FA8A4600904FF0C0422E4B9B
:101C60004046314601F03CFA2C4A2B4B00E027E07D
:101C7000CDE906015146009801F032FA8246019101
:101C8000274A284B4046314601F02AFA5246019B2A
:101C900001F04CFC82460B4602460591DDE9060147
:101CA00000F074FFDDE9062300268846304601F087
:101CB0003DFC5246059B01F047FB024600F07EB911
:101CC0000020B1F5801F07DA35223046614602F068
:101CD000BEF806466FF0340000EB215024E000000F
:101CE000FFFF1F00FFFF0F000000F03F0000F07F2C
:101CF0000000404301FCFFFF3A2B00000000F0FF12
:101D00000000F0BF0000E0410000F043FFFFEF3FA4
:101D10005555D53F0000E03F4715F73FFE822B6544
:101D200044DF5DF80BAE543EA0F2FF300190C1F3EA
:101D3000130040F07F6141F040510291FE4988421A
:101D4000D8BF002004DDFD498142C8BF012001DD6C
:101D50000D9008E000200D900198401C0190029821
:101D6000A0F5801002900299F54878440B910D99E6
:101D700000EBC100D0E900230F9330460A920B9983
:101D800001F0D4FBCDE90601DDE90A2130460F9BC5
:101D900000F0FCFE02460B460020EA4900F0B2FFCC
:101DA000059102460B460090DDE9060101F098F925
:101DB0001490E5488A464FF000087844029900687C
:101DC00012904FF0005040EA61010D980F9B01EB1B
:101DD000804000F5002109910A9A129801F0A6FBB3
:101DE00032460B9B01F0B0FA4246534601F078F9B7
:101DF0000646029140465146099B129A01F070F93D
:101E0000DDE9062301F0A0FA3246029B01F08EFBC9
:101E1000059B009A01F064F90091149A04905346CE
:101E20001046194601F05CF906460246C7480B46C3
:101E3000029106217844FEF787FECDE90510029B4A
:101E400032461046194601F04BF9DDE9053201F042
:101E500047F905910646534640461946149A00F044
:101E600095FE009B049A01F03BF93246059B00F079
:101E70008DFECDE90510424653461046194601F045
:101E80002FF90022B24B02910A9000F07FFEDDE9AB
:101E9000053200F07BFE0E464246AD4B404601F057
:101EA00045FB029B0A9A01F041FBDDE9053201F096
:101EB0004BFA424602910A9033461046514601F0D1
:101EC0000FF9CDE906015346149A02990A9801F0D8
:101ED00007F98A460290334642460099049801F079
:101EE000FFF85346029A00F051FE82460B46024626
:101EF0000591DDE9060100F049FEDDE90623002039
:101F00008846064601F012FB5246059B01F01CFA7A
:101F1000824609914FF060428E4B3046414601F0B7
:101F2000DFF8049006918C4A8A4B5046099901F0DB
:101F3000D7F882460291894A894B3046414601F0E2
:101F4000CFF85246029B00F021FE864B7B440D9A4F
:101F500003EBC203D3E9002300F018FE0E900791B3
:101F6000019801F056F80591DDE9061382460E9AB4
:101F7000049800F00BFE7C4A7A440D9B02EBC303ED
:101F8000D3E900230093029200F000FE5246059B25
:101F900000F0FCFD0026884652463046059B01F0C5
:101FA000C5FA009B029A01F0C1FA069B049A01F05F
:101FB000BDFA079B0E9A01F0C7F9024600200B46B6
:101FC00002903846294601F08BF8824601912B4653
:101FD00038461946029A01F0A9FA3246434601F002
:101FE0007FF85246019B00F0D1FD07468A463246F3
:101FF00043462946029801F073F805460E463A46D4
:10200000534600F0C3FD594A8846914221DBA8EBB4
:10201000020353EA000210D12A46334601F086FA41
:10202000CDE90401524A534B3846514600F0AEFD0B
:10203000DDE9042301F052F921D20220FEF7CEF8A7
:10204000FEF7E8FD0A46214618B062F31E01BDE81E
:10205000F08D494B28F000429A4210D3474A08EBD2
:10206000020353EA00027FF4C6AD2A46334601F06C
:102070005DFA3A46534601F031F97FF6BCAD0022D5
:10208000019228F000403E493E4A01EB2051824235
:1020900023DA481C4FF4801121FA00F040443A4AF8
:1020A000C0F30A517A44394BA1F2FF31CB4020EA08
:1020B0000303C0F3130040F48010C1F11401C840C1
:1020C00012680190B8F1000FBCBF40420190284651
:1020D000314601F02BFA05460E462A46334638466D
:1020E000514600F053FD4FF000084246284B404651
:1020F000059100F0F5FFCDE90601264A264B404642
:10210000059900F0EDFF009102902A4633464046C3
:10211000059901F00BFA3A46534601F015F91F4AAA
:102120001F4B00F0DDFF009B029A00F02FFD0746D9
:10213000884602460B4635E08E9803007AB60B00BF
:10214000822700000000F03FBA270000E8260000C8
:102150000000084009C7EE3FFD033ADCF5015B14BF
:10216000E02F3EBEC0250000842500000000904006
:10217000FE822B654715973C00CC904000346F3FA2
:1021800001FCFFFF0000E03FD0240000FFFF0F0034
:10219000432EE63F396CA80C615C20BEEF39FAFE95
:1021A000422EE63FDDE9060100F0F0FCDDE9062302
:1021B00005460E4601F0BAF93A46434601F0C4F826
:1021C0000F462A46334600901046194600F088FF15
:1021D000824602462E4888460B4605217844FEF783
:1021E000B3FC5246434600F07BFF2A46334601F0DB
:1021F000ABF880468A463B4628463146009A00F0B6
:102200006FFF3B46009A00F0C1FC0691009000224F
:102210004FF080434046514601F088F90F460C903C
:10222000424653462846314600F05AFF3B460C9A38
:1022300000F068FD069B009A01F078F92A463346C3
:1022400001F074F90022134B01F07EF80546019865
:102250000E4601EB00510815002810DC28463146D7
:10226000019A01F0F4FDFEF75BFC042808BFFEF7BD
:10227000D9FC28463146019A01F0E9FD05460B4696
:1022800018B02A4658462146BDE8F04D00F028BF58
:10229000702300000000F03F2DE9F04104460D4698
:1022A00016462846E91705EB91718910A5EB8101C7
:1022B000491CCFB25148C0690121A14008434F4990
:1022C000C8614F4890FBF6F0401E4E4951F824106B
:1022D000888547204B4951F824100885284600F08E
:1022E00093F8012F06D0022F1ED0032F36D0042FD3
:1022F00069D14DE0434850F82400008B40F0600065
:10230000404951F8241008833E4850F82400008BBF
:1023100040F008003B4951F8241008830020394957
:1023200051F8241088864EE0364850F82400008B7F
:1023300040F4C040334951F824100883314850F824
:102340002400008B40F400602E4951F824100883CB
:1023500000202C4951F82410088734E0294850F80F
:102360002400808B40F06000264951F824108883B7
:10237000244850F82400808B40F00800214951F88F
:102380002410888300201F4951F8241088871AE000
:102390001C4850F82400808B40F4C040194951F883
:1023A00024108883174850F82400808B40F4006084
:1023B000144951F8241088830020124951F8241040
:1023C000A1F8400000BF00BF0E4850F82400008C68
:1023D000791E8A000121914008430A4951F82410CE
:1023E0000884084850F82400008840F0810005491E
:1023F00051F824100880BDE8F08100000010024070
:1024000040420F00B400002010B504460C2C4FD2FF
:10241000DFE804F0060C12181E242A30363C42482D
:10242000032200210846FEF763FE41E0032201215A
:102430000020FEF75DFE3BE0032202210020FEF7B4
:1024400057FE35E0032211460020FEF751FE2FE033
:10245000032206210020FEF74BFE29E0032207217C
:102460000020FEF745FE23E0032200210120FEF7B5
:102470003FFE1DE0032201210846FEF739FE17E06A
:10248000032206210120FEF733FE11E0032207217B
:102490000120FEF72DFE0BE0032208210120FEF7AC
:1024A00027FE05E0032209210120FEF721FE00BFDF
:1024B00000BF10BD2DE9F84F04460D4617462846CB
:1024C000E91705EB91718910A5EB8101491C01F019
:1024D000FF084CF25030874200DB0746384850F87E
:1024E0002400868DB8F1010F09D0B8F1020F1DD07C
:1024F000B8F1030F31D0B8F1040F5DD144E0701C86
:1025000001F096FA8346384601F0AAFA2D49009068
:1025100001F090F98246594601F0EAFA814601F04D
:1025200067FA274951F82410888645E0701C01F0AD
:102530007FFA0090384601F093FA8346214901F072
:1025400079F98246009901F0D3FA814601F050FAF8
:102550001B4951F8241008872EE0701C01F068FA1E
:102560000090384601F07CFA8346164901F062F982
:102570008246009901F0BCFA814601F039FA10490F
:1025800051F82410888717E0701C01F051FA009070
:10259000384601F065FA83460A4901F04BF9824654
:1025A000009901F0A5FA814601F022FA044951F898
:1025B0002410A1F8400000BF00BFBDE8F88F000064
:1025C000B40000200050434710B5044618490C7071
:1025D0001CB1012C01D0032C24D100201549087016
:1025E00015490860154908601548006815490860D4
:1025F000002015490860154908601549C862154949
:10260000C8621349886213498862114988600021B1
:102610000F48C160016100200E49886000210D480B
:10262000C16001611CB900210846FEF7A7FF10BD7B
:102630007C00002084000020880000207000002022
:10264000800000208C0000209400002098000020D2
:10265000D0000020040100202DE9F04106460F467D
:1026600000F07EFE041E0D4618BF0120284320F016
:102670000040C0F17F6000F1E040C00F0ED0301C80
:1026800018BF0120384320F00040C0F17F6000F106
:10269000E040C00F04BF0120FDF7A0FD2046294601
:1026A000BDE8F08170B504460D4616461748C0696E
:1026B0000121A14008431549C86105EB8500400090
:1026C000401E134951F82410888541F61F401049D7
:1026D00051F8241008850E4850F82400008840F076
:1026E00001000B4951F824100880094850F82400D3
:1026F000808940F00100064951F82410888104F1D6
:102700001C00C1B23046FDF747FE70BD001002400C
:10271000B40000202DE9F047FEF7BCFC04464FF062
:10272000500840F2E73084422ED12F480068401C08
:102730002D49086008460068052805DC41464046EA
:10274000FEF76AFFBDE8F08727480068962804DD99
:102750001E210846FEF760FFF4E7244800680028C1
:1027600004DA41461E20FEF757FF0CE01F480068C0
:10277000002804DD1E214046FEF74EFF03E04146DF
:102780004046FEF749FFDDE7002019490870164969
:102790000860002C01DA604200E02046814609EB27
:1027A0008900A8EB00051E2D00DA1E25002C06DA94
:1027B00004EB4400461904EB44002F1A05E004EB37
:1027C00044002E1A04EB440047191E2E00DA1E2680
:1027D0001E2F00DA1E270548046039463046FEF7F2
:1027E0001BFF00BFAEE7000098000020940000200F
:1027F0009C0000202DE9F04F89B081468A46B9F14E
:10280000000F01D11F4C00E01F4C4FEA0A1094FB4F
:10281000F0FB584600F014FCCDE90401504600F0EE
:10282000F8FB07460022194B00F05AFC05460E46FD
:10283000204601F0FDF8074600F062FF2A463346C5
:10284000CDE9000100F05EFACDE90201DDE90423E3
:1028500000F06CFECDE9060100F066F908904FF03B
:102860008341089801F044F90890089801F0C0F8F5
:1028700000EB0B10064951F82910088109B0BDE89A
:10288000F08F000000A24A040051250200003040F1
:10289000C000002070B504460E46154634B91448F1
:1028A000806940F480401249886108E01048C0699E
:1028B00004F1100101228A4010430D49C8612046ED
:1028C00000F01AF831462046FFF794FF094850F807
:1028D0002400808942F22C010843064951F8241053
:1028E000888104F12500C1B22846FDF755FD70BD71
:1028F00000100240C000002010B5044624B1012C95
:102900000DD0022C21D115E0032209210020FEF771
:10291000EFFB04220A210020FEF7EAFB15E0032268
:1029200002210020FEF7E4FB042203210020FEF731
:10293000DFFB0AE003220A210120FEF7D9FB042273
:102940000B210120FEF7D4FB00BF00BF10BD00002B
:102950002DE9F84358A201210846FDF708FF574822
:10296000007830B101280AD002280ED0032818D1EF
:1029700011E053A203210120FDF7F9FE11E052A25C
:1029800003210120FDF7F3FE0BE051A203210120FA
:10299000FDF7EDFE05E050A203210120FDF7E7FE63
:1029A00000BF00BF4EA209210120FDF7E0FE012378
:1029B0004C4802780B211846FDF784FE4A4800680F
:1029C0004A490968401A00EB800044004EF6602036
:1029D000B4FBF0F7B4FBF0F100FB11404FF47A7157
:1029E000B0FBF1F642A201210220FDF7C0FE022356
:1029F0003A4603211846FDF765FE3EA20521022056
:102A0000FDF7B5FE0223324606211846FDF75AFEB1
:102A100039A209210220FDF7AAFE0120032300901C
:102A200036480B2102680220FDF700FE34A2012186
:102A30000320FDF79CFE0323334805210268184656
:102A4000FDF740FE3148007868B33148007850BB4C
:102A500030480078062826DC2F4800780D2822DC34
:102A60002E482C49097850F821802D482A490978A8
:102A700050F8219000252BA201210420FDF777FEBC
:102A800001E0681CC5B218F805000028F9D14246DB
:102A900003210420FDF76BFEE81CC1B24A46042066
:102AA000FDF765FE00BF194800781949087000203D
:102AB00016490870BDE8F8834D3A00007C000020FC
:102AC00049444C4520000000424153494300000066
:102AD0004D414E20200000005649532020000000A8
:102AE0004C3A000084000020800000208C00002070
:102AF000543A00003A000000443A00007000002000
:102B00005350443A000000006C0000209200002066
:102B1000010000209000002091000020080000200B
:102B200024000020503A000021F00042A2F160523F
:102B3000B2F5801F01F0004328BFD2F17F6C0BD9A2
:102B40005FEA001C43EAC20242EB507018BF7047B4
:102B500028BF20F001007047B2F5801FBCBF1846A7
:102B600070474FEA410C1CF5001F02D2084601F0E5
:102B700086B870B500F05EFB00000089FFF7F6BF75
:102B80004FF00040A0F580007047000010B591EABA
:102B9000030F48BF83F0004300F1D084841A71EB27
:102BA000030C05D2121943EB0C03001B61EB0C0163
:102BB000DFF824E14FEA1154A4EB135C1EEA430F43
:102BC00018BF9EEA445F73D023EA0E03DCF1200EA7
:102BD00021EA045143F4801332D322FA0CFE10EBA5
:102BE0000E0023FA0CFE41EB0E01CCF1200E03FA8D
:102BF0000EFE10EB0E0051F10001B1F5801FCCF17B
:102C0000200E32D201EB045112FA0EF2BDE8104050
:102C100058BF7047401C38BF5FEA420218BF704778
:102C2000002814BF20F0010041F100014FEA4103E8
:102C300013F5001F38BF7047A1F1C04100F048BB39
:102C4000012A43EB0302ACF1200CDCF11F0E32BF72
:102C50004FF0000E23FA0CF310EB030041EB04518C
:102C6000B4EB115FD0D0A1EB045101F580114908FC
:102C70005FEA300001EB04510ED350F1000038BF81
:102C800012FA0EFE08D1BDE81040C9E7401C38BF5B
:102C90005FEA4202CAD1C3E7BDE810404FEA4103F0
:102CA00013F5001F38BF7047A1F1C04100F010BB01
:102CB0009EEA445F08D011EA5E0FBDE8104004BFF1
:102CC00001F0004100207047BDE8104070B500F0F1
:102CD000B1FA00BF64FBBE3E0000E0FF02494FF0C6
:102CE000000001F082B800BF0000F87F491058BF13
:102CF000C1F140415B1058BFC3F140438B42EFF339
:102D0000008070472DE9C04130B4DFF8A0C23CEA32
:102D1000111418BF3CEA131400F0EC8081EA03059B
:102D20001CEA111444EAD57418BF1CEA131500F00C
:102D3000C780A4EB05044FF0004545EAC12145EAF0
:102D4000C32341EA505143EA525304F17F7499423C
:102D500004F500344FEAC0204FEAC22208BF904277
:102D600000F09C804FEA13650FF24016765D4FEA43
:102D7000134506FB05F7C7F1807706FB07F74FEA17
:102D8000D737A7FB03687642C8F58038A7FB06CE85
:102D900038BFA8F1010807FB08E64FF0000EA6FBBC
:102DA000028CE6FB03CEDCF1000CCEF1004E38BF06
:102DB000AEF1010EA6FB0C584FF000074FF00005D6
:102DC000E6FB0E87A1FB08C6A0FB07CE16EB0E069E
:102DD00045F10005E1FB076515F1E04E7EBFA4F566
:102DE00080345FEA46066D4116F1800745F1000523
:102DF0004FEA17274FEA066647EA0567A6F1DE465F
:102E0000B6F1805F4FEA15251FD9384624F0010C32
:102E100005EBC471BCF1FE6F01EB0C1102D8F0BCE4
:102E2000BDE8008124425CBF01F5801E9EEAC47F9C
:102E300002D4F0BCBDE80081244238D4F0BCA1F13A
:102E4000C041BDE8004100F043BA4FEAD22242EA55
:102E500043524FEAD323A7FB02864FEAD02040EA31
:102E6000415007FB03661EEA0E0F4FEAD12105FB16
:102E7000026658BFA6EB0056B6EB00564FEA520E5C
:102E80004EEAC37E18EB0E0E56EB530EBDD518EB73
:102E900002085E417F1C55F10005B6E74FF480152E
:102EA0004FF000074FF000064FF00008ADE7F0BC10
:102EB0004FF0000001F1C04101F00041BDE8008188
:102EC00011EA0C1F0CEA131500D00CE013EA0C1FDA
:102ED00000F025804FF00000F0BC81EA030101F012
:102EE0000041BDE80081F0BCBDE8004181EA03017A
:102EF00000F0EEB9F0BCBDE8004170B500F09AF901
:102F0000097EFC3E00F007B881EA03014FF00000A3
:102F100001F00041704781EA030100F0D9B9F0BC2B
:102F2000BDE800414FF0000021497047FFFDFBF96B
:102F3000F7F5F4F2F0EEEDEBE9E8E6E4E3E1E0DEEC
:102F4000DDDBDAD8D7D5D4D3D1D0CFCDCCCBCAC85E
:102F5000C7C6C5C4C2C1C0BFBEBDBCBBBAB9B8B785
:102F6000B6B5B4B3B2B1B0AFAEADACABAAA9A8A878
:102F7000A7A6A5A4A3A3A2A1A09F9F9E9D9C9C9B46
:102F80009A999998979796959594939392919190F1
:102F90008F8F8E8E8D8C8C8B8B8A89898888878782
:102FA0008685858484838382828181800000FF07F7
:102FB0000000F87F4FEA41034FEA5353A3F58063C3
:102FC000D3F11E03C8BFD3F1210C0CDD4FF000423A
:102FD00042EAC12242EA505232FA03FC8CEAE17C16
:102FE000ACEBE1707047102BC4BF0020704703F5B5
:102FF000787CBCF1FF3F04D06FF0004282EA2100F0
:10300000704770B500F016F949922480002070478F
:10301000F2E710F0004248BF4042B0FA80F310FAE5
:1030200003F10AD0C3F11D0303F580634FEA415059
:1030300002EB035202EBD12170474FF000007047C2
:10304000B0FA80F310FA03F10AD0C3F11D0303F5BF
:1030500080634FEA41504FEA035202EBD12170479F
:103060004FF000007047000051EA030C17D41CF524
:10307000801F58BFBCF5801F00F10680994218BF21
:10308000704708BF9042704707D711F5801F58BF9F
:1030900013F5801F19D499427047894270471CF577
:1030A000801F08D5BCF5801FF7D58B4218BF70472D
:1030B00008BF824270474FF4001C1CEB410F38BF21
:1030C0001CEB430F01D28B42704770B500F0B2F891
:1030D000922449004FF000514FF08053FFF706BE95
:1030E000DFF848C170B51CEA111E1EBF1CEA13159B
:1030F0009EEA0C0F95EA0C0F00F06F8081EA030442
:1031000023EA4C134EEAD47E21EA4C1141F480119B
:1031100043F48013AE44A1FB024CA0FB0365AEF167
:103120007F7E361955EB0C05A1FB034C4CF10003D7
:10313000A0FB021C16EB0C06654153F1000309428B
:1031400018BF46F0010613F4007F0BD14FEA03319C
:103150004FEA0530340341EA155140EA16506FF04A
:1031600003020AE04FEAC3214FEAC520F40241EA14
:10317000555140EA56506FF0020202EB2E4201EB2D
:10318000025585EACE710AD05FEA440C18BF24F0DC
:10319000004450F1000041F1000120EAD47040F2F7
:1031A000FE7C624500D270BDA84214BF4FF080443F
:1031B0004FF04044002E08BF0024BEF1806FA8BF2E
:1031C000A1F1C041BDE8704080F282804FF0000064
:1031D00001F1C04101F0004170479EEA0C0F0CEA7A
:1031E000131518BF95EA0C0F06D04FF0000081EAC6
:1031F000030E0EF0004170BD00F01CF88900013E86
:1032000000F007B800F009B84FEA430C5FEA5C5CD5
:1032100008D081EA030100F05BB84FEA410C5FEA95
:103220005C5CF6D14FF00000014970470000FF07D9
:103230000000F87F0EF1020E2EF0030E5EF8046B14
:10324000364205D4012A43EB030515F5001F12D8B9
:10325000012841EB010C1CF5001F0CD80ED14FEAE0
:10326000D17C15F5001F0CEB4C0C0CF1020C08BFC7
:103270004CEBD37C04E04FF0080C01E04FEAD37C28
:103280000CEB4C0526FA05F606F00706B6F1040C21
:1032900006D20EEB860CBDE870404CF0010C604786
:1032A000DFE80CF0090B02024FF000414FF0000084
:1032B000A1F5002170BD19461046012851EB01040B
:1032C00018BFD4F5001484BF002001F0004170BD88
:1032D0000808A0F500114FEA3101704753EA010CCC
:1032E00017D41CF5801F58BFBCF5801F00F1068065
:1032F0008B4218BF704708BF8242704707D713F54B
:10330000801F58BF11F5801F19D48B4270479B4214
:1033100070471CF5801F08D5BCF5801FF7D5994272
:1033200018BF704708BF904270474FF4001C1CEB59
:10333000430F38BF1CEB410F01D2994270470FB4C5
:103340000CBC03BCFFF7C1BE91EA030F10B581F0BE
:1033500000413FF523AC83F0004300F0EFB80000DC
:103360002DE9F04101F5801CBCF5001FC0F2C380BF
:103370004FEA115C21EA0C510CF1FD0C41F4801173
:103380005FEA5C0C0CF5C07C01D3400049413DA4D0
:10339000890241EA905187028E0E0A0CA45D04FB5B
:1033A00004F602FB06F6C6F14046A4FB0662F60DE3
:1033B00046EA422606FB06F4A4FB01235242C3F16F
:1033C000404338BF5B1EA6FB02420024E6FB0324F9
:1033D000D20B42EA4446A6FB0623A1FB02E2A3FB72
:1033E00007E4A4184FF0000252F10002E3FB01428F
:1033F0006442C2F1404E38BFAEF1010EA6FB042379
:103400004FF00002E6FB0E32A2FB03464FF0000431
:10341000B61954F10004E2FB0264A1FB06E6A4FB2A
:1034200007E816EB08064FF0000858F10008E4FB27
:1034300001687642C8F1405838BFA8F10108A2FBE4
:1034400006E4A3FB08E52D194FF0000454F1000435
:10345000E2FB0854A1FB05E6A7FB04E818EB06080D
:103460004FF0000656F10006E1FB048618F1200536
:1034700056F10006A809A8F11B08B10908F03F0899
:10348000B8F10A0F40EA86601CD901EB0C51BDE887
:10349000F08100BFFCF5EEE8E2DDD8D3CFCBC7C3A7
:1034A000C0BDB9B6B4B1AEACA9A7A5A3A19F9D9B61
:1034B0009A9896959392908F8D8C8B898887868524
:1034C00084838281A0FB006800FB01F208EB4208C4
:1034D000B8EB872807D5341858EB0104D5D5401C24
:1034E00051F10001D1E7341A78EB0104CDD4401E2C
:1034F00071F10001C9E75FEA4C0C5FEA9C5C0DD1F9
:1035000005D34FF0000001F00041BDE8F081BDE8B7
:10351000F04170B5FFF78EFE6DDBFFBEBDE8F041F8
:103520004FF00000004970470000F87F10B591EAA5
:10353000030F48BF83F000433FF530AB841A71EBB3
:10354000030C07D212198CF0004C43EB0C03001B48
:1035500061EB0C01DFF8A4E14FEA1154A4EB135C1A
:103560001EEA430F18BF9EEA445F00F0B08023EAD2
:103570006E03524221EA0451C3EB6E0338BF5B1E57
:10358000DCF1200E25D322FA0CFE10EB0E0043FADC
:103590000CFE41EB0E01CCF1200E03FA0EFE10EBF7
:1035A0000E0051F10001CCF1200E29D412FA0EF2D6
:1035B00001EB0451BDE8104058BF7047401C1CBFD0
:1035C000B2F1004F704700280CBF491C20F00100E9
:1035D000704712EB020E43EB030218BF4FF0010ECF
:1035E0004EEA4202ACF1200CDCF11E0E54D943FA33
:1035F0000CFE10EB0E0051F1FF31CCF11E0ED5D5B3
:103600000EF1010E12FA0EFE404141EB010101EBF9
:10361000445C5FEA5C5C10D910EBDE7001EB045196
:1036200038BFBEF1004FBDE8104018BF70470028FA
:103630000CBF491C20F00100704730D24FEAD42C57
:1036400011F5001124F400641BD0B1FA81F20B3A99
:10365000A41AA41ED2F12003914030FA03F31943B7
:10366000904001EBCC71002C01EB0451BDE81040FF
:10367000A8BF704701F1C0414FF0000001F00041C8
:103680007047B0FA80F310FA03F100D110BDE41ACC
:10369000173C4805C90AE4E701EB045110BD491085
:1036A00001EB0451BDE810404FEA300002E04FF05A
:1036B000000170474A0008BF0042F8D0B2F5001F71
:1036C00028BF704701F000414FF0000070479EEAAC
:1036D000445F07D011EA5E0FBDE8104004BF00212F
:1036E00000207047BDE8104070B5FFF7A3FD00BF94
:1036F00040DFF63E83F00041104670470000E0FFD7
:1037000043004FEAD30C4FEA3C0C43401FBF400735
:103710000CF1605113F0FE4F70471CF0006F03D1A5
:1037200000200CF0004170470CF0004343EA507059
:1037300010B540EACC0000F05CFA00BF0000009237
:103740004FEA0001FFF7C4BD4FF000414FF0000009
:10375000A1F500217047000090EA010F48BF81F0F9
:10376000004100F1D482421A3CBF801A89184FEA06
:10377000D0524FF07F4C1CEA410FA2EBD15318BF3F
:103780009CEA026F00F03B804FF0004C4CEA0020B6
:103790004CEA012121FA03FC10EB0C0C1ED202F1C1
:1037A000FF325FEA1C2040EBC25038BF70471CF06C
:1037B0007F0F4FEA400C18BFBCF17F4F38BF7047F6
:1037C000C3F12003994008BF20F00100BCF17F4FF6
:1037D00038BF7047A0F1C04000F051BA4FEA3C003A
:1037E000000A40EBC25028BF1CF0FF0F4FEA400C0C
:1037F000E6D018BFBCF17F4F38BF7047EAE79CEABC
:10380000026F05D010EA5C0F08BF00F0004070475F
:1038100010B500F0EEF900BF64FBBE3E401058BF8B
:10382000C0F14040491058BFC1F140418142EFF31F
:10383000008070474FF47F0C1CEAD0121EBF1CEAB8
:10384000D11392EA0C0F93EA0C0F00F0858090EAF6
:10385000010F48BF42F4807240F4000C41F40000B4
:103860002CF07F4120F07F4000B58142A2EB0302A3
:103870000FF2081CACEB504EC0F100009EF800E0C7
:103880004FEA4E0E00FB0EFC38BF49004FEA2C1CDD
:1038900002F5FA020CFB0EF34FEACE1E4FEA112C92
:1038A0004FEAC1210EEB635E42EB22420EFB0CFCA1
:1038B0004FEA1C5300FB03114FEA112C4FEA013170
:1038C0000EFB0CFC4FEADC4C00FB0C11C14228BF84
:1038D00009184CEB03335DF804EB10EB410143EBAB
:1038E000C250B2F57C0F38BF704729D512F0F00FE7
:1038F0001CBF00F1C04000F000407047008182838F
:103900008485868788898B8C8D8E8F9192939596EE
:1039100097999A9C9D9FA0A2A3A5A7A8AAACAEB078
:10392000B2B3B5B7B9BCBEC0C2C5C7C9CCCED1D47D
:10393000D7D9DCDFE2E6E9ECF0F3F7FAFE000000AD
:103940004FEA400C0CF1807CBCF17E4F28BF7047E1
:10395000B0F1C04000F093B990EA010F0CEAD11326
:1039600048BF42F48072624538BF634507D213F402
:103970007F0F16D080EA010000F00040704710B5BC
:1039800000F037F9097EFC3E00F005B880EA01003E
:1039900000F00040704780EA010000F0004000F0B5
:1039A0006EB912F47F0F04BF0248704780EA01002D
:1039B00000F065B90000C07F41000B0ED3F19E02FC
:1039C00008D950F400034FEA032323FA02F048BF5A
:1039D0004042704710B500F00CF900BF49922480B6
:1039E000002070476FF0004282EA2000704700001C
:1039F000C10DD1F19E0206DB4FEA002343F00043E4
:103A000023FA02F07047004207D54FEA4001B1F1B6
:103A1000FE4F02D24FF00000704710B500F0E9F8F9
:103A200049922480002070476FEA20007047000010
:103A300010F0004148BF4042B0FA80F310FA03F2A0
:103A4000C3F19D030BD051EAC35101EB1220530681
:103A500038BF704700F1010008BF20F00100704737
:103A6000B0FA80F310FA03F2C3F19D030AD0D9052E
:103A700001EB1220530638BF704700F1010008BF68
:103A800020F001007047000050EA010C00F11380A3
:103A90001CF5000F58BFBCF5000F01D488427047D9
:103AA00007D710F5000F58BF11F5000F15D4884245
:103AB0007047894270471CF5000F04D5BCF5000F14
:103AC000F7D5814270474FF0807C1CEB400F38BF28
:103AD0001CEB410F01D28142704710B500F089F80C
:103AE000922449004FF000504FF08051FFF796BEEE
:103AF0004FF47F0C1CEAD0121EBF1CEAD11392EACD
:103B00000C0F93EA0C0F00F0478090EA010F48BFBA
:103B100042F480724FF0004C4CEA00204CEA012144
:103B200002EB0302A0FB0113A2F50002002918BF5B
:103B300043F001035B0028BF4FEA330342EB22420C
:103B40005FEA132C4CEBC2502EBFBCEB436FB2F5B7
:103B50007C0F70474FEA036CBCF1004F08BF20F0A8
:103B60000100B2F57C0F38BF70470BD582F0FF0221
:103B700012F5803FC8BF704700F1C040D8BF00F0C9
:103B80000040704700F5000C5FEA4C0C48BF7047DE
:103B9000B0F1C04000F073B890EA010F0CEAD11305
:103BA00048BF42F48072624538BF634504D280EA60
:103BB000010000F00040704710B500F01AF800BF97
:103BC0008900013E00F007B800F009B85FEA410C37
:103BD0005FEA1C6C08D080EA010000F050B85FEA90
:103BE000400C5FEA1C6CF6D14FF00040A0F580005D
:103BF00070470EF1020E2EF0030E5EF8044B2442C5
:103C000004D44FEA4102B2F17F4F11D84FEA40038A
:103C1000B3F17F4F0CD80ED14FEAD07CB2F17F4F79
:103C20000CEB4C0C0CF1020C08BF4CEBD17C04E00B
:103C30004FF0080C01E04FEAD17C0CEB4C0324FA66
:103C400003F404F00704B4F1040C06D20EEB840C68
:103C5000BDE810404CF0010C6047DFE80CF00708AD
:103C600002024FF00040A0F5800010BD084642005F
:103C700018BFD2F1807288BF00F0004010BDFF2154
:103C800041EAD050C005704751EA000C00F11380A2
:103C90001CF5000F58BFBCF5000F01D481427047DE
:103CA00007D711F5000F58BF10F5000F15D481424A
:103CB0007047894270471CF5000F04D5BCF5000F12
:103CC000F7D5884270474FF0807C1CEB410F38BF1E
:103CD0001CEB400F01D28842704780EA010081EA64
:103CE000000180EA0100FFF7F8BE80F0004090EA92
:103CF000010F7FF538AD81F0004100F008B80000F9
:103D000090EA010F48BF81F000413FF52CAD421A07
:103D100004D882F00042A0EB020011444FEAD052D6
:103D20004FF07F4C1CEA410FA2EBD15318BF9CEA25
:103D3000026F4AD04FF0004C4CEA00204CEA0121BF
:103D400021FA03FCB0EB0C0C0FD412F0FE0F36D0AE
:103D50005FEA4C001DD5001240EBC25038BF7047DF
:103D60001CF03F0F18BF70470BE0A2F101025FEAA1
:103D70001C2040EBC25038BF70471CF07F0F18BFAB
:103D80007047C3F12003994014BF401E20F001008A
:103D9000704780084FEA122308BF7047B0FA80FCD2
:103DA000A2EB0C02CCF1280C60FA0CF093EA122F73
:103DB00004BF00EBC25070474FEAC3707047130A4C
:103DC0005FEADC1008BF7047F6E79CEA026F04D098
:103DD00010EA5C0F08BF0020704710B5FFF709FF1D
:103DE00040DFF63E81F0004070470CF00F03092BD6
:103DF00008BF082000F059800A2B0BD0082B18BFF1
:103E0000704708BF1CF0400F0AD04FF000004FF081
:103E1000000170471CF0400F18BF4FF00040704782
:103E20001CF0100F08D020F0704300F07F4242EAEF
:103E3000D3014FEA4370704700F0604021F07F42A9
:103E400042EA000201F07F4040EA727070474FF092
:103E5000FF0C4CF4E06C1CEA11531CBF9CEA030CF1
:103E60009445C2BFDA4201EB02517047002B0DD0DE
:103E7000BCF1000F0FD0002A01F00041A4BF41F0B7
:103E8000E04141F07F614FF00000704701F00041D8
:103E90004FF00000704750EA01334FF09B0C18BF01
:103EA0004CF0806C7EF41AAF70471CF4801F11D068
:103EB0001CF4E02F03D06FEACC31490070474FF07B
:103EC0004050EFF3008222F0704242EA000282F397
:103ED000008870474FF0000070470000F9FFFFFFB7
:103EE000FBFFFFFFFDFFFFFFFFFFFFFF01000000E3
:103EF00003000000050000000700000000000000B3
:103F0000000000000000000000000000000000F8B9
:103F100000000000000000333000000000100C061C
:103F2000100C0600000000000000000040C07840B7
:103F3000C0784000043F04043F040400007088FC83
:103F400008300000001820FF211E0000F008F000DB
:103F5000E018000000211C031E211E0000F008884C
:103F6000700000001E2123241927211010160E00B6
:103F7000000000000000000000000000000000E061
:103F80001804020000000007182040000002041876
:103F9000E00000000040201807000000404080F0D2
:103FA000804040000202010F01020200000000F008
:103FB000000000000101011F0101010000000000DC
:103FC0000000000080B07000000000000000000051
:103FD00000000000000101010101010100000000DA
:103FE0000000000000303000000000000000000071
:103FF00080601804006018060100000000E010084E
:104000000810E000000F102020100F00001010F822
:10401000000000000020203F202000000070080861
:1040200008887000003028242221300000300888E1
:10403000884830000018202020110E000000C02009
:1040400010F8000000070424243F240000F808882A
:10405000880808000019212020110E0000E01088B7
:1040600088180000000F112020110E0000380808E9
:10407000C83808000000003F0000000000708808F9
:1040800008887000001C222121221C0000E010087A
:104090000810E0000000312222110F00000000C0D3
:1040A000C000000000000030300000000000008070
:1040B0000000000000008060000000000000804060
:1040C0002010080000010204081020004040404079
:1040D00040404000040404040404040000081020CC
:1040E0004080000000201008040201000070480811
:1040F0000808F0000000003036010000C030C82879
:10410000E810E0000718272423140B000000C03833
:10411000E0000000203C23020227382008F88888AD
:1041200088700000203F202020110E00C0300808B9
:1041300008083800071820202010080008F8080890
:104140000810E000203F202020100F0008F8888889
:10415000E8081000203F20202320180008F8888855
:10416000E8081000203F200003000000C0300808CD
:104170000838000007182020221E020008F8080056
:104180000008F808203F210101213F20000808F81D
:10419000080800000020203F202000000000080840
:1041A000F8080800C08080807F00000008F888C000
:1041B00028180800203F20012638200008F80800B1
:1041C00000000000203F20202020300008F8F800E8
:1041D000F8F80800203F003F003F200008F830C0FA
:1041E0000008F808203F200007183F00E0100808EA
:1041F0000810E0000F10202020100F0008F8080819
:104200000808F000203F210101010000E01008082B
:104210000810E0000F18242438504F0008F8888850
:1042200088887000203F2000030C30200070880830
:10423000080838000038202121221C00180808F83E
:10424000080818000000203F2000000008F80800BF
:104250000008F808001F202020201F000878880090
:1042600000C83808000007380E010000F80800F800
:104270000008F800033C0700073C030008186880AA
:104280008068180820302C03032C30200838C80020
:10429000C83808000000203F20000000100808086F
:1042A000C83808002038262120201800000000FE11
:1042B000020202000000007F40404000000C30C0BD
:1042C00000000000000000010638C00000020202E9
:1042D000FE000000004040407F000000000004029B
:1042E00002020400000000000000000000000000C6
:1042F00000000000808080808080808000020204B6
:1043000000000000000000000000000000008080AD
:10431000808000000019242222223F2008F800801B
:1043200080000000003F112020110E0000000080DE
:1043300080800000000E112020201100000000806D
:104340008088F800000E112020103F20000080809F
:1043500080800000001F222222221300008080F0B3
:10436000888888180020203F2020000000008080DE
:1043700080808000006B94949493600008F8008023
:1043800080800000203F210000203F20008098987E
:10439000000000000020203F2020000000000080DE
:1043A0009898000000C08080807F000008F800001E
:1043B00080808000203F24022D302000000808F873
:1043C000000000000020203F20200000808080802E
:1043D00080808000203F20003F20003F80800080C0
:1043E00080800000203F210000203F2000008080CE
:1043F00080800000001F202020201F00808000807F
:104400008000000080FFA12020110E00000000802D
:1044100080808000000E112020A0FF80808080001E
:104420008080800020203F2120000100000080804B
:10443000808080000033242424241900008080E040
:10444000808000000000001F20200000808000000D
:1044500000808000001F202020103F2080808000EE
:104460000080808000010E300806010080800080FE
:10447000008080800F300C030C300F000080800023
:10448000808080000020312E0E312000808080004E
:104490000080808080818E701806010000808080FE
:1044A000808080000021302C22213000000000009C
:1044B000807C020200000000003F4040000000003D
:1044C000FF00000000000000FF0000000002027C6E
:1044D000800000000040403F000000000006010195
:1044E00002020404000000000000000000000000C0
:1044F000000000000000F03F000000000000F83F56
:1045000000000000000000000000004003B8E23F8F
:10451000000000000000000006D0CF43EBFD4C3E41
:10452000033333333333E33FFFAB6FDBB66DDB3F36
:104530004D268F515555D53F01411DA96074D13F7E
:1045400065DBC9934A86CD3FEF4E454A287ECA3F78
:104550003E5555555555C53F93BDBE166CC166BFFA
:104560002CDE25AF6A56113FF16BD2C541BDBBBEF3
:10457000D0A4BE726937663E000000000000000053
:104580003130000032000000330000003400000031
:104590003500000036000000370000003800000041
:1045A000390000004100000043000000440000000A
:1045B000480000004A0000004A4B00004B00000089
:1045C000510000005300000000000000EC4500080E
:1045D00000000020D000000028010008BC460008B0
:1045E000D0000020C80600004401000800000000C0
:1045F00000000000C8450008C4450008B045000898
:10460000AC450008A8450008B8450008B8450008B2
:10461000C8450008A44500088445000888450008EE
:104620008C4500089045000894450008984500080E
:104630009C450008A045000880450008B4450008D6
:10464000C0450008BC450008000000000101000052
:10465000000000000000000000000000000000005A
:104660000000FA440000484400010000000000007F
:10467000000000000000000000000000000000003A
:10468000000000000000000000000000000000002A
:104690000000000000080140000C01400010014033
:1046A00000000040000400400008004000380140C5
:0C46B000004400400048004000000000F2
:04000005080000ED02
:00000001FF
